:100000000C9463010C948B010C948B010C948B0168
:100010000C948B010C948B010C948B010C94230693
:100020000C948B010C948B010C948B010C948B0120
:100030000C948B010C948B010C948B010C948B0110
:100040000C94430D0C948B010C94F1050C94CB058E
:100050000C948B010C948B010C948B010C948B01F0
:100060000C948B010C948B010000000024002700ED
:100070002A00000000002300260029000000FF00E5
:10008000002AD5000055AB00007FAB0000ABAB00F1
:1000900000D5560000FF00002AD5000055AB000037
:1000A000AA560000FF000000D5002A00AB00550052
:1000B00081007F005500AB002B00D5000000FF0041
:1000C000000000000055AB000000000000ABAB00DA
:1000D0000000000000FF00000000000055AB000021
:1000E00000000000FF00000000000000AB00550011
:1000F000000000005500AB00000000000000000000
:100100000000330000006600000099000000CC00F1
:100110000000FF000033FF000066FF000099FF00B1
:1001200000CCFF0000FFFF0033FFFF0066FFFF0071
:1001300099FFFF00CCFFFF00FFFFFF00AB00550061
:100140007C0084004B00B5001B00E5000017E800B0
:100150000047B8000077AB0000ABAB000055AB0028
:100160000022DD000E00F2003E00C20071008F0090
:10017000A1005F00D0002F00F9070000006400001C
:10018000006400002F6B5500006400000080000038
:10019000228B2200238E6B0000800000578B2E00E4
:1001A000AACD660032CD320032CD9A0090EE90009A
:1001B00000FC7C00AACD6600228B2200000000001B
:1001C00000008000000000000000800000008B00A4
:1001D0000000800000008B0000008B0000008B00FE
:1001E0000000FF0000A5FF00FFFFFF0000A5FF00CB
:1001F0000000FF0000008B0000000000FF00000076
:100200008B0000008B0000008B0000008B000000C2
:100210008B0000008B0000008B000000FF0000003E
:100220008B000000EBCE8700EBCE8700E6D8AD0058
:10023000FFFFFF00E6D8AD00EBCE87007019190074
:100240008B00000070191900800000008B00000076
:10025000CD000000578B2E0080800000A09E5F0024
:10026000FF0000008B8B0000ED956400D4FF7F0041
:10027000578B2E00FFFF0000FACE87000000000021
:10028000250028002B0004040404040404040202D2
:100290000202020203030303030301020408102005
:1002A0004080010204081020010204081020000010
:1002B0000008000201000003040700000000000025
:1002C0000000231A221A11241FBECFEFD8E0DEBF90
:1002D000CDBF11E0A0E0B1E0EAE5F0E402C0059096
:1002E0000D92A83BB107D9F724E0A8EBB1E001C01B
:1002F0001D92A432B207E1F711E0C2E6D1E004C0DA
:100300002197FE010E94D91EC136D107C9F70E946C
:100310008D0D0C9420200C940000089580E090E056
:100320000895FC01538D448D252F30E0842F90E0FB
:10033000821B930B541710F0CF96089501970895E0
:10034000FC01918D828D981761F0828DDF01A80FDD
:10035000B11D5D968C91928D9F5F9F73928F90E0FF
:1003600008958FEF9FEF0895FC01918D828D98176E
:1003700031F0828DE80FF11D858D90E008958FEFAB
:100380009FEF0895FC01918D228D892F90E0805C74
:100390009F4F821B91098F739927089585ED91E0F6
:1003A0000E94C20121E0892B09F420E0822F0895E8
:1003B000FC01848DDF01A80FB11DA35ABF4F2C9102
:1003C000848D90E001968F739927848FA689B789D1
:1003D0002C93A089B1898C9180648C93938D848DAA
:1003E000981306C00288F389E02D80818F7D808379
:1003F0000895EF92FF920F931F93CF93DF93EC0139
:1004000081E0888F9B8D8C8D981305C0E889F989D0
:10041000808185FD24C0F62E0B8D10E00F5F1F4FED
:100420000F731127E02E8C8DE8120CC00FB607FC5D
:10043000FACFE889F989808185FFF5CFCE010E9446
:10044000D801F1CF8B8DFE01E80FF11DE35AFF4F6C
:10045000F0820B8FEA89FB898081806207C0EE8978
:10046000FF896083E889F98980818064808381E0E5
:1004700090E0DF91CF911F910F91FF90EF90089541
:10048000CF93DF93EC01888D8823C9F0EA89FB893B
:10049000808185FD05C0A889B9898C9186FD0FC032
:1004A0000FB607FCF5CF808185FFF2CFA889B98907
:1004B0008C9185FFEDCFCE010E94D801E7CFDF916F
:1004C000CF91089580E090E0892B29F00E94CE0121
:1004D00081110C9400000895EF92FF920F931F93E7
:1004E000CF93DF93EC019091D0019F5F292F27706C
:1004F0002093D00190FF02C090E801C090E021FD60
:100500009064247009F0906220E1290FFE013C966E
:100510007E018FE0E80EF11C00E011E0619166239E
:1005200031F070E0C8010E94271E6F5F01C060E0DB
:10053000DF0114976C93322F369F030E30E0311D8C
:100540001124CF010797311103C0EC01188203C0B9
:100550003150EC013883662311F061506C93EE1535
:10056000FF05E1F6DF91CF911F910F91FF90EF9082
:10057000089580E991E00895559A08950F931F9387
:10058000CF93DF93CDB7DEB762970FB6F894DEBF97
:100590000FBECDBF8C01F901DC011C968C917A83D2
:1005A00069835C834B835E834D8390819D879181BA
:1005B0009E8792819F87813029F4CE0101960E9407
:1005C0006C0206C01C861B861A86198618861F8236
:1005D00083E0888B1A8A198AD801ED91FC910484F2
:1005E000F585E02DBE016F5F7F4FC80109956296CA
:1005F0000FB6F894DEBF0FBECDBFDF91CF911F9134
:100600000F9108950F931F93CF93DF93CDB7DEB76C
:1006100062970FB6F894DEBF0FBECDBF8C01F90113
:10062000DC011C968C917A8369835C834B835E83A7
:100630004D8390819D8791819E8792819F87813094
:1006400029F4CE0101960E946C0206C01C861B860E
:100650001A86198618861F82188A1A8A198AD8015A
:10066000ED91FC910484F585E02DBE016F5F7F4F15
:10067000C801099562960FB6F894DEBF0FBECDBFD4
:10068000DF91CF911F910F91089580E090E0089540
:10069000FC01858596850895CF93DF9300D000D027
:1006A00000D0CDB7DEB7AB011C821D821E82DC01FB
:1006B000ED91FC910190F081E02D19821A821B824C
:1006C0009E012F5F3F4FBE016C5F7F4F09952696BD
:1006D0000FB6F894DEBF0FBECDBFDF91CF91089566
:1006E0000E941B200C94831F0C94831F0C94831F67
:1006F0004F925F926F927F928F92AF92BF92CF9202
:10070000EF92FF920F931F93CF93DF933C01EB0186
:100710000E941E0DF30127853089621B730B6A301E
:100720007105B0F3F894E881F9815BB150628BB147
:100730008F7D8BB96A859F81262F291B922F2F834E
:10074000BF844A805B807D85FC84EE847F5FF39468
:10075000E3943E814885A984CB841181D20120E0B5
:10076000C32F022F322F3181112788943111390F75
:1007700008F43FEF9195889470FD130F17958894B6
:1007800071FD130F1795889472FD130F17958894B8
:1007900073FD130F1795889474FD130F17958894A4
:1007A00075FD130F1795889476FD130F1795889490
:1007B00077FD130F17958894232F7111212F960F12
:1007C000122F002C5BB900C017FF8BB93081222794
:1007D000889400C000C0002C8BB931113C0F00C0C0
:1007E000002C5BB900C016FF8BB908F43FEFC19530
:1007F000889400C000C0002C8BB9F0FC230F00C00F
:10080000002C5BB900C015FF8BB927958894F1FCCB
:10081000230F00C000C0002C8BB92795889400C01E
:10082000002C5BB900C014FF8BB9F2FC230F279595
:10083000889400C000C0002C8BB9F3FC230F00C0CB
:10084000002C5BB900C013FF8BB927958894F4FC8A
:10085000230F00C000C0002C8BB92795889400C0DE
:10086000002C5BB900C012FF8BB9F5FC230F279554
:10087000889400C000C0002C8BB9F6FC230F00C088
:10088000002C5BB900C011FF8BB927958894F7FC49
:10089000230F00C000C0002C8BB92795889400C09E
:1008A000002C5BB900C010FF8BB9132FF110122F71
:1008B000CA0D00C000C0002C8BB900C000C0002CC5
:1008C0005BB900C017FF8BB932812227889400C022
:1008D00000C0002C8BB93111340F00C0002C5BB963
:1008E00000C016FF8BB908F43FEFEB0DF11D00C0FF
:1008F00000C0002C8BB9E0FC230F00C0002C5BB9BA
:1009000000C015FF8BB927958894E1FC230F00C028
:1009100000C0002C8BB92795889400C0002C5BB9CF
:1009200000C014FF8BB9E2FC230F2795889400C008
:1009300000C0002C8BB9E3FC230F00C0002C5BB976
:1009400000C013FF8BB927958894E4FC230F00C0E7
:1009500000C0002C8BB92795889400C0002C5BB98F
:1009600000C012FF8BB9E5FC230F2795889400C0C7
:1009700000C0002C8BB9E6FC230F00C0002C5BB933
:1009800000C011FF8BB927958894E7FC230F00C0A6
:1009900000C0002C8BB92795889400C0002C5BB94F
:1009A00000C010FF8BB9132FE110122F419500C02A
:1009B00000C0002C8BB94C0D00C000C05BB900C05A
:1009C00017FF8BB931812227889400C000C0002C0A
:1009D0008BB93111390F00C0002C5BB900C016FF74
:1009E0008BB908F43FEF9195889400C000C0002CAB
:1009F0008BB970FD230F00C0002C5BB900C015FF40
:100A00008BB92795889471FD230F00C000C0002C7E
:100A10008BB92795889400C0002C5BB900C014FFE7
:100A20008BB972FD230F2795889400C000C0002C5D
:100A30008BB973FD230F00C0002C5BB900C013FFFE
:100A40008BB92795889474FD230F00C000C0002C3B
:100A50008BB92795889400C0002C5BB900C012FFA9
:100A60008BB975FD230F2795889400C000C0002C1A
:100A70008BB976FD230F00C0002C5BB900C011FFBD
:100A80008BB92795889477FD230F00C000C0002CF8
:100A90008BB92795889400C0002C5BB900C010FF6B
:100AA0008BB9132F7111122F960F00C000C0002CAC
:100AB0008BB9119709F086CE20EE31E0D2010E9469
:100AC0007C1EDC01CB01F4E0B695A7959795879540
:100AD000FA95D1F720E030E0A9016AE9469E040CBE
:100AE000411D569E400D511D1124450D511D840F71
:100AF000951FA11DB11D893E43E09407A105B105D5
:100B000008F434C0885E9340A109B10942E0B6956B
:100B1000A795979587954A95D1F747E0849F080E4A
:100B2000211D949F200D311D1124290F311D60912D
:100B3000CF0170E0860F971F820F931F4091D10164
:100B40005091D2016091D3017091D401292F3327A4
:100B5000420F531F611D711D4093D1015093D2016B
:100B60006093D3017093D4018093CF0178940E9455
:100B70001E0DF301708B6787DF91CF911F910F914D
:100B8000FF90EF90CF90BF90AF908F907F906F903D
:100B90005F904F9008951F920F920FB60F921124FD
:100BA0002F933F934F935F936F937F938F939F9375
:100BB000AF93BF93EF93FF9385ED91E00E94D8012F
:100BC000FF91EF91BF91AF919F918F917F916F9125
:100BD0005F914F913F912F910F900FBE0F901F90FB
:100BE00018951F920F920FB60F9211242F938F9387
:100BF0009F93EF93FF93E091E501F091E6018081EF
:100C0000E091EB01F091EC0182FD12C090818091A6
:100C1000EE018F5F8F732091EF01821751F0E09109
:100C2000EE01F0E0EB52FE4F958F8093EE0101C094
:100C30008081FF91EF919F918F912F910F900FBE27
:100C40000F901F9018951F920F920FB60F921124BC
:100C50002F933F934F935F936F937F938F939F93C4
:100C6000AF93BF93CF93DF93EF93FF9320918202D3
:100C700030E0F901E255FD4F8491F901E656FD4F50
:100C8000D491F901EA57FD4FC491CC23A1F0811111
:100C90000E94C50CEC2FF0E0EE0FFF1FEE58FF4F47
:100CA000A591B491EC91ED2331E020E009F430E01E
:100CB000832F922F02C080E090E020918602309135
:100CC00087022F5F3F4F3093870220938602209147
:100CD0008502253618F026E02093810220918102BA
:100CE0002430D9F128F4223069F02330D9F060C0E3
:100CF000253009F453C0263009F05AC021E0209372
:100D0000520353C0009709F053C0209186023091DE
:100D100087022436310508F443C010925203109222
:100D200085021DC08130910509F042C0E091850225
:100D300021E02E0F20938502F0E020918602309171
:100D40008702EE0FFF1FEF57FD4F3087278310926A
:100D500087021092860224E029C00097B9F4E0913E
:100D6000850221E02E0F20938502F0E0209186027B
:100D700030918702EE0FFF1FEF57FD4F308727831B
:100D8000109287021092860223E010C02091860202
:100D9000309187022536310558F007C0009741F49D
:100DA000109287021092860203C025E020938102F0
:100DB000209184022223B9F0892B51F4809183027F
:100DC000882321F08091830261E009C02D9A0BC035
:100DD00080918302882331F08091830260E00E9439
:100DE000EE0C01C02D98FF91EF91DF91CF91BF9153
:100DF000AF919F918F917F916F915F914F913F91B3
:100E00002F910F900FBE0F901F901895CF92DF92E9
:100E1000EF92FF92CF93DF93EC01072E000C880B2B
:100E2000990B0E94FA1C6B017C0120E030E040E449
:100E30005FE30E94AA1D20E030E048E452E40E94F3
:100E4000501C0E94C21CC617D707D4F020E030E027
:100E500040EA5FE3C701B6010E94AA1D20E030E02E
:100E600048E452E40E94501C20E030E040E85FE398
:100E70000E94DF1B0E94C21C21E06C177D070CF44E
:100E800020E0822F90E0DF91CF91FF90EF90DF90F4
:100E9000CF900895DC01FB014C9111965C91119764
:100EA00012967C91342F3F71330F330F832F880FAD
:100EB00035E5282F239F020E20E0211D1124642FE9
:100EC0006074942F907247FD21C061110BC0911185
:100ED00004C0822F8095422F11C045E5420F30E0BB
:100EE0002BEA33C091110DC0382F4AEA349F030E0C
:100EF00030E0311D11248BEA831B420F282F30E094
:100F000024C080E0422F4095322F0EC0611111C0E5
:100F100091110CC0382F2AEA329F030E30E0311DA8
:100F200011244BEA431B3B5A20E00FC0322F30956F
:100F30000BC0911104C085E5820F3BEA03C08AEA29
:100F4000820F90E0321B282F40E05F3F11F15523C4
:100F5000E9F0222321F0259F020E20E0211D4423E9
:100F600021F0459F040E40E0411D332321F0359FC1
:100F7000030E30E0311D11245095559F050E50E0B1
:100F8000511D1124250F450F350F03C03FEF4FEFC3
:100F90002FEF7F3F09F420C050E0772321F0779FA7
:100FA000512D09F05F5F5523A1F0222321F0259FE9
:100FB000020E20E0211D442321F0459F040E40E055
:100FC000411D332321F0359F030E30E0311D1124E4
:100FD00003C030E040E020E0208341833283089565
:100FE000089508950895CF93DF93EB01DC011296E5
:100FF00020E030E0FE01E20FF31F4591559165912D
:101000007491FD0132976083319650834C932C5F2D
:101010003F4F13962034310569F7DF91CF91089542
:10102000409100015091010125E038E0429FC0014C
:10103000439F900D529F900D1124875E994C909381
:10104000010180930001890F089520E330E0FB0146
:10105000DC0120FF05C002C001900D9201900D92AD
:101060002250D0F73040C0F708958617970710F444
:101070000C942508C096605D7F4F20E330E0FB01B3
:10108000DC0120FF05C002C002900E9202900E9279
:101090002250D0F73040C0F70895009769F0FC0166
:1010A00001900020E9F73197AF01481B590BBC01B3
:1010B00085ED91E00C94530B80E090E008958F92C1
:1010C0009F92AF92BF920F931F93CF93DF93CDB7B1
:1010D000DEB7A1970FB6F894DEBF0FBECDBF19A241
:1010E000423008F44AE08E010F5D1F4F842E912C90
:1010F000A12CB12CA50194010E943B1EE62FB90141
:10110000CA0101501109EA3014F4E05D01C0E95C44
:10111000D801EC93232B242B252B61F7C8010E94C7
:101120004D08A1960FB6F894DEBF0FBECDBFDF917C
:10113000CF911F910F91BF90AF909F908F90089586
:1011400090916103282F082E000C330B290F311DBD
:10115000215031092D31310518F4980F9093610316
:101160006091610370E080E090E04AE00E945F08D7
:101170008CE591E00C944D08BC0182E693E00C9460
:101180003508AF92BF92CF92DF92EF92FF920F930A
:101190001F93CF93DF93D42ED901FC0132965C01CB
:1011A0002AE4A20EB11CCC24C394C00E462F429553
:1011B0004F70762F7F707D01842F880F840FED0193
:1011C000C80FD11D588129813A81772309F42CC099
:1011D0004F3021F07E01D3E0ED0EF11C7295707F4F
:1011E000472F4095E7019881549F050E50E0511D0F
:1011F000192F179F010E10E0111D510F9981249F87
:10120000020E20E0211D192F179F010E10E0111D65
:10121000210F1A81349F030E30E0311D179F010EFC
:1012200010E0111D310F11240F3FE1F00023B9F040
:10123000552329F04C2D549F050E50E0511D2223BB
:1012400029F04C2D249F020E20E0211D332329F08C
:101250004C2D349F030E30E0311D112403C030E0CB
:1012600020E050E0CF010297EC0158830196EC0199
:10127000288330836D0D3396EA15FB0509F096CF70
:10128000DF91CF911F910F91FF90EF90DF90CF9062
:10129000BF90AF900895CF93DF9380935E03E0916A
:1012A0009203F0919303329680E090E0A0915F0367
:1012B000B0916003A80FB91FEF01229728812C93EA
:1012C0002196288111962C931197208112962C93A8
:1012D000039633968834910549F7DF91CF910895AD
:1012E0003F924F925F926F927F928F929F92AF92B6
:1012F000BF92CF92DF92EF92FF920F931F93CF9303
:10130000DF9300D01F92CDB7DEB7F82E8091770221
:1013100090917802A0917902B0917A02892B8A2B60
:101320008B2BE9F00E941E0D0091EA031091EB0354
:101330002091EC033091ED03DC01CB01801B910B7C
:10134000A20BB30B009177021091780220917902E1
:1013500030917A0280179107A207B307B8F20E9472
:101360001E0D6093EA037093EB038093EC0390935C
:10137000ED03E0917F02F0918002309759F04091A7
:101380007B0250917C0260917D0270917E028F2DD4
:101390000995F82E0091090410910A044F2C512C44
:1013A000612C712C0115110509F461C0D8011C963E
:1013B000EC901C978091750290917602843691058D
:1013C00010F41C961C92D801ED91FC91A280B38080
:1013D00019821A821B82F11014C0F80145855685C6
:1013E000628173819E012F5F3F4FC801F50109950E
:1013F000D8011C96EC921C9714960D911C91159790
:10140000D1CFF8013996CE0101966C0148019CE0DC
:10141000890E911CDF0113973C902191332001F13B
:101420002223F1F0822F90E0A0E0B0E09C01AD011A
:101430002F5F3F4F4F4F5F4FC301B2010E94171EF6
:101440009B01AC01832D90E0A0E0B0E0BC01CD0198
:101450006F5F7F4F8F4F9F4F0E94171ED6018C9357
:10146000BFEFCB1ADB0AE815F905A1F6B6CF8091DC
:10147000E8039091E9039C012F5F3F4F3093E9030C
:101480002093E80349970CF447C08FB7F894009174
:10149000D1011091D2012091D3013091D4018FBF9D
:1014A000E091E803F091E90388EE93E0E89FB00152
:1014B000E99F700DF89F700D1124072E000C880B0A
:1014C000990BC090E403D090E503E090E603F09020
:1014D000E703A90198012C193D094E095F090E94F3
:1014E0003B1E30937602209375021092E90310920E
:1014F000E8032FB7F8948091D1019091D201A09187
:10150000D301B091D4012FBF8093E4039093E503FE
:10151000A093E603B093E7030F900F900F90DF9135
:10152000CF911F910F91FF90EF90DF90CF90BF90E0
:10153000AF909F908F907F906F905F904F903F9073
:101540000895CF93DF930E944D08EC018CE591E064
:101550000E944D088C0F9D1FDF91CF91089520911F
:10156000E2033091E3032F5F3F4F3093E303209377
:10157000E20340917202509173024115510519F036
:10158000421753071CF48BE691E005C0813092406E
:1015900034F08DE891E00E94A10A80E0089581E096
:1015A00008959C012F5F3F4F2130324014F40C947A
:1015B000C81B8DE891E00E94A10A80E00895EF9297
:1015C000FF921F93CF93DF93EC01162F7C018FEFD7
:1015D000E81AF80AC7010E94AF0A811103C020E08F
:1015E00030E012C0CE010E94D10A811791F0C701EC
:1015F0000E94AF0A882321F0612FCE010E94D01BE8
:1016000091E080E0292F382F81E0232B21F480E026
:1016100002C090E0F6CFDF91CF911F91FF90EF9045
:101620000895EF92FF920F931F93CF93DF9300D013
:101630001F92CDB7DEB72091E0033091E103811115
:1016400003C0265F3F4F02C02A5031093093E103A7
:101650002093E00380E00E944B09E0909203F09019
:1016600093038091E00389838FEF8B8380EF8A83DC
:1016700000E010E0B701600F711FCE0101960E94DB
:101680004A078981865F89830D5F1F4F08341105E2
:1016900089F70F900F900F90DF91CF911F910F91CD
:1016A000FF90EF900895CF92DF92EF92FF920F9309
:1016B0001F93CF93DF936C017A018B01C0E0D0E0E0
:1016C000CE15DF0589F0D8016D918D01D601ED9120
:1016D000FC910190F081E02DC6010995892B11F450
:1016E0007E0102C02196ECCFC701DF91CF911F91FF
:1016F0000F91FF90EF90DF90CF9008950F93E3E567
:10170000F3E0828394812091DD033091DE0340E396
:10171000949F200D311D1124009174024381682F84
:1017200080919203909193030E94C1080F910895B4
:101730000F93E3E5F3E0838394812091DD033091FF
:10174000DE0340E3949F200D311D112400917402AB
:10175000482F628180919203909193030E94C10867
:101760000F910895CF93DF93EC0180E00E944B0925
:101770002091920330919303F9013296265B3F4FFB
:101780008881DF0112978C93898111968C938A81CD
:1017900080833396E217F30799F7DF91CF9108958D
:1017A0000F931F93CF93DF938C0180E00E944B092E
:1017B000E0919203F09193039F012F5F3F4FDF0170
:1017C0001296AF01475B5F4FE8018A818F3F41F47A
:1017D0009C91692F70E06630710514F095509C93D0
:1017E000E80188818F3F41F49081692F70E0663075
:1017F000710514F095509083E8018981803849F48F
:10180000E9019881692F70E06630710514F09550F8
:1018100098832D5F3F4F3396139624173507A1F613
:10182000DF91CF911F910F910895CF93DF93EC013A
:1018300080E00E944B09E0919203F09193039F0195
:101840002E5F3F4FAF01485B5F4FD9019C918A816A
:101850008F3F39F4692F70E06A3F710514F49B5F84
:101860009C9388818F3F41F49081692F70E06A3F9B
:10187000710514F49B5F90838981803849F4D90104
:101880009E91692F70E06A3F710514F49B5F9C93F1
:101890002D5F3F4F3396E417F507B9F6DF91CF91EF
:1018A00008958F929F92AF92BF92CF92DF92EF9264
:1018B000FF920F931F93CF93DF93FC01C081D181DF
:1018C0002091170430911804C217D3070CF04BC0B5
:1018D0009E01220F331FE0911504F0911604E20FD0
:1018E000F31F80809180C170DD27F1E0CF27209722
:1018F00019F404E610E002C00CE91FEF7A015B0165
:101900006C01040F151FB801C4010E940607892B42
:1019100099F40E0D1F1DB801C4010E940607892B02
:1019200071F4B8016E0D7F1DC4010E940607892B5A
:10193000E9F023E030E005C021E030E002C022E021
:1019400030E0F501808191810196821793073CF088
:10195000F50111821082F6018081918101969183B7
:101960008083CE0105C081E090E002C08FEF9FEF41
:10197000DF91CF911F910F91FF90EF90DF90CF906B
:10198000BF90AF909F908F900895833081F028F49E
:10199000813099F08230A1F008958730A9F0883025
:1019A000B9F08430D1F4809180008F7D03C08091A4
:1019B00080008F7780938000089584B58F7702C070
:1019C00084B58F7D84BD08958091B0008F7703C06A
:1019D0008091B0008F7D8093B00008951F93CF93C6
:1019E000DF93282F30E0F901E255FD4F8491F90192
:1019F000E656FD4FD491F901EA57FD4FC491CC232F
:101A0000C9F0162F81110E94C50CEC2FF0E0EE0FEB
:101A1000FF1FE458FD4FA591B4918FB7F8941111B1
:101A200005C09C91ED2FE095E92302C0EC91ED2BD0
:101A3000EC938FBFDF91CF911F9108953FB7F8943A
:101A400080911C0490911D04A0911E04B0911F046C
:101A500026B5A89B05C02F3F19F00196A11DB11D09
:101A60003FBFBA2FA92F982F8827820F911DA11D44
:101A7000B11DBC01CD0142E0660F771F881F991F81
:101A80004A95D1F708951F920F920FB60F92112425
:101A90002F933F938F939F93AF93BF938091D101E7
:101AA0009091D201A091D301B091D40130911B0447
:101AB00023E0230F2D3720F40196A11DB11D05C091
:101AC00026E8230F0296A11DB11D20931B048093CD
:101AD000D1019093D201A093D301B093D40180910E
:101AE0001C0490911D04A0911E04B0911F04019646
:101AF000A11DB11D80931C0490931D04A0931E048E
:101B0000B0931F04BF91AF919F918F913F912F91FF
:101B10000F900FBE0F901F901895CF93DF93CDB706
:101B2000DEB7E5970FB6F894DEBF0FBECDBF789451
:101B300084B5826084BD84B5816084BD85B58260D2
:101B400085BD85B5816085BD80916E008160809383
:101B50006E001092810080918100826080938100EC
:101B600080918100816080938100809180008160FC
:101B7000809380008091B10084608093B100809157
:101B8000B00081608093B00080917A00846080937F
:101B90007A0080917A00826080937A0080917A0046
:101BA000816080937A0080917A00806880937A00C7
:101BB0001092C1001092CB011092CC011092CD0175
:101BC0001092CE01809174020E947009E091E501AB
:101BD000F091E60182E08083E091E101F091E20181
:101BE0001082E091E301F091E4019FEC9083109268
:101BF000ED01E091E901F091EA0196E09083E09136
:101C0000E701F091E801908190619083E091E70114
:101C1000F091E801908198609083E091E701F09164
:101C2000E801908190689083E091E701F091E801EC
:101C300090819F7D9083F8948093B0008093B10051
:101C400094E69093B3001092B20080937000789461
:101C500080938102109285028091820290E0FC01C3
:101C6000E656FD4F2491FC01EA57FD4F84918823ED
:101C7000C9F090E0880F991FFC01E859FF4F45918A
:101C80005491FC01E458FD4FA591B4919FB7F8948D
:101C9000FA0180812095822380838C91E22FE823B2
:101CA000EC939FBF84E00E944B0988EB91E01CE01D
:101CB000180F1DAB88E892E09093160480931504EA
:101CC0008091850290E0909318048093170480918E
:101CD000520390E090931A0480931904809181023A
:101CE000853009F0EFC280918A0290918B0288586A
:101CF00091098D35910588F480918502843041F4F5
:101D000080918C0290918D028097479708F41DC3B3
:101D100080918502843408F0FFC2809185028A3167
:101D200008F452C08091880290918902843F9140CA
:101D300080F410921404109213048FEF9FEFDC01D3
:101D400080930F0490931004A0931104B093120495
:101D500059C080918A0290918B0285974B97A0F58C
:101D6000EEE8F2E082E090E0C12CD12C7601AC01EB
:101D70004F5F5F4F2091850230E0421753075CF4BC
:101D8000DF0112972D913C91275031092730310501
:101D900008F422C3CA01019795958795909314047E
:101DA000809313040C972CF41092140410921304D3
:101DB0000BC0C0920F04D0921004E0921104F09274
:101DC000120484E090E0E5C3809185028A3108F432
:101DD0004CC080918802909189028032934008F42F
:101DE000A8CF80918A0290918B02C697869708F4BB
:101DF00010C33BC0C0920F04D0921004E0921104B3
:101E0000F09212048BE090E0C4C32081318125520E
:101E100031092B31310508F00CC3CC0CDD1CEE1C54
:101E2000FF1C6894C0F802963496AC014F5F5F4F78
:101E30002091850230E04217530754F4DF011297D6
:101E40002D913C912C5031092B303105F0F2CA0113
:101E500001979595879590931404809313040C979C
:101E60004CF6109214041092130480918502823271
:101E700008F44DC080918A0290918B0206970797D3
:101E800008F045C0EEE8F2E082E090E0C12CD12CF1
:101E900076019C012F5F3F4F4091850250E024174F
:101EA0003507E4F4DF0112974D915C9111974E5183
:101EB00051094731510508F0C9C2CC0CDD1CEE1C9C
:101EC000FF1C6894C0F840815181349643505109F9
:101ED0004530510510F40296DCCFC9010197959564
:101EE0008795909314048093130440972CF41092D8
:101EF0001404109213040BC0C0920F04D09210046B
:101F0000E0921104F09212048CE090E042C31AAA0D
:101F100019AA81E090E09A838983809185028D30AF
:101F200008F46BC049E753E0BE016F5C7F4FCE0100
:101F300001960E94510C892B09F05FC049E753E0DC
:101F4000BE016F5C7F4FCE0101960E94510C01973C
:101F500009F053C049E753E0BE016F5C7F4FCE01EB
:101F600001960E94510C892B09F047C0812C912CBD
:101F7000540100E010E08091850290E029813A81CF
:101F8000281739075CF549E753E0BE016F5C7F4FC6
:101F9000CE0101960E94510C7C0149E753E0BE013D
:101FA0006F5C7F4FCE0101960E94510CB1E0EB16A1
:101FB000F10449F4892B09F5880C991CAA1CBB1C57
:101FC000689480F808C0EF28C1F40197B1F4880C38
:101FD000991CAA1CBB1C0F5F1F4FCDCF109314047C
:101FE0000093130480920F0490921004A0921104A5
:101FF000B092120481E090E0CCC21AAA19AA81E042
:1020000090E09A83898380911704909118041816A0
:1020100019060CF058C0E0911504F091160482E006
:1020200090E09A8389838281938189974E9708F003
:102030004AC083E090E09A838983848195810B97DD
:102040000A9708F040C04CEB51E0BE016F5C7F4F37
:10205000CE0101960E94510C892BA9F54CEB51E061
:10206000BE016F5C7F4FCE0101960E94510C01971B
:1020700051F5812C912C540100E010E029813A8126
:102080008091170490911804281739070CF021C289
:102090004CEB51E0BE016F5C7F4FCE0101960E9478
:1020A000510C7C010330110509F0DDC14CEB51E00E
:1020B000BE016F5C7F4FCE0101960E94510CE81665
:1020C000F90609F4D0C1E0911504F091160482815B
:1020D0009381C697869708F01AC2848195814B97A1
:1020E000459708F014C2DF0116967F0186ECE80ED2
:1020F000F11C20E030E040E050E060E070E080E083
:1021000090E00D911C9111970950110908301105AB
:1021100008F0FDC11296CD90DC90139711E1C11A21
:10212000D1081DE0C116D10408F0E2C101E00E940F
:102130008E1E21601496AE15BF0519F720930F046B
:1021400030931004409311045093120400E20E9453
:10215000A91E20930D0430930E0485E090E0909327
:102160000C0480930B0480E390E09093140480931C
:102170001304C0900F04D0901004E0901104F0906C
:102180001204BFEFCB16DB06EB06FB0609F040C0DE
:10219000C090CB01D090CC01E090CD01F090CE0169
:1021A000FDEFCF16F2E0DF06FFEFEF06F10409F4D2
:1021B000F5C11FE9C11610E6D1061FEFE106F104D3
:1021C00009F4ECC10E941E0D2B013C0168EC862E27
:1021D000912CA12CB12C0E941E0DDC01CB01841985
:1021E0009509A609B709883E9340A105B10558F0A5
:1021F00021E0821A9108A108B10888EE480E83E018
:10220000581E611C711C81149104A104B10419F7BA
:10221000C092CB01D092CC01E092CD01F092CE01E0
:1022200060910F0470911004809111049091120438
:1022300040E10E945F088CE591E00E944D0840E17A
:10224000C701B6010E945F088CE591E00E944D082D
:10225000F7E8CF16F8E7DF06FFEFEF06F10409F421
:1022600024C40CF053C225EDC2162AE2D2062FEF89
:10227000E206F10409F4D7C30CF0E0C19DEEC916E3
:1022800092E1D9069FEFE906F10409F420C40CF0AD
:10229000A0C1B7EFCB16B8E0DB06BFEFEB06F10449
:1022A00009F4D9C30CF081C1FDEFCF16F2E0DF06CF
:1022B000FFEFEF06F10409F444C382E0809381024A
:1022C0001092850280918102823021F080918102FA
:1022D0008530F9F4E0909203F09093039091CA0155
:1022E0008091610398130CC01092CA0180915E0323
:1022F000823009F4AEC408F077C4813009F47EC49A
:102300008091CA018F5F8093CA01809174020E94FC
:1023100070090E946202CECC80918C0290918D0255
:10232000825491098E9708F0F8CC80E090E040E06C
:1023300050E0BA01FC01E257FD4F20813181295064
:10234000310929303105C8F0E8CC80918E02909196
:102350008F020997099708F0DBCC109214041092B1
:1023600013048FEF9FEFDC0180930F049093100410
:10237000A0931104B09312046BC5FC01E057FD4F0C
:10238000208131812751310922313105C0F4440FB8
:10239000551F661F771F416004968038910551F6DE
:1023A00080E290E0909314048093130440930F0410
:1023B00050931004609311047093120449C5208156
:1023C0003181265031092730310508F0A6CC440F61
:1023D000551F661F771FE0CF2081318123513109BE
:1023E0002F30310548F4CC0CDD1CEE1CFF1C68942A
:1023F000C0F802963496BBCC208131812A50310935
:102400002930310508F0E0CCCC0CDD1CEE1CFF1CA3
:10241000F0CF80918C0290918D02C697869708F03C
:1024200024CDE0E9F2E083E090E0C12CD12C7601EC
:10243000FCCC208131812C5031092A30310508F043
:1024400014CDCC0CDD1CEE1CFF1CEDCC4D915C9131
:102450004C5051094B30510508F059CDCC0CDD1CC6
:10246000EE1CFF1C30CD4CEB51E0BE016F5C7F4F8A
:10247000CE0101960E94510C6C010330110569F4E4
:102480004CEB51E0BE016F5C7F4FCE0101960E9484
:10249000510CC816D90609F016CEE114F10459F40E
:1024A000CA94CD2809F00FCE880C991CAA1CBB1C1D
:1024B000689480F80BC0EA94EF2809F004CECD2888
:1024C00009F001CE880C991CAA1CBB1C0F5F1F4F82
:1024D000D5CD109314040093130480920F049092AE
:1024E0001004A0921104B092120482E090E051C056
:1024F0001296CD90DC90139714E0C11AD10815E024
:10250000C116D10420F401E00E948E1E13CE8091EA
:102510008502893340F082819381895791098335FF
:10252000910508F4A6C580918502823209F493C40E
:1025300082819381895791098335910508F417C6E3
:10254000828193818C549109C59708F090C4809141
:102550008502843009F086C48481958180974797ED
:1025600008F080C4868197810997099708F07AC49A
:1025700010921404109213048FEF9FEFDC018093EC
:102580000F0490931004A0931104B093120487E0F9
:1025900090E090930C0480930B04EBCDCC24CA9470
:1025A000DC2C7FE0E72EF12C0DCE15EFC1161AE0E2
:1025B000D1061FEFE106F10409F43FC22FEEC21667
:1025C00020E1D2062FEFE206F10409F076CE83E097
:1025D000B3C28FEDC81680E2D8068FEFE806F1048B
:1025E00009F4A7C2ACF4A7EECA16A8E1DA06AFEF69
:1025F000EA06F10409F42DC2B5EECB16BAE1DB060A
:10260000BFEFEB06F10409F058CE8FEF898309C2C2
:10261000EDEDCE16E2E2DE06EFEFEE06F10409F490
:1026200053C2F7EDCF16F8E2DF06FFEFEF06F10435
:1026300009F043CE8FEF89831A8221C217EBC116AE
:1026400018E4D1061FEFE106F10409F438C244F59D
:102650008DECC81682E3D8068FEFE806F10409F482
:102660003CC25CF4AFECCA16A0E3DA06AFEFEA06B0
:10267000F10409F022CE84E05FC2B7ECCB16B8E3D8
:10268000DB06BFEFEB06F10409F4DDC1E5ECCE1685
:10269000EAE3DE06EFEFEE06F10409F442C10DCEE7
:1026A000FFE9CF16F0E6DF06FFEFEF06F10409F4CD
:1026B00046C2B4F42FEAC21620E5D2062FEFE20696
:1026C000F10409F42AC287EAC81688E5D8068FEF14
:1026D000E806F10409F0F1CD8FEF89831A82A7C1D2
:1026E00097E9C91698E6D9069FEFE906F10409F4BF
:1026F000E1C1AFE8CA16A0E7DA06AFEFEA06F104D7
:1027000009F0DBCD80915503875E0AC2B5E5CB1693
:10271000BAEADB06BFEFEB06F10409F4A0C10CF046
:102720007FC0FDE6CF16F2E9DF06FFEFEF06F1040A
:1027300009F4B8C10CF03FC027E7C21628E8D2065A
:102740002FEFE206F10409F4A0C114F59DE7C916C4
:1027500092E8D9069FEFE906F10409F0AECD80E0DA
:102760000E944B0980919203909193030E94831FD2
:1027700088E490E00E94EE1E6C018FE591E00E94DB
:10278000A10A760182E0E80EF11C04E610E028C1FF
:10279000A5E7CA16AAE8DA06AFEFEA06F10409F4DB
:1027A00062C1BFE6CB16B0E9DB06BFEFEB06F10472
:1027B00009F4AAC182CDEFE5CE16E0EADE06EFEF1E
:1027C000EE06F10409F4B7C1ACF417E6C11618E936
:1027D000D1061FEFE106F10409F44BC125E6C2164C
:1027E0002AE9D2062FEFE206F10409F066CD19823C
:1027F00080E82CC18DE5C81682EAD8068FEFE8067E
:10280000F10409F44BC197E5C91698EAD9069FEF80
:10281000E906F10409F051CD198280E88A832FC1BD
:10282000AFE2CA16A0EDDA06AFEFEA06F10409F44A
:102830007CC1ACF5E7E4CE16E8EBDE06EFEFEE0682
:10284000F10409F413C1BCF41FE4C11610EBD10666
:102850001FEFE106F10409F450C12DE4C21622EB8A
:10286000D2062FEFE206F10409F027CD89E1898332
:102870008A8380E7DCC085E4C8168AEBD8068FEF30
:10288000E806F10409F454C097E3C91698ECD90698
:102890009FEFE906F10409F010CD8FEF2BC1A7E1FE
:1028A000CA16A8EEDA06AFEFEA06F10409F421C170
:1028B00004F5E7E2CE16E8EDDE06EFEFEE06F104F2
:1028C00009F411C1FFE1CF16F0EEDF06FFEFEF06CE
:1028D000F10409F0F2CC009192031091930384E685
:1028E00091E00E94A10A0E5F1F4F54E6E52EF12CE5
:1028F0005DC11FE0C11610EFD1061FEFE106F10424
:1029000009F411C127E0C21628EFD2062FEFE20624
:10291000F10409F0D2CC8DEA898388ED8A8386EEB2
:1029200086C0809174028F3F09F4C7CC8B5F06C0CC
:1029300080917402882309F4C0CC8550809374027E
:10294000BCCC80E00E944B098091DC03E0919203B3
:10295000F0919303882309F11092DC03329620E072
:1029600030E0DF0112974C91C9018D5A9C4FDC0178
:10297000AF5BBF4F4C93DF0111974C91DC01AE5B15
:10298000BF4F4C93408111964C932D5F3F4F339630
:102990002834310531F7198244C081E08093DC038B
:1029A000329620E030E0C9018D5A9C4FDC01AF5BCC
:1029B000BF4F4C91DF0112974C93DC01AE5BBF4FD0
:1029C0004C91DF0111974C93DC01AD5BBF4F8C91B3
:1029D00080832D5F3F4F33962834310521F76DCC2E
:1029E0005801C8010E94D10AF70132978083C801BB
:1029F00001960E94D10AF701319780830D5F1F4F26
:102A0000C50102960E94D10AD7018C93B3E0EB0E68
:102A1000F11C0C3A110521F7D0929303C092920356
:102A20004CCC1A8214C08DEC89838CE58A838B830D
:102A3000CE0101960E94B20B40CC8CED898384E1DB
:102A40008A838CE3F4CF8FEF898385EA8A831B82A4
:102A5000EFCF8FEF0CC08FEF89831A8219C08CE7FC
:102A600089838CEFF3CF19828BE8E0CF80E88983EC
:102A7000EDCF8EE289838BE88A8387E5D8CF1B82EE
:102A8000CE0101960E94150C18CC198280E88A8329
:102A90001B82CE0101960E94D00B0FCC19821A82A4
:102AA0008FEFC5CF19828FEFC1CF84E989831A8256
:102AB00083EDBDCF19821A828FEF8B83E1CF19820C
:102AC0001A828FEF8B83E5CF8FEF8983AFCF8FEFA4
:102AD000898384EE8A8384ECAACF80EF898386EE93
:102AE0008A838CE8A4CF87E7898388E88A8389E989
:102AF0009ECF81E00E94A008E0CB809156038A30EF
:102B000008F0DBCB8F5F06C080915603823008F45B
:102B1000D4CB81500E94980BD0CB80915503895122
:102B20000E947E0BCACB80E001C081E00E94110BA5
:102B3000C4CB81E001C082E00E944B09BECB80E0A3
:102B40000E944B0980915703873010F01092570371
:102B5000809157038F5F809357032091DD0330915D
:102B6000DE03E0E38E9F200D311D112400917402DD
:102B70004091560360915503809192039091930385
:102B80000E94C108809157036091DD037091DE03BC
:102B9000F0E38F9F600D711D1124CE0101960E94FC
:102BA0003508CE0101960E94BC0887CB6701F80169
:102BB00032976081C7010E94DF0AF8013197608176
:102BC000C70101960E94DF0A23E0E20EF11CD80142
:102BD0006C91C60102960E94DF0A0D5F1F4FBCEA8E
:102BE000EB16F10419F769CB833009F455C0843032
:102BF00009F086CB08EB11E06801A4C04091C80140
:102C00005091C9014F3F510548F4242F249F020ED3
:102C100020E0211D11242093740214C02EEF241BE8
:102C20002095229F020E20E0211D11242095209343
:102C300074024E3FE1E05E0728F01092C901109245
:102C4000C8015ECB4F5F5F4F5093C9014093C801ED
:102C500057CBC090C601D090C701E0915C03F091C2
:102C60005D030091740222E633E040816C2DC701C0
:102C70000E94C108FFEFCF16D10431F028F0109266
:102C8000C7011092C6013CCB1FEFC11AD10AD092E6
:102C9000C701C092C60134CB8091C501F70123E082
:102CA000829FE00DF11D11241082118212828FB7D4
:102CB000F8942091D1013091D2014091D3015091EB
:102CC000D4018FBF60E078E58BE190E00E94171E91
:102CD000292F96FD2095E22FEF732F7096FD2F5F21
:102CE000E695E695E695E670F0E0E85FFE4F8181B7
:102CF000829F202D812D112422952F708295807F17
:102D0000282B8081280F97FD2195205838E1239F9B
:102D1000020E20E0211D11242093C5011091C40151
:102D200019838FEF8A838B83B70183E0289F600D1F
:102D3000711D1124CE0101960E944A071F5F109356
:102D4000C401DECA0E9410089BE2899F90011124F1
:102D5000D6012C91231B08F420E0F60121936F018A
:102D6000FDA9FC11EFCFE2ECF1E024EC31E043E00F
:102D7000C42ED12C8081429190E0840F911D840F4C
:102D8000911DB6010E94271ED9016E939D01B1E0ED
:102D9000E83BFB0779F70E9410088233D0F40E94C9
:102DA0001008E7E08E9FC0011124C92EDD24C7FC66
:102DB000DA940E941008FFE58F9FC001112430EAC9
:102DC000390FF601E854FE4F2081230F08F42FEF4E
:102DD0002083D701129627E4E20EF11C5FEB60E03E
:102DE000F80131918F01262F332329F0359F212DB2
:102DF000112451112F5F822F880F880F27FD06C0E5
:102E000026FD06C0482F80E090E005C09FEF02C07D
:102E1000982F80E04FEF9D0122503109F901408346
:102E20002F5F3F4FF90190838C9397012250310916
:102E3000F90140832F5F3F4FF9019083F7018083B1
:102E40001396F3E0EF1AF1082DA92013C9CF58CA41
:102E500083E090E09ECB828193810A97099708F4E2
:102E600067C166CB80918502843408F0E5C180910A
:102E70008502863460F1828193810C970B9708F468
:102E80002BC225C0D90112966D917C9113976E517A
:102E900071096731710508F057C2D701C601880F63
:102EA000991FAA1FBB1F6C017D016894C0F84E5F7B
:102EB0005F4F2C5F3F4F4534510509F428C2D901BB
:102EC0006D917C916C5071096B307105D8F28091D5
:102ED0008502883580F182819381855891098B35EF
:102EE000910508F441C227C0BC016F5F7F4FD80134
:102EF0004D915C911197475051094730510508F0A9
:102F000042C2220F331F216002960C5F1F4F409177
:102F1000850250E044505109841795070CF03BC2DC
:102F2000A80142505109DA014D915C914950510973
:102F300048305105C8F2809185028032E1F48281E7
:102F4000938106970697B8F484819581099709972C
:102F500090F49F012A5F3F4FBF01625C7F4FC12CFD
:102F6000D12C7601D9014D915C91465051094630E2
:102F7000510508F42CC280911704909118049CAB61
:102F80008BAB06970CF499C91F0196E0290E311CF2
:102F900003E010E0B5ECCB2EBDE9DB2EBCE1EB2E5F
:102FA000B1E8FB2ED1016D917C91F1013497A080A5
:102FB000B18080E090E00E94F81C2B013C01B5013B
:102FC00080E090E00E94F81C4B015C012DEC3CEC91
:102FD0004CE45FE30E94AA1D9B01AC01C301B20156
:102FE0000E944B1C87FD17C02DEC3CEC4CE45FE3CA
:102FF000C301B2010E94AA1D9B01AC01C501B4012D
:103000000E944B1CE82F880FFF0BEE27FF0FEE1FCF
:10301000FF27319602C0E0E0F0E0A701960163E9E6
:1030200071E080E091E00E94171E6F01FF0FEE0833
:10303000FF08C626D726E826F9260F5F1F4FB2E005
:103040002B0E311CEBA9FCA90E171F0709F0AACF04
:10305000C0920F04D0921004E0921104F092120476
:1030600080E290E090931404809313048FEF9FEF1D
:1030700090CA84819581CA97899708F054CA9F01A4
:103080002A5F3F4FC12CD12C760143E050E0D9019B
:103090006D917C916A5071096930710508F043CADD
:1030A000D90112966D917C91139766517109613126
:1030B000710570F5D701C601880F991FAA1FBB1FA4
:1030C0006C017D016894C0F84E5F5F4F2C5F3F4FED
:1030D0004B335105E1F69F012A583F4FD9012D91FD
:1030E0003C912A5031092930310508F01CCA2CE1E5
:1030F00030E03093140420931304C0920F04D09254
:103100001004E0921104F09212048AE090E041CAA7
:10311000D90112966D917C911397665071096730B1
:10312000710508F000CACC0CDD1CEE1CFF1CCCCFD6
:1031300020918502CF01820F911D820F911DDC012C
:1031400012978D919C910A97099708F0F1C91092F6
:103150001404109213048FEF9FEFDC0180930F048F
:1031600090931004A0931104B093120462C0809154
:103170008502813208F4E4C984819581CA978997D0
:1031800008F0DEC99F012A5F3F4FC12CD12C760188
:1031900043E050E0D9016D917C916A50710969302A
:1031A000710508F0CDC9D90112966D917C911397E4
:1031B000665171096131710560F5D701C601880F4B
:1031C000991FAA1FBB1F6C017D016894C0F84E5F58
:1031D0005F4F2C5F3F4F43325105E1F69F012A5B61
:1031E0003F4FD9012D913C912A50310929303105A9
:1031F00008F0A6C920E130E03093140420931304B2
:10320000C0920F04D0921004E0921104F0921204C4
:1032100010C0D90112966D917C9113976650710977
:103220006730710508F08CC9CC0CDD1CEE1CFF1C4E
:10323000CECF86E090E0ADC9848195818954910913
:10324000C39708F014CE9F012A5F3F4FBF016A5712
:103250007F4FC12CD12C7601D9014D915C91495001
:1032600051094930510508F002CED90112964D910D
:103270005C911397465151094131510510F1129655
:103280004D915C911397465051094730510508F014
:10329000EECDCC0CDD1CEE1CFF1C2C5F3F4F261727
:1032A0003707D1F620E230E0309314042093130462
:1032B000C0920F04D0921004E0921104F092120414
:1032C00066C9D701C601880F991FAA1FBB1F6C01D1
:1032D0007D016894C0F8E1CF8481958109970997B1
:1032E00008F0F5CD868197818C974F9708F0EFCD48
:1032F0008085918589974D9708F0E9CD9F01265FDC
:103300003F4FC12CD12C760145E050E0D8CD9F0134
:1033100026573F4FD9012D913C912C5031092B302C
:10332000310508F0D4CD20E230E03093140420932E
:103330001304C0920F04D0921004E0921104F09292
:10334000120488E090E025C9D90112966D917C9114
:103350001397695071096930710508F0B8CDCC0C2C
:10336000DD1CEE1CFF1CA3CD848195818254910944
:103370008E9708F0E0CD8F01045C1F4F8DE190E047
:1033800020E030E0C4CD4D915C914851510942316B
:103390005105D0F0CB010197959587959093140432
:1033A000809313048A970CF4C6CDC901330FAA0B7E
:1033B000BB0B80930F0490931004A0931104B0935F
:1033C000120489E090E0E5C8220F331F9DCDD9019A
:1033D00012964D915C911397495151094331510512
:1033E00008F5D701C601880F991FAA1FBB1F6C01E2
:1033F0007D016894C0F82C5F3F4F2617370709F00E
:10340000B1CD2EE030E03093140420931304C09229
:103410000F04D0921004E0921104F09212048FE095
:1034200090E0B7C8D90112964D915C91139749501D
:1034300051094930510508F09ECDCC0CDD1CEE1C25
:10344000FF1CD9CF08950F931F93CF93DF93109252
:10345000D8011092D70188EE93E0A0E0B0E080930D
:10346000D9019093DA01A093DB01B093DC0184E1F0
:1034700091E09093D6018093D50185EC90E09093F4
:10348000E2018093E10184EC90E09093E401809369
:10349000E30180EC90E09093E6018093E50181ECFC
:1034A00090E09093E8018093E70182EC90E09093A4
:1034B000EA018093E90186EC90E09093EC0180931F
:1034C000EB011092EE011092EF011092F0011092B8
:1034D000F10184E690E090937302809372028FEF83
:1034E00080937402109276021092750210928002FC
:1034F00010927F024FEF5FEFBA0140937B0250932F
:103500007C0260937D0270937E0292E0909382022F
:103510001092840228E531E0309354032093530342
:103520001092550395E0909356038093570386E2DB
:1035300091E090935903809358038EE291E0909329
:103540005B0380935A0386E593E090935D03809339
:103550005C0310925E0388E490E00E94EE1E90935C
:10356000600380935F038AE0809361036CE770E0FF
:1035700082E693E00E94F30788E490E00E94EE1E4A
:10358000909393038093920380E591E00E94EE1E56
:103590009093DE038093DD036CE372E0805E9E4FC8
:1035A0000E94F3078091DD039091DE036CEF71E0E0
:1035B000C0960E94F3078091DD039091DE036CEBCF
:1035C00071E0805A9F4F0E94F3078091DD03909134
:1035D000DE036CE771E080579F4F0E94F3078091F4
:1035E000DD039091DE036CE371E080549F4F0E94F5
:1035F000F3078091DD039091DE036CEF70E0805162
:103600009F4F0E94F3076CEB70E08091DD03909177
:10361000DE030E94F307C0919203D0919303FE0151
:1036200032969E01265B3F4F9FEFDF0112978FEF8F
:103630009C9311969C9390833396E217F307A9F716
:1036400090910104911144C01092F3031092F2037F
:103650008093F6038093F7038093F8038093F90334
:103660008093FA038093FB0381E08093FC03109224
:10367000FE031092FD031092F5031092F403809163
:10368000090490910A04892B31F480EF93E0909320
:103690000A0480930904E091EE03F091EF03309760
:1036A00021F080EF93E09583848380EF93E0909303
:1036B000EF038093EE03109200041092FF0386E460
:1036C00091E09093F1038093F00381E080930104F3
:1036D000E091F003F091F1030480F581E02D80EF9B
:1036E00093E00995D093F303C093F20388E190E04F
:1036F0009093FE038093FD03E091F003F091F103BA
:103700000284F385E02D80EF93E00995009729F17D
:103710009C0140E050E060E472E48FE090E00E94A1
:103720005D1E722F632F0091770210917802209115
:10373000790230917A02872F962FDA01801791074C
:10374000A207B30710F4D901C801809377029093C0
:103750007802A0937902B0937A0286E9809374028A
:10376000E0910904F0910A048FEF90EB20EF30977D
:1037700039F08683978320870480F581E02DF7CF89
:1037800081E08093DC03DF91CF911F910F91089529
:10379000F999FECF92BD81BDF89A992780B5089519
:1037A000262FF999FECF1FBA92BD81BD20BD0FB65D
:1037B000F894FA9AF99A0FBE019608955058BB27CB
:1037C000AA270E94F61B0C94701D0E94621D38F0FF
:1037D0000E94691D20F039F49F3F19F426F40C94DF
:1037E0005F1D0EF4E095E7FB0C94591DE92F0E9434
:1037F000811D58F3BA17620773078407950720F0F5
:1038000079F4A6F50C94A31D0EF4E0950B2EBA2FB7
:10381000A02D0B01B90190010C01CA01A0011124D6
:10382000FF27591B99F0593F50F4503E68F11A1682
:10383000F040A22F232F342F4427585FF3CF469513
:1038400037952795A795F0405395C9F77EF41F1635
:10385000BA0B620B730B840BBAF09150A1F0FF0FFF
:10386000BB1F661F771F881FC2F70EC0BA0F621FEB
:10387000731F841F48F4879577956795B795F795DB
:103880009E3F08F0B0CF9395880F08F09927EE0F70
:103890009795879508950E94351D08F481E0089555
:1038A0000E94641C0C94701D0E94691D58F00E94B7
:1038B000621D40F029F45F3F29F00C94591D51110D
:1038C0000C94A41D0C945F1D0E94811D68F3992324
:1038D000B1F3552391F3951B550BBB27AA2762170C
:1038E0007307840738F09F5F5F4F220F331F441F19
:1038F000AA1FA9F335D00E2E3AF0E0E832D091504D
:103900005040E695001CCAF72BD0FE2F29D0660F39
:10391000771F881FBB1F261737074807AB07B0E87C
:1039200009F0BB0B802DBF01FF2793585F4F3AF082
:103930009E3F510578F00C94591D0C94A41D5F3FD7
:10394000E4F3983ED4F3869577956795B795F79508
:103950009F5FC9F7880F911D9695879597F90895F0
:10396000E1E0660F771F881FBB1F6217730784078C
:10397000BA0720F0621B730B840BBA0BEE1F88F79B
:10398000E09508950E94C91C6894B1110C94A41D7F
:1039900008950E94891D88F09F5798F0B92F9927A4
:1039A000B751B0F0E1F0660F771F881F991F1AF02A
:1039B000BA95C9F714C0B13091F00E94A31DB1E0CF
:1039C00008950C94A31D672F782F8827B85F39F0CE
:1039D000B93FCCF3869577956795B395D9F73EF4C3
:1039E00090958095709561957F4F8F4F9F4F08956B
:1039F000E89409C097FB3EF4909580957095619589
:103A00007F4F8F4F9F4F9923A9F0F92F96E9BB273E
:103A10009395F695879577956795B795F111F8CFBA
:103A2000FAF4BB0F11F460FF1BC06F5F7F4F8F4F25
:103A30009F4F16C0882311F096E911C0772321F01B
:103A40009EE8872F762F05C0662371F096E8862FB3
:103A500070E060E02AF09A95660F771F881FDAF70A
:103A6000880F9695879597F90895990F0008550F37
:103A7000AA0BE0E8FEEF16161706E807F907C0F0F4
:103A800012161306E407F50798F0621B730B840BFC
:103A9000950B39F40A2661F0232B242B252B21F4D6
:103AA00008950A2609F4A140A6958FEF811D811D76
:103AB000089597F99F6780E870E060E008959FEFB0
:103AC00080EC089500240A941616170618060906B5
:103AD000089500240A941216130614060506089584
:103AE000092E0394000C11F4882352F0BB0F40F40C
:103AF000BF2B11F460FF04C06F5F7F4F8F4F9F4F4C
:103B0000089557FD9058440F551F59F05F3F71F0CD
:103B10004795880F97FB991F61F09F3F79F0879534
:103B20000895121613061406551FF2CF4695F1DFBD
:103B300008C0161617061806991FF1CF869571054D
:103B4000610508940895E894BB2766277727CB0181
:103B500097F908950E94BD1D0C94701D0E94621D6E
:103B600038F00E94691D20F0952311F00C94591D26
:103B70000C945F1D11240C94A41D0E94811D70F3F0
:103B8000959FC1F3950F50E0551F629FF001729F02
:103B9000BB27F00DB11D639FAA27F00DB11DAA1F11
:103BA000649F6627B00DA11D661F829F2227B00D5E
:103BB000A11D621F739FB00DA11D621F839FA00DE9
:103BC000611D221F749F3327A00D611D231F849F39
:103BD000600D211D822F762F6A2F11249F57504090
:103BE0009AF0F1F088234AF0EE0FFF1FBB1F661F0B
:103BF000771F881F91505040A9F79E3F510580F0D4
:103C00000C94591D0C94A41D5F3FE4F3983ED4F32B
:103C1000869577956795B795F795E7959F5FC1F777
:103C2000FE2B880F911D9695879597F90895DB01D6
:103C30008F939F930E94831EBF91AF91A29F800D8F
:103C4000911DA39F900DB29F900D1124089597FB95
:103C5000072E16F4009407D077FD09D00E94C51EE8
:103C600007FC05D03EF4909581959F4F089570957F
:103C700061957F4F0895A1E21A2EAA1BBB1BFD017F
:103C80000DC0AA1FBB1FEE1FFF1FA217B307E4073B
:103C9000F50720F0A21BB30BE40BF50B661F771F93
:103CA000881F991F1A9469F7609570958095909573
:103CB0009B01AC01BD01CF010895052E97FB1EF4B9
:103CC00000940E94741E57FD07D00E943B1E07FC03
:103CD00003D04EF40C94741E509540953095219568
:103CE0003F4F4F4F5F4F0895909580957095619528
:103CF0007F4F8F4F9F4F08950E94DF1EB7FF08959B
:103D0000821B930B08950E94DF1EA59F900DB49F08
:103D1000900DA49F800D911D112408950F930830DC
:103D200090F0982F872F762F652F542F432F322F07
:103D300022270850F4CF220F331F441F551F661F40
:103D4000771F881F991F0A95B2F70F91089597FB67
:103D500010F8169400080F93083098F00850232F9D
:103D6000342F452F562F672F782F892F902DF4CF82
:103D700005949795879577956795579547953795C6
:103D800027950A95AAF70F910895AA1BBB1B51E12D
:103D900007C0AA1FBB1FA617B70710F0A61BB70BBB
:103DA000881F991F5A95A9F780959095BC01CD0160
:103DB0000895EE0FFF1F0590F491E02D0994A29F46
:103DC000B001B39FC001A39F700D811D1124911DEF
:103DD000B29F700D811D1124911D0895CF93DF9323
:103DE0008230910510F482E090E0E0912204F0919D
:103DF000230420E030E0C0E0D0E0309711F14081B2
:103E0000518148175907C0F04817590761F482815A
:103E10009381209719F09B838A832BC0909323046E
:103E20008093220426C02115310519F0421753074B
:103E300018F49A01BE01DF01EF010280F381E02D49
:103E4000DCCF2115310509F1281B390B2430310550
:103E500090F412968D919C9113976115710521F044
:103E6000FB019383828304C09093230480932204F4
:103E7000FD01329644C0FD01E20FF31F819391933F
:103E8000225031092D933C933AC020912004309167
:103E90002104232B41F4209104013091050130933A
:103EA0002104209320042091020130910301211567
:103EB000310541F42DB73EB74091060150910701FD
:103EC000241B350BE0912004F0912104E217F30745
:103ED000A0F42E1B3F0B2817390778F0AC014E5F7A
:103EE0005F4F2417350748F04E0F5F1F5093210492
:103EF000409320048193919302C0E0E0F0E0CF0171
:103F0000DF91CF9108950F931F93CF93DF93009785
:103F100009F48CC0FC0132971382128200912204B2
:103F2000109123040115110581F420813181820F44
:103F3000931F20912004309121042817390779F527
:103F4000F0932104E093200471C0D80140E050E0D8
:103F5000AE17BF0750F412962D913C911397AD0107
:103F60002115310509F1D901F3CF9D01DA01338320
:103F7000228360817181860F971F8217930769F4EE
:103F8000EC0128813981260F371F2E5F3F4F318387
:103F900020838A819B8193838283452B29F4F0932C
:103FA0002304E093220442C01396FC93EE931297ED
:103FB000ED01499159919E01240F351FE217F30736
:103FC00071F480819181840F951F029611969C93C4
:103FD0008E938281938113969C938E931297E0E047
:103FE000F0E0D80112968D919C911397009719F0EB
:103FF000F8018C01F6CF8D919C9198012E5F3F4F77
:10400000820F931F20912004309121042817390733
:1040100069F4309729F4109223041092220402C00C
:10402000138212821093210400932004DF91CF9118
:104030001F910F91089581E090E0F8940C94202056
:1040400011E0C2E6D1E004C0FE010E94D91E219613
:0A405000C336D107C9F7F894FFCF7B
:10405A003905000024048000003131295A1B750AF1
:10406A0000000000F901530B91014002C201A001B6
:10407A00B40100000000F007740300000000F2071A
:10408A007203000000007003700370034C034803BE
:10409A004503000000000203BE02BC024C034803B1
:1040AA00B902780300000000F10776030D0A006CDC
:1040BA006F616400736176653A20004578636565CF
:1040CA00646564206D6178696D756D206E756D62C9
:1040DA006572206F66207772697465730041747423
:1040EA00656D707420746F207772697465206F75BE
:1040FA007473696465206F6620454550524F4D20A0
:08410A006D656D6F7279000014
:00000001FF
