:100000000C9463010C948B010C948B010C948B0168
:100010000C948B010C948B010C948B010C94230693
:100020000C948B010C948B010C948B010C948B0120
:100030000C948B010C948B010C948B010C948B0110
:100040000C94DF0C0C948B010C94F1050C94CB05F3
:100050000C948B010C948B010C948B010C948B01F0
:100060000C948B010C948B010000000024002700ED
:100070002A00000000002300260029000000FF00E5
:10008000002AD5000055AB00007FAB0000ABAB00F1
:1000900000D5560000FF00002AD5000055AB000037
:1000A000AA560000FF000000D5002A00AB00550052
:1000B00081007F005500AB002B00D5000000FF0041
:1000C000000000000055AB000000000000ABAB00DA
:1000D0000000000000FF00000000000055AB000021
:1000E00000000000FF00000000000000AB00550011
:1000F000000000005500AB00000000000000000000
:100100000000330000006600000099000000CC00F1
:100110000000FF000033FF000066FF000099FF00B1
:1001200000CCFF0000FFFF0033FFFF0066FFFF0071
:1001300099FFFF00CCFFFF00FFFFFF00AB00550061
:100140007C0084004B00B5001B00E5000017E800B0
:100150000047B8000077AB0000ABAB000055AB0028
:100160000022DD000E00F2003E00C20071008F0090
:10017000A1005F00D0002F00F9070000006400001C
:10018000006400002F6B5500006400000080000038
:10019000228B2200238E6B0000800000578B2E00E4
:1001A000AACD660032CD320032CD9A0090EE90009A
:1001B00000FC7C00AACD6600228B2200000000001B
:1001C00000008000000000000000800000008B00A4
:1001D0000000800000008B0000008B0000008B00FE
:1001E0000000FF0000A5FF00FFFFFF0000A5FF00CB
:1001F0000000FF0000008B0000000000FF00000076
:100200008B0000008B0000008B0000008B000000C2
:100210008B0000008B0000008B000000FF0000003E
:100220008B000000EBCE8700EBCE8700E6D8AD0058
:10023000FFFFFF00E6D8AD00EBCE87007019190074
:100240008B00000070191900800000008B00000076
:10025000CD000000578B2E0080800000A09E5F0024
:10026000FF0000008B8B0000ED956400D4FF7F0041
:10027000578B2E00FFFF0000FACE87000000000021
:10028000250028002B0004040404040404040202D2
:100290000202020203030303030301020408102005
:1002A0004080010204081020010204081020000010
:1002B0000008000201000003040700000000000025
:1002C0000000A518A41811241FBECFEFD8E0DEBF90
:1002D000CDBF11E0A0E0B1E0EEE5FDE302C0059086
:1002E0000D92AE3AB107D9F724E0AEEAB1E001C011
:1002F0001D92AC30B207E1F711E0C2E6D1E004C0D4
:100300002197FE010E945B1DC136D107C9F70E94EB
:10031000290D0C94A21E0C940000089580E090E03A
:100320000895FC01538D448D252F30E0842F90E0FB
:10033000821B930B541710F0CF96089501970895E0
:10034000FC01918D828D981761F0828DDF01A80FDD
:10035000B11D5D968C91928D9F5F9F73928F90E0FF
:1003600008958FEF9FEF0895FC01918D828D98176E
:1003700031F0828DE80FF11D858D90E008958FEFAB
:100380009FEF0895FC01918D228D892F90E0805C74
:100390009F4F821B91098F73992708958DEB91E0F0
:1003A0000E94C20121E0892B09F420E0822F0895E8
:1003B000FC01848DDF01A80FB11DA35ABF4F2C9102
:1003C000848D90E001968F739927848FA689B789D1
:1003D0002C93A089B1898C9180648C93938D848DAA
:1003E000981306C00288F389E02D80818F7D808379
:1003F0000895EF92FF920F931F93CF93DF93EC0139
:1004000081E0888F9B8D8C8D981305C0E889F989D0
:10041000808185FD24C0F62E0B8D10E00F5F1F4FED
:100420000F731127E02E8C8DE8120CC00FB607FC5D
:10043000FACFE889F989808185FFF5CFCE010E9446
:10044000D801F1CF8B8DFE01E80FF11DE35AFF4F6C
:10045000F0820B8FEA89FB898081806207C0EE8978
:10046000FF896083E889F98980818064808381E0E5
:1004700090E0DF91CF911F910F91FF90EF90089541
:10048000CF93DF93EC01888D8823C9F0EA89FB893B
:10049000808185FD05C0A889B9898C9186FD0FC032
:1004A0000FB607FCF5CF808185FFF2CFA889B98907
:1004B0008C9185FFEDCFCE010E94D801E7CFDF916F
:1004C000CF91089580E090E0892B29F00E94CE0121
:1004D00081110C9400000895EF92FF920F931F93E7
:1004E000CF93DF93EC019091B8019F5F292F277084
:1004F0002093B80190FF02C090E801C090E021FD78
:100500009064247009F0906220E1290FFE013C966E
:100510007E018FE0E80EF11C00E011E0619166239E
:1005200031F070E0C8010E94A91C6F5F01C060E05B
:10053000DF0114976C93322F369F030E30E0311D8C
:100540001124CF010797311103C0EC01188203C0B9
:100550003150EC013883662311F061506C93EE1535
:10056000FF05E1F6DF91CF911F910F91FF90EF9082
:10057000089580E991E00895559A08950F931F9387
:10058000CF93DF93CDB7DEB762970FB6F894DEBF97
:100590000FBECDBF8C01F901DC011C968C917A83D2
:1005A00069835C834B835E834D8390819D879181BA
:1005B0009E8792819F87813029F4CE0101960E9407
:1005C0006C0206C01C861B861A86198618861F8236
:1005D00083E0888B1A8A198AD801ED91FC910484F2
:1005E000F585E02DBE016F5F7F4FC80109956296CA
:1005F0000FB6F894DEBF0FBECDBFDF91CF911F9134
:100600000F9108950F931F93CF93DF93CDB7DEB76C
:1006100062970FB6F894DEBF0FBECDBF8C01F90113
:10062000DC011C968C917A8369835C834B835E83A7
:100630004D8390819D8791819E8792819F87813094
:1006400029F4CE0101960E946C0206C01C861B860E
:100650001A86198618861F82188A1A8A198AD8015A
:10066000ED91FC910484F585E02DBE016F5F7F4F15
:10067000C801099562960FB6F894DEBF0FBECDBFD4
:10068000DF91CF911F910F91089580E090E0089540
:10069000FC01858596850895CF93DF9300D000D027
:1006A00000D0CDB7DEB7AB011C821D821E82DC01FB
:1006B000ED91FC910190F081E02D19821A821B824C
:1006C0009E012F5F3F4FBE016C5F7F4F09952696BD
:1006D0000FB6F894DEBF0FBECDBFDF91CF91089566
:1006E0000E949D1E0C94051E0C94051E0C94051E64
:1006F0004F925F926F927F928F92AF92BF92CF9202
:10070000EF92FF920F931F93CF93DF933C01EB0186
:100710000E94BA0CF30127853089621B730B6A3083
:100720007105B0F3F894E881F9815BB150628BB147
:100730008F7D8BB96A859F81262F291B922F2F834E
:10074000BF844A805B807D85FC84EE847F5FF39468
:10075000E3943E814885A984CB841181D20120E0B5
:10076000C32F022F322F3181112788943111390F75
:1007700008F43FEF9195889470FD130F17958894B6
:1007800071FD130F1795889472FD130F17958894B8
:1007900073FD130F1795889474FD130F17958894A4
:1007A00075FD130F1795889476FD130F1795889490
:1007B00077FD130F17958894232F7111212F960F12
:1007C000122F002C5BB900C017FF8BB93081222794
:1007D000889400C000C0002C8BB931113C0F00C0C0
:1007E000002C5BB900C016FF8BB908F43FEFC19530
:1007F000889400C000C0002C8BB9F0FC230F00C00F
:10080000002C5BB900C015FF8BB927958894F1FCCB
:10081000230F00C000C0002C8BB92795889400C01E
:10082000002C5BB900C014FF8BB9F2FC230F279595
:10083000889400C000C0002C8BB9F3FC230F00C0CB
:10084000002C5BB900C013FF8BB927958894F4FC8A
:10085000230F00C000C0002C8BB92795889400C0DE
:10086000002C5BB900C012FF8BB9F5FC230F279554
:10087000889400C000C0002C8BB9F6FC230F00C088
:10088000002C5BB900C011FF8BB927958894F7FC49
:10089000230F00C000C0002C8BB92795889400C09E
:1008A000002C5BB900C010FF8BB9132FF110122F71
:1008B000CA0D00C000C0002C8BB900C000C0002CC5
:1008C0005BB900C017FF8BB932812227889400C022
:1008D00000C0002C8BB93111340F00C0002C5BB963
:1008E00000C016FF8BB908F43FEFEB0DF11D00C0FF
:1008F00000C0002C8BB9E0FC230F00C0002C5BB9BA
:1009000000C015FF8BB927958894E1FC230F00C028
:1009100000C0002C8BB92795889400C0002C5BB9CF
:1009200000C014FF8BB9E2FC230F2795889400C008
:1009300000C0002C8BB9E3FC230F00C0002C5BB976
:1009400000C013FF8BB927958894E4FC230F00C0E7
:1009500000C0002C8BB92795889400C0002C5BB98F
:1009600000C012FF8BB9E5FC230F2795889400C0C7
:1009700000C0002C8BB9E6FC230F00C0002C5BB933
:1009800000C011FF8BB927958894E7FC230F00C0A6
:1009900000C0002C8BB92795889400C0002C5BB94F
:1009A00000C010FF8BB9132FE110122F419500C02A
:1009B00000C0002C8BB94C0D00C000C05BB900C05A
:1009C00017FF8BB931812227889400C000C0002C0A
:1009D0008BB93111390F00C0002C5BB900C016FF74
:1009E0008BB908F43FEF9195889400C000C0002CAB
:1009F0008BB970FD230F00C0002C5BB900C015FF40
:100A00008BB92795889471FD230F00C000C0002C7E
:100A10008BB92795889400C0002C5BB900C014FFE7
:100A20008BB972FD230F2795889400C000C0002C5D
:100A30008BB973FD230F00C0002C5BB900C013FFFE
:100A40008BB92795889474FD230F00C000C0002C3B
:100A50008BB92795889400C0002C5BB900C012FFA9
:100A60008BB975FD230F2795889400C000C0002C1A
:100A70008BB976FD230F00C0002C5BB900C011FFBD
:100A80008BB92795889477FD230F00C000C0002CF8
:100A90008BB92795889400C0002C5BB900C010FF6B
:100AA0008BB9132F7111122F960F00C000C0002CAC
:100AB0008BB9119709F086CE20EE31E0D2010E9469
:100AC000FE1CDC01CB01F4E0B695A79597958795C0
:100AD000FA95D1F720E030E0A9016AE9469E040CBE
:100AE000411D569E400D511D1124450D511D840F71
:100AF000951FA11DB11D893E43E09407A105B105D5
:100B000008F434C0885E9340A109B10942E0B6956B
:100B1000A795979587954A95D1F747E0849F080E4A
:100B2000211D949F200D311D1124290F311D60912D
:100B3000B70170E0860F971F820F931F4091B90194
:100B40005091BA016091BB017091BC01292F3327EC
:100B5000420F531F611D711D4093B9015093BA019B
:100B60006093BB017093BC018093B70178940E949D
:100B7000BA0CF301708B6787DF91CF911F910F91B2
:100B8000FF90EF90CF90BF90AF908F907F906F903D
:100B90005F904F9008951F920F920FB60F921124FD
:100BA0002F933F934F935F936F937F938F939F9375
:100BB000AF93BF93EF93FF938DEB91E00E94D80129
:100BC000FF91EF91BF91AF919F918F917F916F9125
:100BD0005F914F913F912F910F900FBE0F901F90FB
:100BE00018951F920F920FB60F9211242F938F9387
:100BF0009F93EF93FF93E091CD01F091CE0180811F
:100C0000E091D301F091D40182FD12C090818091D6
:100C1000D6018F5F8F732091D701821751F0E09139
:100C2000D601F0E0E354FE4F958F8093D60101C0CA
:100C30008081FF91EF919F918F912F910F900FBE27
:100C40000F901F9018951F920F920FB60F921124BC
:100C50002F933F934F935F936F937F938F939F93C4
:100C6000AF93BF93CF93DF93EF93FF9320916A02EB
:100C700030E0F901E255FD4F8491F901E656FD4F50
:100C8000D491F901EA57FD4FC491CC23A1F0811111
:100C90000E94610CEC2FF0E0EE0FFF1FEE58FF4FAB
:100CA000A591B491EC91ED2331E020E009F430E01E
:100CB000832F922F02C080E090E020916E0230914D
:100CC0006F022F5F3F4F30936F0220936E0220918F
:100CD0006D02253618F026E0209369022091690202
:100CE0002430D9F128F4223069F02330D9F060C0E3
:100CF000253009F453C0263009F05AC021E0209372
:100D00003A0353C0009709F053C020916E0230910E
:100D10006F022436310508F443C010923A03109252
:100D20006D021DC08130910509F042C0E0916D0255
:100D300021E02E0F20936D02F0E020916E023091A1
:100D40006F02EE0FFF1FE759FD4F30872783109288
:100D50006F0210926E0224E029C00097B9F4E0916E
:100D60006D0221E02E0F20936D02F0E020916E02C3
:100D700030916F02EE0FFF1FE759FD4F3087278339
:100D800010926F0210926E0223E010C020916E024A
:100D900030916F022536310558F007C0009741F4B5
:100DA00010926F0210926E0203C025E02093690238
:100DB00020916C022223B9F0892B51F480916B02AF
:100DC000882321F080916B0261E009C02D9A0BC04D
:100DD00080916B02882331F080916B0260E00E9469
:100DE0008A0C01C02D98FF91EF91DF91CF91BF91B7
:100DF000AF919F918F917F916F915F914F913F91B3
:100E00002F910F900FBE0F901F901895CF92DF92E9
:100E1000EF92FF92CF93DF93EC01072E000C880B2B
:100E2000990B0E947C1B6B017C0120E030E040E4C8
:100E30005FE30E942C1C20E030E048E452E40E9472
:100E4000D21A0E94441BC617D707D4F020E030E026
:100E500040EA5FE3C701B6010E942C1C20E030E0AD
:100E600048E452E40E94D21A20E030E040E85FE318
:100E70000E94611A0E94441B21E06C177D070CF44C
:100E800020E0822F90E0DF91CF91FF90EF90DF90F4
:100E9000CF900895089508950895CF93DF93EB01BF
:100EA000DC01129620E030E0FE01E20FF31F4591D5
:100EB000559165917491FD0132976083319650830D
:100EC0004C932C5F3F4F13962034310569F7DF9127
:100ED000CF91089520E330E0FB01DC0120FF05C045
:100EE00002C001900D9201900D922250D0F7304037
:100EF000C0F708958617970710F40C946A07C096F8
:100F0000605D7F4F20E330E0FB01DC0120FF05C086
:100F100002C002900E9202900E922250D0F7304002
:100F2000C0F70895BC018AE493E00C947A07AF926D
:100F3000BF92CF92DF92EF92FF920F931F93CF93C6
:100F4000DF93D42ED901FC0132965C012AE4A20E73
:100F5000B11CCC24C394C00E462F42954F70762FFF
:100F60007F707D01842F880F840FED01C80FD11D84
:100F7000588129813A81772309F42CC04F3021F020
:100F80007E01D3E0ED0EF11C7295707F472F4095E6
:100F9000E7019881549F050E50E0511D192F179FAE
:100FA000010E10E0111D510F9981249F020E20E0C7
:100FB000211D192F179F010E10E0111D210F1A81FD
:100FC000349F030E30E0311D179F010E10E0111DFC
:100FD000310F11240F3FE1F00023B9F0552329F020
:100FE0004C2D549F050E50E0511D222329F04C2D0D
:100FF000249F020E20E0211D332329F04C2D349F25
:10100000030E30E0311D112403C030E020E050E039
:10101000CF010297EC0158830196EC0128833083BD
:101020006D0D3396EA15FB0509F096CFDF91CF9150
:101030001F910F91FF90EF90DF90CF90BF90AF90F6
:1010400008953F924F925F926F927F928F929F92FC
:10105000AF92BF92CF92DF92EF92FF920F931F93C6
:10106000CF93DF9300D01F92CDB7DEB7F82E8091DB
:101070005F0290916002A0916102B0916202892B9F
:101080008A2B8B2BE9F00E94BA0C0091D2031091AD
:10109000D3032091D4033091D503DC01CB01801B15
:1010A000910BA20BB30B00915F0210916002209193
:1010B00061023091620280179107A207B307B8F26C
:1010C0000E94BA0C6093D2037093D3038093D4032D
:1010D0009093D503E0916702F0916802309759F040
:1010E00040916302509164026091650270916602C2
:1010F0008F2D0995F82E0091F1031091F2034F2CDA
:10110000512C612C712C0115110509F461C0D80115
:101110001C96EC901C9780915D0290915E02843643
:10112000910510F41C961C92D801ED91FC91A280BF
:10113000B38019821A821B82F11014C0F801458510
:101140005685628173819E012F5F3F4FC801F50173
:101150000995D8011C96EC921C9714960D911C9140
:101160001597D1CFF8013996CE0101966C0148014F
:101170009CE0890E911CDF0113973C902191332054
:1011800001F12223F1F0822F90E0A0E0B0E09C0179
:10119000AD012F5F3F4F4F4F5F4FC301B2010E9420
:1011A000991C9B01AC01832D90E0A0E0B0E0BC0154
:1011B000CD016F5F7F4F8F4F9F4F0E94991CD601CB
:1011C0008C93BFEFCB1ADB0AE815F905A1F6B6CF71
:1011D0008091D0039091D1039C012F5F3F4F3093BA
:1011E000D1032093D00349970CF447C08FB7F894EC
:1011F0000091B9011091BA012091BB013091BC015D
:101200008FBFE091D003F091D10388EE93E0E89F87
:10121000B001E99F700DF89F700D1124072E000C8E
:10122000880B990BC090CC03D090CD03E090CE03F7
:10123000F090CF03A90198012C193D094E095F09CF
:101240000E94BD1C30935E0220935D021092D10378
:101250001092D0032FB7F8948091B9019091BA0100
:10126000A091BB01B091BC012FBF8093CC039093A0
:10127000CD03A093CE03B093CF030F900F900F90A8
:10128000DF91CF911F910F91FF90EF90DF90CF9062
:10129000BF90AF909F908F907F906F905F904F9096
:1012A0003F900895009769F0FC0101900020E9F754
:1012B0003197AF01481B590BBC018DEB91E00C94A9
:1012C000E20A80E090E00895CF93DF930E945209F4
:1012D000EC0182E591E00E9452098C0F9D1FDF9185
:1012E000CF9108952091CA033091CB032F5F3F4FD8
:1012F0003093CB032093CA0340915A0250915B0272
:101300004115510519F0421753071CF481E691E08D
:1013100005C08130924034F083E891E00E94640976
:1013200080E0089581E008959C012F5F3F4F2130B8
:10133000324014F40C944A1A83E891E00E94640944
:1013400080E00895EF92FF921F93CF93DF93EC011B
:10135000162F7C018FEFE81AF80AC7010E94720964
:10136000811103C020E030E012C0CE010E94940938
:10137000811791F0C7010E947209882321F0612F23
:10138000CE010E94521A91E080E0292F382F81E08F
:10139000232B21F480E002C090E0F6CFDF91CF91C3
:1013A0001F91FF90EF900895CF93DF9380934603B2
:1013B000E0917A03F0917B03329680E090E0A09177
:1013C0004703B0914803A80FB91FEF012297288166
:1013D0002C932196288111962C9311972081129697
:1013E0002C93039633968834910549F7DF91CF917A
:1013F00008950F93EBE3F3E0828394812091C5037A
:101400003091C60340E3949F200D311D11240091BB
:101410005C024381682F80917A0390917B030E9444
:1014200097070F9108950F93EBE3F3E08383948183
:101430002091C5033091C60340E3949F200D311DD8
:10144000112400915C02482F628180917A0390916F
:101450007B030E9497070F910895EF92FF920F93DD
:101460001F93CF93DF932091C8033091C90381115B
:1014700003C0265F3F4F02C02A5031093093C90391
:101480002093C80380E00E94D409F090C803E09143
:101490007A03F0917B03329660E015E5B0E070EFDF
:1014A000ABEA0AEA8FE0E82E462F4F0D242F2F716A
:1014B000220F220F822F880F282F219F020E20E05B
:1014C000211D1124342F3074942F907247FD1DC0BC
:1014D000311109C0911103C0422F40950FC02B5A02
:1014E00030E04BEA33C091110DC0382F309F030E0E
:1014F00030E0311D11244A2F431B2655442369F146
:1015000030E024C0822F809554C031110FC091115A
:101510000AC0282F209F020E20E0211D11248A2FAF
:10152000821B2B5A46C0322F30950BC0911104C03C
:1015300085E5820F3A2F03C08AEA820F312F321BD2
:10154000282F222309F439C0422F20E0479F040EA0
:1015500040E0411D222349F004C0222309F42FC09A
:1015600030E0279F020E20E0211D332321F0379F1A
:10157000030E30E0311D11245E2D559F050E50E005
:10158000511D1124CF010297450FEC0148830196AC
:10159000250FEC012883350F3083665F3396603F5B
:1015A00009F082CFDF91CF911F910F91FF90EF90C3
:1015B0000895322F282F40E0CDCF40E0D6CF422FE4
:1015C00030E0D9CFCF92DF92EF92FF920F931F932B
:1015D000CF93DF936C017A018B01C0E0D0E0CE1590
:1015E000DF0589F0D8016D918D01D601ED91FC9157
:1015F0000190F081E02DC6010995892B11F47E013F
:1016000002C02196ECCFC701DF91CF911F910F91BE
:10161000FF90EF90DF90CF900895CF93DF93EC0190
:1016200080E00E94D40920917A0330917B03F90174
:101630003296265B3F4F8881DF0112978C93898118
:1016400011968C938A8180833396E217F30799F77A
:10165000DF91CF9108950F931F93CF93DF938C0168
:1016600080E00E94D409E0917A03F0917B039F010E
:101670002F5F3F4FDF011296AF01475B5F4FE801DD
:101680008A818F3F41F49C91692F70E0663071052B
:1016900014F095509C93E80188818F3F41F490812C
:1016A000692F70E06630710514F095509083E80161
:1016B0008981803849F4E9019881692F70E06630AA
:1016C000710514F0955098832D5F3F4F3396139614
:1016D00024173507A1F6DF91CF911F910F9108953F
:1016E000CF93DF93EC0180E00E94D409E0917A036C
:1016F000F0917B039F012E5F3F4FAF01485B5F4F2F
:10170000D9019C918A818F3F39F4692F70E06A3F3B
:10171000710514F49B5F9C9388818F3F41F4908105
:10172000692F70E06A3F710514F49B5F9083898193
:10173000803849F4D9019E91692F70E06A3F7105A4
:1017400014F49B5F9C932D5F3F4F3396E417F5078E
:10175000B9F6DF91CF9108958F929F92AF92BF9289
:101760000F931F93CF93DF93CDB7DEB7A1970FB63B
:10177000F894DEBF0FBECDBF19A2423008F44AE094
:101780008E010F5D1F4F842E912CA12CB12CA50131
:1017900094010E94BD1CE62FB901CA010150110934
:1017A000EA3014F4E05D01C0E95CD801EC93232B2E
:1017B000242B252B61F7C8010E945209A1960FB670
:1017C000F894DEBF0FBECDBFDF91CF911F910F9177
:1017D000BF90AF909F908F9008958F929F92AF92FD
:1017E000BF92CF92DF92EF92FF920F931F93CF930E
:1017F000DF93FC01C081D1812091FF03309100046F
:10180000C217D3070CF04BC09E01220F331FE0918B
:10181000FD03F091FE03E20FF31F80809180C17001
:10182000DD27F1E0CF27209719F404E610E002C08D
:101830000CE91FEF7A015B016C01040F151FB80161
:10184000C4010E940607892B99F40E0D1F1DB801D3
:10185000C4010E940607892B71F4B8016E0D7F1D2B
:10186000C4010E940607892BE9F023E030E005C09F
:1018700021E030E002C022E030E0F501808191817A
:101880000196821793073CF0F50111821082F60150
:1018900080819181019691838083CE0105C081E092
:1018A00090E002C08FEF9FEFDF91CF911F910F91DA
:1018B000FF90EF90DF90CF90BF90AF909F908F9070
:1018C0000895833081F028F4813099F08230A1F0BE
:1018D00008958730A9F08830B9F08430D1F4809130
:1018E00080008F7D03C0809180008F77809380007F
:1018F000089584B58F7702C084B58F7D84BD089527
:101900008091B0008F7703C08091B0008F7D80936D
:10191000B00008951F93CF93DF93282F30E0F90193
:10192000E255FD4F8491F901E656FD4FD491F9013E
:10193000EA57FD4FC491CC23C9F0162F81110E94A4
:10194000610CEC2FF0E0EE0FFF1FE458FD4FA59166
:10195000B4918FB7F894111105C09C91ED2FE095CB
:10196000E92302C0EC91ED2BEC938FBFDF91CF9177
:101970001F9108953FB7F894809104049091050455
:10198000A0910604B091070426B5A89B05C02F3F7F
:1019900019F00196A11DB11D3FBFBA2FA92F982F95
:1019A0008827820F911DA11DB11DBC01CD0142E010
:1019B000660F771F881F991F4A95D1F708951F92C8
:1019C0000F920FB60F9211242F933F938F939F93F3
:1019D000AF93BF938091B9019091BA01A091BB01DF
:1019E000B091BC013091030423E0230F2D3720F484
:1019F0000196A11DB11D05C026E8230F0296A11D69
:101A0000B11D209303048093B9019093BA01A09370
:101A1000BB01B093BC018091040490910504A09196
:101A20000604B09107040196A11DB11D8093040422
:101A300090930504A0930604B0930704BF91AF915F
:101A40009F918F913F912F910F900FBE0F901F90FC
:101A50001895CF93DF93CDB7DEB7E6970FB6F8941E
:101A6000DEBF0FBECDBF789484B5826084BD84B5DF
:101A7000816084BD85B5826085BD85B5816085BD89
:101A800080916E00816080936E0010928100809141
:101A900081008260809381008091810081608093C9
:101AA0008100809180008160809380008091B100EE
:101AB00084608093B1008091B00081608093B00019
:101AC00080917A00846080937A0080917A008260AD
:101AD00080937A0080917A00816080937A0080916F
:101AE0007A00806880937A001092C1001092B3014E
:101AF0001092B4011092B5011092B60180915C026F
:101B00000E942108E091CD01F091CE0182E0808316
:101B1000E091C901F091CA011082E091CB01F091EE
:101B2000CC019FEC90831092D501E091D101F0910E
:101B3000D20196E09083E091CF01F091D0019081A5
:101B400090619083E091CF01F091D00190819860F5
:101B50009083E091CF01F091D001908190689083C3
:101B6000E091CF01F091D00190819F7D9083F89416
:101B70008093B0008093B10094E69093B3001092EC
:101B8000B2008093700078948093690210926D0285
:101B900080916A0290E0FC01E656FD4F2491FC0121
:101BA000EA57FD4F84918823C9F090E0880F991F70
:101BB000FC01E859FF4F45915491FC01E458FD4F59
:101BC000A591B4919FB7F894FA0180812095822362
:101BD00080838C91E22FE823EC939FBF00E2202EBC
:101BE000312C20E732E03093FE032093FD038091F7
:101BF0006D0290E0909300048093FF0380913A037C
:101C000090E09093020480930104809169028530F2
:101C100009F0F1C280917202909173028858910983
:101C20008D35910588F480916D02843041F4809166
:101C30007402909175028097479708F41DC38091B4
:101C40006D02843408F0FFC280916D028A3108F47D
:101C500052C08091700290917102843F914080F453
:101C60001092FC031092FB038FEF9FEFDC01809337
:101C7000F7039093F803A093F903B093FA0359C0C4
:101C8000809172029091730285974B97A0F5E6E7D9
:101C9000F2E082E090E0C12CD12C7601AC014F5FE4
:101CA0005F4F20916D0230E0421753075CF4DF0173
:101CB00012972D913C91275031092730310508F4B6
:101CC00028C3CA010197959587959093FC0380934B
:101CD000FB030C972CF41092FC031092FB030BC037
:101CE000C092F703D092F803E092F903F092FA035E
:101CF00084E090E0EBC380916D028A3108F44CC01F
:101D000080917002909171028032934008F4A8CFC4
:101D10008091720290917302C697869708F416C359
:101D20003BC0C092F703D092F803E092F903F0921F
:101D3000FA038BE090E0CAC320813181255231093A
:101D40002B31310508F012C3CC0CDD1CEE1CFF1C3E
:101D50006894C0F802963496AC014F5F5F4F2091B3
:101D60006D0230E04217530754F4DF0112972D91B2
:101D70003C912C5031092B303105F0F2CA0101970A
:101D8000959587959093FC038093FB030C974CF6F5
:101D90001092FC031092FB0380916D02823208F4D2
:101DA0004DC080917202909173020697079708F0D8
:101DB00045C0E6E7F2E082E090E0C12CD12C76014C
:101DC0009C012F5F3F4F40916D0250E02417350773
:101DD000E4F4DF0112974D915C9111974E51510936
:101DE0004731510508F0CFC2CC0CDD1CEE1CFF1CA6
:101DF0006894C0F840815181349643505109453070
:101E0000510510F40296DCCFC9010197959587958D
:101E10009093FC038093FB0340972CF41092FC03F7
:101E20001092FB030BC0C092F703D092F803E0922C
:101E3000F903F092FA038CE090E048C31AAA19AAB9
:101E400081E090E09A83898380916D028D3008F45F
:101E50006BC049E753E0BE016F5C7F4FCE01019636
:101E60000E94ED0B892B09F05FC049E753E0BE01EA
:101E70006F5C7F4FCE0101960E94ED0B019709F038
:101E800053C049E753E0BE016F5C7F4FCE0101961E
:101E90000E94ED0B892B09F047C0812C912C540135
:101EA00000E010E080916D0290E029813A812817CE
:101EB00039075CF549E753E0BE016F5C7F4FCE0107
:101EC00001960E94ED0B7C0149E753E0BE016F5C77
:101ED0007F4FCE0101960E94ED0BB1E0EB16F104AD
:101EE00049F4892B09F5880C991CAA1CBB1C689421
:101EF00080F808C0EF28C1F40197B1F4880C991C50
:101F0000AA1CBB1C0F5F1F4FCDCF1093FC03009387
:101F1000FB038092F7039092F803A092F903B0922A
:101F2000FA0381E090E0D2C21AAA19AA81E090E0F7
:101F30009A8389838091FF039091000418161906F3
:101F40000CF058C0E091FD03F091FE0382E090E0B8
:101F50009A8389838281938189974E9708F04AC03A
:101F600023E030E03A832983848195810B970A9797
:101F700008F040C04CEB51E0BE016F5C7F4FCE01DA
:101F800001960E94ED0B892BA9F54CEB51E0BE01A7
:101F90006F5C7F4FCE0101960E94ED0B019751F5CA
:101FA000812C912C540100E010E029813A8180912C
:101FB000FF0390910004281739070CF027C24CEB5F
:101FC00051E0BE016F5C7F4FCE0101960E94ED0B88
:101FD0006C010330110509F0E3C14CEB51E0BE0187
:101FE0006F5C7F4FCE0101960E94ED0BC816D9069B
:101FF00009F4D6C1E091FD03F091FE038281938143
:10200000C697869708F020C2848195814B974597A3
:1020100008F01AC2DF0116967F0136ECE30EF11CC0
:1020200020E030E040E050E060E070E080E090E0F0
:10203000CD90DC90119719E0C11AD10818E0C116B3
:10204000D10408F001C21296CD90DC90139711E1F3
:10205000C11AD1081DE0C116D10408F0E6C101E0A3
:102060000E94101D21601496AE15BF0509F720933C
:10207000F7033093F8034093F9035093FA0300E217
:102080000E942B1D2093F5033093F60385E090E02A
:102090009093F4038093F30380E390E09093FC0328
:1020A0008093FB03C090F703D090F803E090F9030E
:1020B000F090FA03BFEFCB16DB06EB06FB0609F048
:1020C00040C0C090B301D090B401E090B501F09051
:1020D000B6013DEFC31632E0D3063FEFE306F1044D
:1020E00009F4F9C18FE9C81680E6D8068FEFE80633
:1020F000F10409F4F0C10E94BA0C2B013C0198ECE8
:10210000892E912CA12CB12C0E94BA0CDC01CB01A0
:1021100084199509A609B709883E9340A105B10520
:1021200058F091E0891A9108A108B108A8EE4A0E6A
:10213000A3E05A1E611C711C81149104A104B10416
:1021400019F7C092B301D092B401E092B501F092B8
:10215000B6016091F7037091F8038091F9039091B3
:10216000FA0340E10E94AC0B82E591E00E94520923
:1021700040E1C701B6010E94AC0B82E591E00E94EC
:102180005209F7E9CF16F8E6DF06FFEFEF06F10494
:1021900009F4FDC30CF046C227EDC21628E2D206B0
:1021A0002FEFE206F10409F4C1C30CF0D9C18DEEA2
:1021B000C81682E1D8068FEFE806F10409F4ECC3F3
:1021C0000CF0A4C1A7EFCA16A8E0DA06AFEFEA0642
:1021D000F10409F4AFC30CF085C1EDEFCE16E2E0D7
:1021E000DE06EFEFEE06F10409F4FFC282E0809311
:1021F000690210926D0280916902823021F0809113
:1022000069028530E9F4E0917A03F0917B039091C3
:10221000B2018091490398130AC01092B2019091C3
:102220004603913009F44DC4923009F475C480918D
:10223000B2018F5F8093B20180915C020E942108FD
:102240000E946202CECC80917402909175028254F9
:1022500091098E9708F0F8CC80E090E040E050E0E3
:10226000BA01FC01EA58FD4F208131812950310922
:1022700029303105F8F0E8CC809176029091770210
:102280000997099708F0DBCC1092FC031092FB032E
:102290008FEF9FEFDC018093F7039093F803A093F7
:1022A000F903B093FA03A3E0B0E0B093F403A09372
:1022B000F303F8CEFC01E858FD4F2081318127510E
:1022C000310922313105C0F4440F551F661F771FB5
:1022D000416004968038910521F63092FC032092EB
:1022E000FB034093F7035093F8036093F903709353
:1022F000FA0383E090E0EAC0208131812650310961
:102300002730310508F0A0CC440F551F661F771FFA
:10231000E0CF20813181235131092F30310548F43C
:10232000CC0CDD1CEE1CFF1C6894C0F802963496A1
:10233000B5CC208131812A5031092930310508F08E
:10234000DACCCC0CDD1CEE1CFF1CF0CF80917402AB
:1023500090917502C697869708F01ECDE8E7F2E0E7
:1023600083E090E0C12CD12C7601F6CC2081318124
:102370002C5031092A30310508F00ECDCC0CDD1C73
:10238000EE1CFF1CE7CC4D915C914C5051094B3039
:10239000510508F053CDCC0CDD1CEE1CFF1C2ACDE2
:1023A0004CEB51E0BE016F5C7F4FCE0101960E9465
:1023B000ED0B7C010330110569F44CEB51E0BE01DB
:1023C0006F5C7F4FCE0101960E94ED0BE816F90677
:1023D00009F010CEC114D10459F4EA94EF2809F0A1
:1023E00009CE880C991CAA1CBB1C689480F80BC0F1
:1023F000CA94CD2809F0FECDEF2809F0FBCD880C5A
:10240000991CAA1CBB1C0F5F1F4FCFCD1093FC0360
:102410000093FB038092F7039092F803A092F903D4
:10242000B092FA0382E090E051C01296CD90DC9019
:10243000139714E0C11AD10815E0C116D10420F495
:1024400001E00E94101D0FCE80916D02893340F093
:1024500082819381895791098335910508F48FC44E
:1024600080916D02823209F47AC382819381895707
:1024700091098335910508F400C5828193818C54BC
:102480009109C59708F077C380916D02843009F0F7
:102490006DC3848195818097479708F067C38681D3
:1024A00097810997099708F061C31092FC03109275
:1024B000FB038FEF9FEFDC018093F7039093F8030A
:1024C000A093F903B093FA0387E090E09093F403AC
:1024D0008093F303E7CDCC24CA94DC2C2FE0E22ECA
:1024E000F12C09CEF5EFCF16FAE0DF06FFEFEF068D
:1024F000F10409F40FC21FEEC11610E1D1061FEF5F
:10250000E106F10409F072CE81E061C225EEC21647
:102510002AE1D2062FEFE206F10409F4EEC15CF4E1
:1025200087EEC81688E1D8068FEFE806F10409F0B7
:102530005DCE8FEF04C29FEDC91690E2D9069FEFE2
:10254000E906F10409F455C2ADEDCA16A2E2DA06B5
:10255000AFEFEA06F10409F049CE8FEF8983D3C1CA
:10256000B5ECCB16BAE3DB06BFEFEB06F10409F4DA
:102570002CC16CF5FFECCF16F0E3DF06FFEFEF06A2
:10258000F10409F41BC26CF425EDC2162AE2D2064E
:102590002FEFE206F10409F029CE8DEC89838CE55A
:1025A000B2C13DECC31632E3D3063FEFE306F104BC
:1025B00009F4F8C187ECC81688E3D8068FEFE8065F
:1025C000F10409F013CE8FEF898385EAACC19FEA4D
:1025D000C91690E5D9069FEFE906F10409F403C294
:1025E00074F4B7EBCB16B8E4DB06BFEFEB06F104EF
:1025F00009F0FCCD19821A828FEF8B83B2C1E7EA12
:10260000CE16E8E5DE06EFEFEE06F10409F4BBC1F5
:10261000FFE9CF16F0E6DF06FFEFEF06F10409F45D
:10262000EEC1E4CD1FE5C11610EAD1061FEFE106A9
:10263000F10409F4E0C10CF060C035E7C3163AE8D4
:10264000D3063FEFE306F10409F45BC16CF597E8AC
:10265000C91698E7D9069FEFE906F10409F48EC17F
:102660006CF4BFE8CB16B0E7DB06BFEFEB06F10476
:1026700009F0BCCD80913D03875EB8C1EDE7CE1671
:10268000E2E8DE06EFEFEE06F10409F4FDC0F7E73D
:10269000CF16F8E8DF06FFEFEF06F10409F0A6CD4C
:1026A000198280E88A835CC11DE6C11612E9D10651
:1026B0001FEFE106F10409F459C154F43FE6C316D3
:1026C00030E9D3063FEFE306F10409F483C18ECD70
:1026D00087E6C81688E9D8068FEFE806F10409F402
:1026E00030C195E6C9169AE9D9069FEFE906F104CB
:1026F00009F07CCD198280E816C1ADE4CA16A2EBC0
:10270000DA06AFEFEA06F10409F433C154F5E7E560
:10271000CE16E8EADE06EFEFEE06F10409F417C183
:102720006CF41DE5C11612EAD1061FEFE106F104B3
:1027300009F05CCD19821A828FEFE6C025E5C2163A
:102740002AEAD2062FEFE206F10409F4E9C03FE4D9
:10275000C31630EBD3063FEFE306F10409F430C1B2
:1027600045CD87E2C81688EDD8068FEFE806F1045C
:1027700009F41EC194F4A7E4CA16A8EBDA06AFEF79
:10278000EA06F10409F4DAC0B5E4CB16BAEBDB06CD
:10279000BFEFEB06F10401F129CDEFE1CE16E0EE3B
:1027A000DE06EFEFEE06F10409F460C1F7E0CF16A4
:1027B000F8EFDF06FFEFEF06F10409F017CD8DEA21
:1027C000898388ED8A8386EE9FC080915C028F3F6B
:1027D00009F40CCD8B5F06C080915C02882309F45C
:1027E00005CD855080935C0201CD80E00E94D40924
:1027F0008091C403E0917A03F0917B03882309F16F
:102800001092C403329620E030E0DF0112974C9121
:10281000C901855C9C4FDC01AF5BBF4F4C93DF016E
:1028200011974C91DC01AE5BBF4F4C9340811196E8
:102830004C932D5F3F4F33962834310531F7198281
:102840005EC081E08093C403329620E030E0C9018D
:10285000855C9C4FDC01AF5BBF4F4C91DF01129751
:102860004C93DC01AE5BBF4F4C91DF0111974C9351
:10287000DC01AD5BBF4F8C9180832D5F3F4F339662
:102880002834310521F7B2CC80E00E94D409809130
:102890007A0390917B030E94051E88E490E00E94D9
:1028A000701D6C0185E591E00E946409760112E0DB
:1028B000E10EF11C04E610E05801C8010E949409E1
:1028C000F70132978083C80101960E949409F701AD
:1028D000319780830D5F1F4FC50102960E949409B6
:1028E000D7018C93B3E0EB0EF11C0C3A110521F7E4
:1028F000D0927B03C0927A0379CC8FEF89831A82BE
:1029000013C019828BE88A838B83CE0101960E94C3
:102910000D0B6CCC8CED898384E18A838CE3F4CF3E
:102920008CE789838CEF8A831B82EFCF8FEF8983BB
:102930001A8210C08FEF89831A8212C080E88983BF
:10294000F2CF8EE289838BE88A8387E5DDCF198217
:1029500080E88A831B82CE0101960E94700B46CCD0
:102960001B82CE0101960E942B0B40CC19828FEF67
:10297000CACF89E189838A8380E7C6CF84E98983C6
:102980001A8283EDC1CF8FEF89831A82BDCF19825E
:102990001A828FEF8B83DFCF8FEF898384EE8A8358
:1029A00084ECB2CF80EF898386EE8A838CE8ACCF4B
:1029B00087E7898388E88A8389E9A6CF80E007C012
:1029C00080913E038A3008F011CC8F5F09C00E94CD
:1029D0002D0A0CCC80913E03823008F407CC815044
:1029E0000E94130A03CC80913D0389510E94F9098A
:1029F000FDCB81E001C082E00E94D409F7CB80E0EA
:102A00000E94D40980913F03873010F010923F0359
:102A100080913F038F5F80933F032091C5033091E6
:102A2000C603E0E38E9F200D311D112400915C024E
:102A300040913E0360913D0380917A0390917B0326
:102A40000E94970780913F036091C5037091C60370
:102A5000F0E38F9F600D711D1124CE0101960E943D
:102A60007A07CE0101960E949207C0CB00917A03AB
:102A700010917B038AE591E00E9464090E5F1F4F6D
:102A800084E6E82EF12C6701F80132976081C701D6
:102A90000E94A209F80131976081C70101960E9446
:102AA000A20923E0E20EF11CD8016C91C601029646
:102AB0000E94A2090D5F1F4FBCEAEB16F10419F743
:102AC00095CB4091B0015091B1014F3F510548F471
:102AD000242F249F020E20E0211D112420935C024C
:102AE00014C02EEF241B2095229F020E20E0211DF2
:102AF0001124209520935C024E3FE1E05E0728F010
:102B00001092B1011092B00192CBCA01019690933C
:102B1000B1018093B0018BCBE090AE01F090AF019A
:102B2000A0914403B091450300915C022AE433E094
:102B30004C916E2DCF010E949707FFEFEF16F10425
:102B400031F028F01092AF011092AE0170CB1FEF60
:102B5000E11AF10AF092AF01E092AE0168CB8281F6
:102B600093810A97099708F469C17FCC80916D021F
:102B7000843408F0E7C180916D02863460F182816F
:102B800093810C970B9708F42BC225C0D90112969C
:102B90006D917C9113976E5171096731710508F041
:102BA00055C2D701C601880F991FAA1FBB1F6C0110
:102BB0007D016894C0F84E5F5F4F2C5F3F4F4534F6
:102BC000510509F428C2D9016D917C916C507109AD
:102BD0006B307105D8F280916D02883580F1828169
:102BE0009381855891098B35910508F43FC227C020
:102BF000BC016F5F7F4FD8014D915C911197475099
:102C000051094730510508F040C2220F331F21609F
:102C100002960C5F1F4F40916D0250E044505109E5
:102C2000841795070CF039C2A80142505109DA0106
:102C30004D915C914950510948305105C8F280913D
:102C40006D028032E1F48281938106970697B8F491
:102C5000848195810997099790F49F012A5F3F4FDE
:102C6000BF01625C7F4FC12CD12C7601D9014D91FF
:102C70005C91465051094630510508F42AC2209112
:102C8000FF03309100043EAB2DAB263031050CF430
:102C9000ADCA8F010A5F1F4F45ECC42E4DE9D42EFB
:102CA0004CE1E42E41E8F42E83E090E09CAB8BAB4A
:102CB000D8016D917C91F8013497A080B18080E0BB
:102CC00090E00E947A1B2B013C01B50180E090E06E
:102CD0000E947A1B4B015C012DEC3CEC4CE45FE361
:102CE0000E942C1C9B01AC01C301B2010E94CD1AB1
:102CF00087FD17C02DEC3CEC4CE45FE3C301B2014F
:102D00000E942C1C9B01AC01C501B4010E94CD1A8C
:102D1000E82F880FFF0BEE27FF0FEE1FFF273196DE
:102D200002C0E0E0F0E0A701960163E971E080E015
:102D300091E00E94991C6F01FF0FEE08FF08C62664
:102D4000D726E826F926EBA9FCA93196FCABEBAB1C
:102D50000E5F1F4F2DA93EA9E217F30709F0A8CF78
:102D6000C092F703D092F803E092F903F092FA03CD
:102D70003092FC032092FB038FEF9FEFA7CB84815F
:102D80009581CA97899708F06BCB9F012A5F3F4FC7
:102D9000C12CD12C760143E050E0D9016D917C919A
:102DA0006A5071096930710508F05ACBD901129641
:102DB0006D917C911397665171096131710570F5C0
:102DC000D701C601880F991FAA1FBB1F6C017D0187
:102DD0006894C0F84E5F5F4F2C5F3F4F4B335105F7
:102DE000E1F69F012A583F4FD9012D913C912A507D
:102DF00031092930310508F033CB2CE130E0309334
:102E0000FC032093FB03C092F703D092F803E092F7
:102E1000F903F092FA038AE090E058CBD9011296B8
:102E20006D917C911397665071096730710508F0B8
:102E300017CBCC0CDD1CEE1CFF1CCCCF20916D02FF
:102E4000CF01820F911D820F911DDC0112978D9190
:102E50009C910A97099708F008CB1092FC031092F6
:102E6000FB038FEF9FEFDC018093F7039093F80350
:102E7000A093F903B093FA0362C080916D0281328E
:102E800008F4FBCA84819581CA97899708F0F5CA2E
:102E90009F012A5F3F4FC12CD12C760143E050E0C7
:102EA000D9016D917C916A5071096930710508F002
:102EB000E4CAD90112966D917C91139766517109FC
:102EC0006131710560F5D701C601880F991FAA1FEE
:102ED000BB1F6C017D016894C0F84E5F5F4F2C5F93
:102EE0003F4F43325105E1F69F012A5B3F4FD90125
:102EF0002D913C912A5031092930310508F0BDCA85
:102F000020E130E03093FC032093FB03C092F703F1
:102F1000D092F803E092F903F092FA0310C0D901BD
:102F200012966D917C911397665071096730710507
:102F300008F0A3CACC0CDD1CEE1CFF1CCECF86E033
:102F400090E0C4CA8481958189549109C39708F09F
:102F500012CE9F012A5F3F4FBF016A577F4FC12C9E
:102F6000D12C7601D9014D915C91495051094930DC
:102F7000510508F000CED90112964D915C9113973E
:102F8000465151094131510500F112964D915C9124
:102F90001397465051094730510508F0ECCDCC0C41
:102FA000DD1CEE1CFF1C2C5F3F4F26173707D1F6A8
:102FB0003092FC032092FB03C092F703D092F803F7
:102FC000E092F903F092FA037FCAD701C601880F95
:102FD000991FAA1FBB1F6C017D016894C0F8E3CF45
:102FE000848195810997099708F0F5CD86819781AD
:102FF0008C974F9708F0EFCD8085918589974D97F5
:1030000008F0E9CD9F01265F3F4FC12CD12C7601FE
:1030100045E050E0D8CD9F0126573F4FD9012D9173
:103020003C912C5031092B30310508F0D4CD309231
:10303000FC032092FB03C092F703D092F803E092C6
:10304000F903F092FA0388E090E040CAD9011296A1
:103050006D917C911397695071096930710508F081
:10306000BACDCC0CDD1CEE1CFF1CA5CD8481958156
:10307000825491098E9708F0E2CD8F01045C1F4FB6
:103080008DE190E020E030E0C6CD4D915C9148515B
:10309000510942315105D0F0CB01019795958795A3
:1030A0009093FC038093FB038A970CF4C8CDC9016D
:1030B000330FAA0BBB0B8093F7039093F803A093F5
:1030C000F903B093FA0389E090E000CA220F331F9E
:1030D0009FCDD90112964D915C9113974951510999
:1030E0004331510508F5D701C601880F991FAA1F62
:1030F000BB1F6C017D016894C0F82C5F3F4F261701
:10310000370709F0B3CD2EE030E03093FC03209375
:10311000FB03C092F703D092F803E092F903F09218
:10312000FA038FE090E0D2C9D90112964D915C91DB
:103130001397495051094930510508F0A0CDCC0CE6
:10314000DD1CEE1CFF1CD9CF08950F931F93CF9366
:10315000DF931092C0011092BF0188EE93E0A0E0CF
:10316000B0E08093C1019093C201A093C301B093DA
:10317000C4018AE091E09093BE018093BD0185EC8B
:1031800090E09093CA018093C90184EC90E0909301
:10319000CC018093CB0180EC90E09093CE018093A2
:1031A000CD0181EC90E09093D0018093CF0182EC2F
:1031B00090E09093D2018093D10186EC90E09093BF
:1031C000D4018093D3011092D6011092D7011092AE
:1031D000D8011092D90184E690E090935B0280932D
:1031E0005A028FEF80935C0210925E0210925D0291
:1031F00010926802109267024FEF5FEFBA0140939E
:10320000630250936402609365027093660292E0D9
:1032100090936A0210926C022EE431E030933C03EA
:1032200020933B0310923D0395E090933E038093DF
:103230003F038CE191E0909341038093400384E24B
:1032400091E090934303809342038EE393E0909345
:103250004503809344031092460388E490E00E9463
:10326000701D90934803809347038AE0809349033D
:103270006CE770E08AE493E00E944D0788E490E0F8
:103280000E94701D90937B0380937A0380E591E008
:103290000E94701D9093C6038093C5036CE372E097
:1032A000805E9E4F0E944D078091C5039091C6039A
:1032B0006CEF71E0C0960E944D078091C50390911C
:1032C000C6036CEB71E0805A9F4F0E944D078091BE
:1032D000C5039091C6036CE771E080579F4F0E9431
:1032E0004D078091C5039091C6036CE371E0805453
:1032F0009F4F0E944D078091C5039091C6036CEFCC
:1033000070E080519F4F0E944D076CEB70E0809100
:10331000C5039091C6030E944D07C0917A03D091D6
:103320007B03FE0132969E01265B3F4F9FEFDF013C
:1033300012978FEF9C9311969C9390833396E2178C
:10334000F307A9F79091E903911144C01092DB03B0
:103350001092DA038093DE038093DF038093E0030F
:103360008093E1038093E2038093E30381E0809301
:10337000E4031092E6031092E5031092DD0310922D
:10338000DC038091F1039091F203892B31F488EDF5
:1033900093E09093F2038093F103E091D603F091D0
:1033A000D703309721F088ED93E09583848388EDEF
:1033B00093E09093D7038093D6031092E803109282
:1033C000E7038CE391E09093D9038093D80381E0E5
:1033D0008093E903E091D803F091D9030480F5814B
:1033E000E02D88ED93E00995D093DB03C093DA03D9
:1033F00088E190E09093E6038093E503E091D803A1
:10340000F091D9030284F385E02D88ED93E00995CE
:10341000009729F19C0140E050E060E472E48FE005
:1034200090E00E94DF1C722F632F00915F021091C9
:1034300060022091610230916202872F962FDA019B
:1034400080179107A207B30710F4D901C801809330
:103450005F0290936002A0936102B093620286E9DA
:1034600080935C02E091F103F091F2038FEF90EB17
:1034700020EF309739F08683978320870480F58189
:10348000E02DF7CF81E08093C403DF91CF911F91AE
:103490000F910895F999FECF92BD81BDF89A9927B1
:1034A00080B50895262FF999FECF1FBA92BD81BD30
:1034B00020BD0FB6F894FA9AF99A0FBE01960895B6
:1034C0005058BB27AA270E94781A0C94F21B0E941E
:1034D000E41B38F00E94EB1B20F039F49F3F19F4F5
:1034E00026F40C94E11B0EF4E095E7FB0C94DB1B37
:1034F000E92F0E94031C58F3BA1762077307840769
:10350000950720F079F4A6F50C94251C0EF4E095AF
:103510000B2EBA2FA02D0B01B90190010C01CA018D
:10352000A0011124FF27591B99F0593F50F4503E38
:1035300068F11A16F040A22F232F342F4427585F2A
:10354000F3CF469537952795A795F0405395C9F742
:103550007EF41F16BA0B620B730B840BBAF09150FA
:10356000A1F0FF0FBB1F661F771F881FC2F70EC099
:10357000BA0F621F731F841F48F48795779567956C
:10358000B795F7959E3F08F0B0CF9395880F08F058
:103590009927EE0F9795879508950E94B71B08F419
:1035A00081E008950E94E61A0C94F21B0E94EB1B26
:1035B00058F00E94E41B40F029F45F3F29F00C947E
:1035C000DB1B51110C94261C0C94E11B0E94031C64
:1035D00068F39923B1F3552391F3951B550BBB2742
:1035E000AA2762177307840738F09F5F5F4F220F87
:1035F000331F441FAA1FA9F335D00E2E3AF0E0E87E
:1036000032D091505040E695001CCAF72BD0FE2FC7
:1036100029D0660F771F881FBB1F2617370748075B
:10362000AB07B0E809F0BB0B802DBF01FF27935813
:103630005F4F3AF09E3F510578F00C94DB1B0C94E1
:10364000261C5F3FE4F3983ED4F386957795679503
:10365000B795F7959F5FC9F7880F911D9695879548
:1036600097F90895E1E0660F771F881FBB1F621767
:1036700073078407BA0720F0621B730B840BBA0B25
:10368000EE1F88F7E09508950E944B1B6894B111D6
:103690000C94261C08950E940B1C88F09F5798F0EC
:1036A000B92F9927B751B0F0E1F0660F771F881F47
:1036B000991F1AF0BA95C9F714C0B13091F00E9461
:1036C000251CB1E008950C94251C672F782F8827BE
:1036D000B85F39F0B93FCCF3869577956795B39588
:1036E000D9F73EF490958095709561957F4F8F4FF7
:1036F0009F4F0895E89409C097FB3EF490958095FC
:10370000709561957F4F8F4F9F4F9923A9F0F92FA7
:1037100096E9BB279395F695879577956795B79525
:10372000F111F8CFFAF4BB0F11F460FF1BC06F5F0B
:103730007F4F8F4F9F4F16C0882311F096E911C01D
:10374000772321F09EE8872F762F05C0662371F03E
:1037500096E8862F70E060E02AF09A95660F771F52
:10376000881FDAF7880F9695879597F90895990F2E
:103770000008550FAA0BE0E8FEEF16161706E8073B
:10378000F907C0F012161306E407F50798F0621B5C
:10379000730B840B950B39F40A2661F0232B242B31
:1037A000252B21F408950A2609F4A140A6958FEF50
:1037B000811D811D089597F99F6780E870E060E0A2
:1037C00008959FEF80EC089500240A9416161706BA
:1037D00018060906089500240A9412161306140602
:1037E00005060895092E0394000C11F4882352F065
:1037F000BB0F40F4BF2B11F460FF04C06F5F7F4F1D
:103800008F4F9F4F089557FD9058440F551F59F003
:103810005F3F71F04795880F97FB991F61F09F3FBD
:1038200079F087950895121613061406551FF2CFE6
:103830004695F1DF08C0161617061806991FF1CF36
:1038400086957105610508940895E894BB2766275D
:103850007727CB0197F908950E943F1C0C94F21B27
:103860000E94E41B38F00E94EB1B20F0952311F01E
:103870000C94DB1B0C94E11B11240C94261C0E945D
:10388000031C70F3959FC1F3950F50E0551F629F85
:10389000F001729FBB27F00DB11D639FAA27F00DA9
:1038A000B11DAA1F649F6627B00DA11D661F829FD0
:1038B0002227B00DA11D621F739FB00DA11D621FB5
:1038C000839FA00D611D221F749F3327A00D611DD2
:1038D000231F849F600D211D822F762F6A2F1124B4
:1038E0009F5750409AF0F1F088234AF0EE0FFF1FE7
:1038F000BB1F661F771F881F91505040A9F79E3F3E
:10390000510580F00C94DB1B0C94261C5F3FE4F304
:10391000983ED4F3869577956795B795F795E79593
:103920009F5FC1F7FE2B880F911D9695879597F99C
:103930000895DB018F939F930E94051DBF91AF9166
:10394000A29F800D911DA39F900DB29F900D1124F9
:10395000089597FB072E16F4009407D077FD09D041
:103960000E94471D07FC05D03EF4909581959F4F1E
:103970000895709561957F4F0895A1E21A2EAA1BB4
:10398000BB1BFD010DC0AA1FBB1FEE1FFF1FA2170F
:10399000B307E407F50720F0A21BB30BE40BF50B0C
:1039A000661F771F881F991F1A9469F76095709595
:1039B000809590959B01AC01BD01CF010895052E26
:1039C00097FB1EF400940E94F61C57FD07D00E943E
:1039D000BD1C07FC03D04EF40C94F61C509540958A
:1039E000309521953F4F4F4F5F4F089590958095AB
:1039F000709561957F4F8F4F9F4F08950E94611D75
:103A0000B7FF0895821B930B08950E94611DA59F27
:103A1000900DB49F900DA49F800D911D11240895C9
:103A20000F93083090F0982F872F762F652F542F03
:103A3000432F322F22270850F4CF220F331F441F69
:103A4000551F661F771F881F991F0A95B2F70F91A0
:103A5000089597FB10F8169400080F93083098F01B
:103A60000850232F342F452F562F672F782F892F5B
:103A7000902DF4CF059497958795779567955795F1
:103A80004795379527950A95AAF70F910895AA1B90
:103A9000BB1B51E107C0AA1FBB1FA617B70710F039
:103AA000A61BB70B881F991F5A95A9F7809590956B
:103AB000BC01CD010895EE0FFF1F0590F491E02D9C
:103AC0000994A29FB001B39FC001A39F700D811DF7
:103AD0001124911DB29F700D811D1124911D089517
:103AE000CF93DF938230910510F482E090E0E09173
:103AF0000A04F0910B0420E030E0C0E0D0E0309701
:103B000011F14081518148175907C0F048175907F2
:103B100061F482819381209719F09B838A832BC063
:103B200090930B0480930A0426C02115310519F0E7
:103B30004217530718F49A01BE01DF01EF0102801A
:103B4000F381E02DDCCF2115310509F1281B390B5C
:103B50002430310590F412968D919C911397611544
:103B6000710521F0FB019383828304C090930B04C1
:103B700080930A04FD01329644C0FD01E20FF31F59
:103B800081939193225031092D933C933AC0209117
:103B9000080430910904232B41F420910201309153
:103BA000030130930904209308042091000130910F
:103BB00001012115310541F42DB73EB740910401B3
:103BC00050910501241B350BE0910804F091090484
:103BD000E217F307A0F42E1B3F0B2817390778F0E4
:103BE000AC014E5F5F4F2417350748F04E0F5F1F43
:103BF00050930904409308048193919302C0E0E03C
:103C0000F0E0CF01DF91CF9108950F931F93CF93F1
:103C1000DF93009709F48CC0FC0132971382128263
:103C200000910A0410910B040115110581F4208103
:103C30003181820F931F20910804309109042817C5
:103C4000390779F5F0930904E093080471C0D801AD
:103C500040E050E0AE17BF0750F412962D913C9112
:103C60001397AD012115310509F1D901F3CF9D015C
:103C7000DA013383228360817181860F971F821757
:103C8000930769F4EC0128813981260F371F2E5FD5
:103C90003F4F318320838A819B8193838283452B8D
:103CA00029F4F0930B04E0930A0442C01396FC93AA
:103CB000EE931297ED01499159919E01240F351F02
:103CC000E217F30771F480819181840F951F0296AA
:103CD00011969C938E938281938113969C938E93DD
:103CE0001297E0E0F0E0D80112968D919C91139725
:103CF000009719F0F8018C01F6CF8D919C919801F5
:103D00002E5F3F4F820F931F2091080430910904CA
:103D10002817390769F4309729F410920B04109290
:103D20000A0402C01382128210930904009308044B
:103D3000DF91CF911F910F91089581E090E0F89469
:103D40000C94A21E11E0C2E6D1E004C0FE010E9464
:0E3D50005B1D2196C336D107C9F7F894FFCF4B
:103D5E0000000C04800000000000F901E20A91014D
:103D6E004002C201A001B401000000004A07720324
:103D7E00000000004C077603000000007003700383
:103D8E0070034C0348034503000000000203BE020B
:103D9E00BC024C034803B9027803000000004B0735
:103DAE0074030D0A006C6F616400736176653A20CE
:103DBE00004578636565646564206D6178696D752D
:103DCE006D206E756D626572206F662077726974F4
:103DDE00657300417474656D707420746F20777212
:103DEE00697465206F757473696465206F6620450C
:0E3DFE004550524F4D206D656D6F727900007B
:00000001FF
