:100000000C9443010C946B010C946B010C946B01E8
:100010000C946B010C946B010C946B010C94030613
:100020000C946B010C946B010C946B010C946B01A0
:100030000C946B010C946B010C946B010C946B0190
:100040000C94320C0C946B010C94D1050C94AB0500
:100050000C946B010C946B010C946B010C946B0170
:100060000C946B010C946B0100000000240027002D
:100070002A000000000023002600290000000000E4
:10008000250028002B0004040404040404040202D4
:100090000202020203030303030301020408102007
:1000A0004080010204081020010204081020000012
:1000B0000008000201000003040700000000000027
:1000C00000000000FF00000000000055AB00000031
:1000D000000000ABAB000000000000FF00000000CB
:1000E000000055AB000000000000FF000000000011
:1000F0000000AB005500000000005500AB00000000
:100100000000000000000000330000006600000056
:1001100099000000CC000000FF000033FF000066E3
:10012000FF000099FF0000CCFF0000FFFF0033FF3D
:10013000FF0066FFFF0099FFFF00CCFFFF00FFFFFD
:10014000FF00AB0055007C0084004B00B5001B0095
:10015000E5000017E8000047B8000077AB0000ABEF
:10016000AB000055AB000022DD000E00F2003E00A7
:10017000C20071008F00A1005F00D0002F00F907BE
:10018000000000640000006400002F6B5500006454
:10019000000000800000228B2200238E6B00008074
:1001A0000000578B2E00AACD660032CD320032CD32
:1001B0009A0090EE900000FC7C00AACD6600228B95
:1001C000220000000000000080000000000000008D
:1001D000800000008B000000800000008B00000009
:1001E0008B0000008B000000FF0000A5FF00FFFF58
:1001F000FF0000A5FF000000FF0000008B000000D2
:100200000000FF0000008B0000008B0000008B004E
:1002100000008B0000008B0000008B0000008B00B2
:100220000000FF0000008B000000EBCE8700EBCE4B
:100230008700E6D8AD00FFFFFF00E6D8AD00EBCEAB
:100240008700701919008B000000701919008000D8
:1002500000008B000000CD000000578B2E00808036
:100260000000A09E5F00FF0000008B8B0000ED955A
:100270006400D4FF7F00578B2E00FFFF0000FACEF2
:100280008700ED18EC1811241FBECFEFD8E0DEBFB9
:10029000CDBF11E0A0E0B1E0E2EAFDE302C00590CD
:1002A0000D92AE3AB107D9F723E0AEEAB1E001C052
:1002B0001D92A63DB207E1F711E0C2E4D1E004C00F
:1002C0002197FE010E947D1DC134D107C9F70E940C
:1002D0007C0C0C94C41E0C940000089580E090E007
:1002E0000895FC01538D448D252F30E0842F90E03C
:1002F000821B930B541710F0CF9608950197089521
:10030000FC01918D828D981761F0828DDF01A80F1D
:10031000B11D5D968C91928D9F5F9F73928F90E03F
:1003200008958FEF9FEF0895FC01918D828D9817AE
:1003300031F0828DE80FF11D858D90E008958FEFEB
:100340009FEF0895FC01918D228D892F90E0805CB4
:100350009F4F821B91098F739927089583ED91E038
:100360000E94A20121E0892B09F420E0822F089548
:10037000FC01848DDF01A80FB11DA35ABF4F2C9142
:10038000848D90E001968F739927848FA689B78911
:100390002C93A089B1898C9180648C93938D848DEA
:1003A000981306C00288F389E02D80818F7D8083B9
:1003B0000895EF92FF920F931F93CF93DF93EC0179
:1003C00081E0888F9B8D8C8D981305C0E889F98911
:1003D000808185FD24C0F62E0B8D10E00F5F1F4F2E
:1003E0000F731127E02E8C8DE8120CC00FB607FC9E
:1003F000FACFE889F989808185FFF5CFCE010E9487
:10040000B801F1CF8B8DFE01E80FF11DE35AFF4FCC
:10041000F0820B8FEA89FB898081806207C0EE89B8
:10042000FF896083E889F98980818064808381E025
:1004300090E0DF91CF911F910F91FF90EF90089581
:10044000CF93DF93EC01888D8823C9F0EA89FB897B
:10045000808185FD05C0A889B9898C9186FD0FC072
:100460000FB607FCF5CF808185FFF2CFA889B98947
:100470008C9185FFEDCFCE010E94B801E7CFDF91CF
:10048000CF91089580E090E0892B29F00E94AE0181
:1004900081110C9400000895EF92FF920F931F9327
:1004A000CF93DF93EC019091BA019F5F292F2770C2
:1004B0002093BA0190FF02C090E801C090E021FDB6
:1004C0009064247009F0906220E1290FFE013C96AF
:1004D0007E018FE0E80EF11C00E011E061916623DF
:1004E00031F070E0C8010E94CB1C6F5F01C060E07A
:1004F000DF0114976C93322F369F030E30E0311DCD
:100500001124CF010797311103C0EC01188203C0F9
:100510003150EC013883662311F061506C93EE1575
:10052000FF05E1F6DF91CF911F910F91FF90EF90C2
:10053000089580E991E00895559A08950F931F93C7
:10054000CF93DF93CDB7DEB762970FB6F894DEBFD7
:100550000FBECDBF8C01F901DC011C968C917A8312
:1005600069835C834B835E834D8390819D879181FA
:100570009E8792819F87813029F4CE0101960E9447
:100580004C0206C01C861B861A86198618861F8296
:1005900083E0888B1A8A198AD801ED91FC91048432
:1005A000F585E02DBE016F5F7F4FC801099562960A
:1005B0000FB6F894DEBF0FBECDBFDF91CF911F9174
:1005C0000F9108950F931F93CF93DF93CDB7DEB7AD
:1005D00062970FB6F894DEBF0FBECDBF8C01F90154
:1005E000DC011C968C917A8369835C834B835E83E8
:1005F0004D8390819D8791819E8792819F878130D5
:1006000029F4CE0101960E944C0206C01C861B866E
:100610001A86198618861F82188A1A8A198AD8019A
:10062000ED91FC910484F585E02DBE016F5F7F4F55
:10063000C801099562960FB6F894DEBF0FBECDBF14
:10064000DF91CF911F910F91089580E090E0089580
:10065000FC01858596850895CF93DF9300D000D067
:1006600000D0CDB7DEB7AB011C821D821E82DC013B
:10067000ED91FC910190F081E02D19821A821B828C
:100680009E012F5F3F4FBE016C5F7F4F09952696FD
:100690000FB6F894DEBF0FBECDBFDF91CF910895A6
:1006A0000E94BF1E0C94271E0C94271E0C94271E1C
:1006B0004F925F926F927F928F92AF92BF92CF9242
:1006C000EF92FF920F931F93CF93DF933C01EB01C7
:1006D0000E94B10AF30127853089621B730B6A30CF
:1006E0007105B0F3F894E881F9815BB150628BB188
:1006F0008F7D8BB96A859F81262F291B922F2F838F
:10070000BF844A805B807D85FC84EE847F5FF394A8
:10071000E3943E814885A984CB841181D20120E0F5
:10072000C32F022F322F3181112788943111390FB5
:1007300008F43FEF9195889470FD130F17958894F6
:1007400071FD130F1795889472FD130F17958894F8
:1007500073FD130F1795889474FD130F17958894E4
:1007600075FD130F1795889476FD130F17958894D0
:1007700077FD130F17958894232F7111212F960F52
:10078000122F002C5BB900C017FF8BB930812227D4
:10079000889400C000C0002C8BB931113C0F00C000
:1007A000002C5BB900C016FF8BB908F43FEFC19570
:1007B000889400C000C0002C8BB9F0FC230F00C04F
:1007C000002C5BB900C015FF8BB927958894F1FC0C
:1007D000230F00C000C0002C8BB92795889400C05F
:1007E000002C5BB900C014FF8BB9F2FC230F2795D6
:1007F000889400C000C0002C8BB9F3FC230F00C00C
:10080000002C5BB900C013FF8BB927958894F4FCCA
:10081000230F00C000C0002C8BB92795889400C01E
:10082000002C5BB900C012FF8BB9F5FC230F279594
:10083000889400C000C0002C8BB9F6FC230F00C0C8
:10084000002C5BB900C011FF8BB927958894F7FC89
:10085000230F00C000C0002C8BB92795889400C0DE
:10086000002C5BB900C010FF8BB9132FF110122FB1
:10087000CA0D00C000C0002C8BB900C000C0002C05
:100880005BB900C017FF8BB932812227889400C062
:1008900000C0002C8BB93111340F00C0002C5BB9A3
:1008A00000C016FF8BB908F43FEFEB0DF11D00C03F
:1008B00000C0002C8BB9E0FC230F00C0002C5BB9FA
:1008C00000C015FF8BB927958894E1FC230F00C069
:1008D00000C0002C8BB92795889400C0002C5BB910
:1008E00000C014FF8BB9E2FC230F2795889400C049
:1008F00000C0002C8BB9E3FC230F00C0002C5BB9B7
:1009000000C013FF8BB927958894E4FC230F00C027
:1009100000C0002C8BB92795889400C0002C5BB9CF
:1009200000C012FF8BB9E5FC230F2795889400C007
:1009300000C0002C8BB9E6FC230F00C0002C5BB973
:1009400000C011FF8BB927958894E7FC230F00C0E6
:1009500000C0002C8BB92795889400C0002C5BB98F
:1009600000C010FF8BB9132FE110122F419500C06A
:1009700000C0002C8BB94C0D00C000C05BB900C09A
:1009800017FF8BB931812227889400C000C0002C4A
:100990008BB93111390F00C0002C5BB900C016FFB4
:1009A0008BB908F43FEF9195889400C000C0002CEB
:1009B0008BB970FD230F00C0002C5BB900C015FF80
:1009C0008BB92795889471FD230F00C000C0002CBF
:1009D0008BB92795889400C0002C5BB900C014FF28
:1009E0008BB972FD230F2795889400C000C0002C9E
:1009F0008BB973FD230F00C0002C5BB900C013FF3F
:100A00008BB92795889474FD230F00C000C0002C7B
:100A10008BB92795889400C0002C5BB900C012FFE9
:100A20008BB975FD230F2795889400C000C0002C5A
:100A30008BB976FD230F00C0002C5BB900C011FFFD
:100A40008BB92795889477FD230F00C000C0002C38
:100A50008BB92795889400C0002C5BB900C010FFAB
:100A60008BB9132F7111122F960F00C000C0002CEC
:100A70008BB9119709F086CE20EE31E0D2010E94A9
:100A8000201DDC01CB01F4E0B695A79597958795DD
:100A9000FA95D1F720E030E0A9016AE9469E040CFE
:100AA000411D569E400D511D1124450D511D840FB1
:100AB000951FA11DB11D893E43E09407A105B10515
:100AC00008F434C0885E9340A109B10942E0B695AC
:100AD000A795979587954A95D1F747E0849F080E8B
:100AE000211D949F200D311D1124290F311D60916E
:100AF000B90170E0860F971F820F931F4091CF01BD
:100B00005091D0016091D1017091D201292F3327EA
:100B1000420F531F611D711D4093CF015093D001AF
:100B20006093D1017093D2018093B90178940E94AF
:100B3000B10AF301708B6787DF91CF911F910F91FD
:100B4000FF90EF90CF90BF90AF908F907F906F907D
:100B50005F904F9008951F920F920FB60F9211243D
:100B60002F933F934F935F936F937F938F939F93B5
:100B7000AF93BF93EF93FF9383ED91E00E94B80191
:100B8000FF91EF91BF91AF919F918F917F916F9165
:100B90005F914F913F912F910F900FBE0F901F903B
:100BA00018951F920F920FB60F9211242F938F93C7
:100BB0009F93EF93FF93E091E301F091E401808133
:100BC000E091E901F091EA0182FD12C090818091EB
:100BD000EC018F5F8F732091ED01821751F0E0914E
:100BE000EC01F0E0ED52FE4F958F8093EC0101C0D7
:100BF0008081FF91EF919F918F912F910F900FBE68
:100C00000F901F9018951F920F920FB60F921124FC
:100C10002F933F934F935F936F937F938F939F9304
:100C2000AF93BF93CF93DF93EF93FF932091800215
:100C300030E0F901E255FF4F8491F901E656FF4F8C
:100C4000D491F901EA57FF4FC491CC23A1F081114F
:100C50000E94580AEC2FF0E0EE0FFF1FEE58FF4FF6
:100C6000A591B491EC91ED2331E020E009F430E05E
:100C7000832F922F02C080E090E020918402309177
:100C800085022F5F3F4F309385022093840220918D
:100C90008302253618F026E020937F0220917F0200
:100CA0002430D9F128F4223069F02330D9F060C023
:100CB000253009F453C0263009F05AC021E02093B2
:100CC000500353C0009709F053C020918402309123
:100CD00085022436310508F443C010925003109267
:100CE00083021DC08130910509F042C0E09183026A
:100CF00021E02E0F20938302F0E0209184023091B6
:100D00008502EE0FFF1FE158FD4F308727831092B9
:100D100085021092840224E029C00097B9F4E09182
:100D2000830221E02E0F20938302F0E020918402C1
:100D300030918502EE0FFF1FE158FD4F308727836A
:100D4000109285021092840223E010C02091840248
:100D5000309185022536310558F007C0009741F4DF
:100D6000109285021092840203C025E020937F0236
:100D7000209182022223B9F0892B51F480918102C3
:100D8000882321F08091810261E009C02D9A0BC077
:100D900080918102882331F08091810260E00E947D
:100DA000810A01C02D98FF91EF91DF91CF91BF9102
:100DB000AF919F918F917F916F915F914F913F91F3
:100DC0002F910F900FBE0F901F901895CF92DF922A
:100DD000EF92FF92CF93DF93EC01072E000C880B6C
:100DE000990B0E949E1B6B017C0120E030E040E4E7
:100DF0005FE30E944E1C20E030E048E452E40E9491
:100E0000F41A0E94661BC617D707D4F020E030E022
:100E100040EA5FE3C701B6010E944E1C20E030E0CB
:100E200048E452E40E94F41A20E030E040E85FE336
:100E30000E94831A0E94661B21E06C177D070CF448
:100E400020E0822F90E0DF91CF91FF90EF90DF9034
:100E5000CF900895DC01FB014C9111965C911197A4
:100E600012967C91342F3F71330F330F832F880FED
:100E700035E5282F239F020E20E0211D1124642F29
:100E80006074942F907247FD21C061110BC09111C5
:100E900004C0822F8095422F11C045E5420F30E0FB
:100EA0002BEA33C091110DC0382F4AEA349F030E4C
:100EB00030E0311D11248BEA831B420F282F30E0D4
:100EC00024C080E0422F4095322F0EC0611111C026
:100ED00091110CC0382F2AEA329F030E30E0311DE9
:100EE00011244BEA431B3B5A20E00FC0322F3095B0
:100EF0000BC0911104C085E5820F3BEA03C08AEA6A
:100F0000820F90E0321B282F40E05F3F11F1552304
:100F1000E9F0222321F0259F020E20E0211D442329
:100F200021F0459F040E40E0411D332321F0359F01
:100F3000030E30E0311D11245095559F050E50E0F1
:100F4000511D1124250F450F350F03C03FEF4FEF03
:100F50002FEF7F3F09F420C050E0772321F0779FE7
:100F6000512D09F05F5F5523A1F0222321F0259F29
:100F7000020E20E0211D442321F0459F040E40E095
:100F8000411D332321F0359F030E30E0311D112424
:100F900003C030E040E020E02083418332830895A5
:100FA000BC018230910508F40895613E8EE1780716
:100FB00048F49B0195E0369527959A95E1F748E02E
:100FC000420F01C04FEF91E0242F30E0290F311D77
:100FD00035952795229FF001239FF00DF00D1124E8
:100FE0006E177F0718F44FEF420F05C02F3F3105F2
:100FF00039F091E0920F491738F78FEF890F089574
:101000008FEF0895089508950895CF93DF93EB012E
:10101000DC01129620E030E0FE01E20FF31F459163
:10102000559165917491FD0132976083319650839B
:101030004C932C5F3F4F13962034310569F7DF91B5
:10104000CF910895282F209527FF06C0229F020EDA
:1010500020E0211D112403C08195282F2695822F81
:1010600080950895EF92FF920F931F93CF93DF9394
:1010700000D01F92CDB7DEB77C0169838FEF8B83E1
:1010800080EF8A8300E010E0B701600F711FCE018E
:1010900001960E942A079981965F99830D5F1F4FE1
:1010A0000834110589F70F900F900F90DF91CF91C1
:1010B0001F910F91FF90EF900895009769F0FC0148
:1010C00001900020E9F73197AF01481B590BBC0193
:1010D00083ED91E00C94070C80E090E00895CF93AD
:1010E000DF930E945D08EC0182E591E00E945D08BB
:1010F0008C0F9D1FDF91CF9108952091A80330910F
:10110000A9032F5F3F4F3093A9032093A803409179
:101110007002509171024115510519F042175307A1
:101120001CF481E691E005C08130924034F083E800
:1011300091E00E946F0880E0089581E008959C018D
:101140002F5F3F4F2130324014F40C946C1A83E827
:1011500091E00E946F0880E00895EF92FF921F9344
:10116000CF93DF93EC01162F7C018FEFE81AF80A7A
:10117000C7010E947D08811103C020E030E012C049
:10118000CE010E949F08811791F0C7010E947D083F
:10119000882321F0612FCE010E94741A91E080E033
:1011A000292F382F81E0232B21F480E002C090E02A
:1011B000F6CFDF91CF911F91FF90EF900895CF93DD
:1011C000DF9380935703E0915A03F0915B033296CB
:1011D00080E090E0A0915803B0915903A80FB91F87
:1011E000EF01229728812C932196288111962C9328
:1011F0001197208112962C9303963396883491058B
:1012000049F7DF91CF910895CF93DF93EC0180E010
:101210000E94DF0820915A0330915B03F901329656
:10122000265B3F4F8881DF0112978C93898111964D
:101230008C938A8180833396E217F30799F7DF91C5
:10124000CF9108950F931F93CF93DF938C0180E08C
:101250000E94DF08E0915A03F0915B039F012F5F2A
:101260003F4FDF011296AF01475B5F4FE8018A8174
:101270008F3F41F49C91692F70E06630710514F046
:1012800095509C93E80188818F3F41F49081692FAC
:1012900070E06630710514F095509083E801898103
:1012A000803849F4E9019881692F70E06630710552
:1012B00014F0955098832D5F3F4F33961396241763
:1012C0003507A1F6DF91CF911F910F910895CF932C
:1012D000DF93EC0180E00E94DF08E0915A03F09177
:1012E0005B039F012E5F3F4FAF01485B5F4FD9010A
:1012F0009C918A818F3F39F4692F70E06A3F7105B4
:1013000014F49B5F9C9388818F3F41F49081692FF7
:1013100070E06A3F710514F49B5F90838981803887
:1013200049F4D9019E91692F70E06A3F710514F468
:101330009B5F9C932D5F3F4F3396E417F507B9F6FB
:10134000DF91CF9108958F929F92AF92BF920F93AA
:101350001F93CF93DF93CDB7DEB7A1970FB6F89465
:10136000DEBF0FBECDBF19A2423008F44AE08E01A5
:101370000F5D1F4F842E912CA12CB12CA50194013F
:101380000E94DF1CE62FB901CA0101501109EA30A1
:1013900014F4E05D01C0E95CD801EC93232B242B0D
:1013A000252B61F7C8010E945D08A1960FB6F8943D
:1013B000DEBF0FBECDBFDF91CF911F910F91BF90C8
:1013C000AF909F908F9008958F929F92AF92BF920F
:1013D000CF92DF92EF92FF920F931F93CF93DF9301
:1013E000FC01C081D1812091CB013091CC01C21789
:1013F000D3070CF04BC09E01220F331FE091C901AF
:10140000F091CA01E20FF31F80809180C170DD2747
:10141000F1E0CF27209719F404E610E002C00CE9B0
:101420001FEF7A015B016C01040F151FB801C401A5
:101430000E94E606892B99F40E0D1F1DB801C40108
:101440000E94E606892B71F4B8016E0D7F1DC40160
:101450000E94E606892BE9F023E030E005C021E098
:1014600030E002C022E030E0F501808191810196F8
:10147000821793073CF0F50111821082F6018081FA
:101480009181019691838083CE0105C081E090E037
:1014900002C08FEF9FEFDF91CF911F910F91FF90CF
:1014A000EF90DF90CF90BF90AF909F908F90089576
:1014B000833081F028F4813099F08230A1F00895D2
:1014C0008730A9F08830B9F08430D1F48091800061
:1014D0008F7D03C0809180008F7780938000089576
:1014E00084B58F7702C084B58F7D84BD08958091C7
:1014F000B0008F7703C08091B0008F7D8093B000E3
:1015000008951F93CF93DF93282F30E0F901E25520
:10151000FF4F8491F901E656FF4FD491F901EA5744
:10152000FF4FC491CC23C9F0162F81110E94580A95
:10153000EC2FF0E0EE0FFF1FE458FF4FA591B491A0
:101540008FB7F894111105C09C91ED2FE095E92318
:1015500002C0EC91ED2BEC938FBFDF91CF911F91E7
:1015600008953FB7F8948091BB019091BC01A09180
:10157000BD01B091BE0126B5A89B05C02F3F19F053
:101580000196A11DB11D3FBFBA2FA92F982F882703
:10159000820F911DA11DB11DBC01CD0142E0660F5E
:1015A000771F881F991F4A95D1F708953F924F9250
:1015B0005F926F927F928F929F92AF92BF92CF92E3
:1015C000DF92EF92FF920F931F93CF93DF9300D0A0
:1015D0001F92CDB7DEB7F82E8091750290917602FA
:1015E000A0917702B0917802892B8A2B8B2BE9F09E
:1015F0000E94B10A0091B0031091B1032091B2038F
:101600003091B303DC01CB01801B910BA20BB30B18
:101610000091750210917602209177023091780244
:1016200080179107A207B307B8F20E94B10A60932E
:10163000B0037093B1038093B2039093B303E0912E
:101640007D02F0917E02309759F0409179025091DD
:101650007A0260917B0270917C028F2D0995F82EA1
:101660000091B6031091B7034F2C512C612C712CB3
:101670000115110509F461C0D8011C96EC901C9766
:1016800080917302909174028436910510F41C9637
:101690001C92D801ED91FC91A280B38019821A822C
:1016A0001B82F11014C0F801458556856281738153
:1016B0009E012F5F3F4FC801F5010995D8011C9687
:1016C000EC921C9714960D911C911597D1CFF801AF
:1016D0003996CE0101966C0148019CE0890E911C5F
:1016E000DF0113973C902191332001F12223F1F087
:1016F000822F90E0A0E0B0E09C01AD012F5F3F4F52
:101700004F4F5F4FC301B2010E94BB1C9B01AC0154
:10171000832D90E0A0E0B0E0BC01CD016F5F7F4F72
:101720008F4F9F4F0E94BB1CD6018C93BFEFCB1AEB
:10173000DB0AE815F905A1F6B6CF8091AE039091CA
:10174000AF039C012F5F3F4F3093AF032093AE0355
:1017500049970CF447C08FB7F8940091CF011091CE
:10176000D0012091D1013091D2018FBFE091AE0321
:10177000F091AF0388EE93E0E89FB001E99F700D10
:10178000F89F700D1124072E000C880B990BC09048
:10179000AA03D090AB03E090AC03F090AD03A90195
:1017A00098012C193D094E095F090E94DF1C3093F6
:1017B0007402209373021092AF031092AE032FB7FE
:1017C000F8948091CF019091D001A091D101B09176
:1017D000D2012FBF8093AA039093AB03A093AC03D5
:1017E000B093AD030F900F900F90DF91CF911F91A9
:1017F0000F91FF90EF90DF90CF90BF90AF909F90B0
:101800008F907F906F905F904F903F900895CF9210
:10181000DF92EF92FF920F931F93CF93DF936C01B0
:101820007A018B01C0E0D0E0CE15DF0589F0D80148
:101830006D918D01D601ED91FC910190F081E02D2B
:10184000C6010995892B11F47E0102C02196ECCFC7
:10185000C701DF91CF911F910F91FF90EF90DF9023
:10186000CF9008951F920F920FB60F9211242F93CD
:101870003F938F939F93AF93BF938091CF019091AC
:10188000D001A091D101B091D2013091D10323E0D8
:10189000230F2D3720F40196A11DB11D05C026E8A8
:1018A000230F0296A11DB11D2093D1038093CF0178
:1018B0009093D001A093D101B093D2018091BB014C
:1018C0009091BC01A091BD01B091BE010196A11DF6
:1018D000B11D8093BB019093BC01A093BD01B09357
:1018E000BE01BF91AF919F918F913F912F910F902A
:1018F0000FBE0F901F901895CF93DF93CDB7DEB733
:1019000027970FB6F894DEBF0FBECDBF789484B58D
:10191000826084BD84B5816084BD85B5826085BDEB
:1019200085B5816085BD80916E00816080936E0079
:10193000109281008091810082608093810080916B
:10194000810081608093810080918000816080931C
:1019500080008091B10084608093B1008091B000DC
:1019600081608093B00080917A00846080937A00D7
:1019700080917A00826080937A0080917A00816001
:1019800080937A0080917A00806880937A00109228
:10199000C1001092B5011092B6011092B7011092D9
:1019A000B801809172020E94D60AE091E301F091A1
:1019B000E40182E08083E091DF01F091E001108298
:1019C000E091E101F091E2019FEC90831092EB0134
:1019D000E091E701F091E80196E09083E091E50164
:1019E000F091E601908190619083E091E501F091A2
:1019F000E601908198609083E091E501F091E60125
:101A0000908190689083E091E501F091E6019081EA
:101A10009F7D9083F8948093B0008093B10094E60A
:101A20009093B3001092B2008093700078948093EA
:101A30007F02109283028091800290E0FC01E656C2
:101A4000FF4F2491FC01EA57FF4F84918823C9F08E
:101A500090E0880F991FFC01E859FF4F4591549180
:101A6000FC01E458FF4FA591B4919FB7F894FA0197
:101A700080812095822380838C91E22FE823EC9350
:101A80009FBF86E892E09093CA018093C90180913C
:101A9000830290E09093CC018093CB01809150031E
:101AA00090E09093CE018093CD0180917F028530AC
:101AB00009F0F1C2809188029091890288589109B9
:101AC0008D35910588F480918302843041F48091B2
:101AD0008A0290918B028097479708F467C38091A0
:101AE0008302843408F049C3809183028A3108F468
:101AF00054C08091860290918702843F914080F487
:101B00001092C8011092C7018FEF9FEFDC01809304
:101B1000C3019093C401A093C501B093C6015BC0FB
:101B2000809188029091890285974B97B0F5ECE8F7
:101B3000F2E082E090E040E050E0BA018C010F5FFB
:101B40001F4F2091830230E0021713076CF49F01AE
:101B500022503109D9012D913C912750310927306C
:101B6000310508F46AC3C80101979595879590934C
:101B7000C8018093C7010C972CF41092C8011092F1
:101B8000C7010BC04093C3015093C4016093C501CA
:101B90007093C60184E090E02AC4809183028A3168
:101BA00008F44DC080918602909187028032934064
:101BB00008F4A6CF8091880290918902C6978697F3
:101BC00008F457C33CC04093C3015093C4016093D1
:101BD000C5017093C6018BE090E009C4208131817A
:101BE000255231092B31310508F053C3440F551FDD
:101BF000661F771F4160029634968C010F5F1F4F5E
:101C00002091830230E00217130764F49F012250F1
:101C10003109D9012D913C912C5031092B303105DE
:101C2000E8F2C8010197959587959093C801809334
:101C3000C7010C9744F61092C8011092C701809119
:101C40008302823208F44DC080918802909189020B
:101C50000697079708F045C0ECE8F2E082E090E0D4
:101C6000C12CD12C76019C012F5F3F4F4091830204
:101C700050E024173507E4F4DF0112974D915C9191
:101C800011974E5151094731510508F00FC3CC0C43
:101C9000DD1CEE1CFF1C6894C0F840815181349615
:101CA000435051094530510510F40296DCCFC9016B
:101CB0000197959587959093C8018093C7014097A8
:101CC0002CF41092C8011092C7010BC0C092C3013E
:101CD000D092C401E092C501F092C6018CE090E080
:101CE00086C31D821C8281E090E09A838983809163
:101CF00083028D3008F46BC049E753E0BE016C5F8E
:101D00007F4FCE0101960E94E409892B09F05FC044
:101D100049E753E0BE016C5F7F4FCE0101960E9400
:101D2000E409019709F053C049E753E0BE016C5F35
:101D30007F4FCE0101960E94E409892B09F047C02C
:101D4000812C912C540100E010E08091830290E0FE
:101D500029813A81281739075CF549E753E0BE012C
:101D60006C5F7F4FCE0101960E94E4097C0149E738
:101D700053E0BE016C5F7F4FCE0101960E94E409E3
:101D8000B1E0EB16F10449F4892B09F5880C991C94
:101D9000AA1CBB1C689480F808C0EF28C1F4019706
:101DA000B1F4880C991CAA1CBB1C0F5F1F4FCDCF30
:101DB0001093C8010093C7018092C3019092C4019F
:101DC000A092C501B092C60181E090E010C31D82CF
:101DD0001C8281E090E09A8389838091CB0190916D
:101DE000CC01181619060CF058C0E091C901F09109
:101DF000CA0182E090E09A838983828193818997E6
:101E00004E9708F04AC083E090E09A8389838481EA
:101E100095810B970A9708F040C04CEB51E0BE014A
:101E20006C5F7F4FCE0101960E94E409892BA9F5D2
:101E30004CEB51E0BE016C5F7F4FCE0101960E94DA
:101E4000E409019751F5812C912C540100E010E038
:101E500029813A818091CB019091CC0128173907D3
:101E60000CF067C24CEB51E0BE016C5F7F4FCE01BE
:101E700001960E94E4096C010330110509F023C2A8
:101E80004CEB51E0BE016C5F7F4FCE0101960E948A
:101E9000E409C816D90609F416C2E091C901F09107
:101EA000CA0182819381C697869708F05EC28481B9
:101EB00095814B97459708F058C2DF0116967F0130
:101EC00026ECE20EF11C20E030E040E050E060E063
:101ED00070E080E090E00D911C911197095011097C
:101EE0000830110508F041C212960D911C9113970C
:101EF000015111090D30110508F02AC201E00E94BC
:101F0000321D21601496AE15BF0529F72093C30139
:101F10003093C4014093C5015093C60100E20E9472
:101F20004D1D2093C1013093C20185E090E0909354
:101F3000C0018093BF0180E390E09093C80180933B
:101F4000C701C090C301D090C401E090C501F090DA
:101F5000C601BFEFCB16DB06EB06FB0609F041C05E
:101F6000C090B501D090B601E090B701F090B801F3
:101F7000FDEFCF16F2E0DF06FFEFEF06F10409F404
:101F80003BC22FE9C21620E6D2062FEFE206F1048B
:101F900009F432C20E94B10A2B013C0174EF872E72
:101FA00099249394A12CB12C0E94B10ADC01CB019D
:101FB00084199509A609B709883E9340A105B10582
:101FC00058F031E0831A9108A108B10848EE440E98
:101FD00043E0541E611C711C81149104A104B104DE
:101FE00019F7C092B501D092B601E092B701F09214
:101FF000B8016091C3017091C4018091C5019091B5
:10200000C60140E10E94A30982E591E00E945D08BB
:1020100040E1C701B6010E94A30982E591E00E9458
:102020005D08F7E8CF16F8E7DF06FFEFEF06F104EB
:1020300009F432C40CF08DC235EDC3163AE2D30672
:102040003FEFE306F10409F409C40CF021C28DEE60
:10205000C81682E1D8068FEFE806F10409F42BC414
:102060000CF0E4C1A7EFCA16A8E0DA06AFEFEA0663
:10207000F10409F4F7C30CF0C6C1EDEFCE16E2E0AF
:10208000DE06EFEFEE06F10409F472C382E08093FE
:102090007F021092830280917F02823029F080912A
:1020A0007F02853009F066C020905A0330905B03B0
:1020B00080915703813009F079C5812C912C5BEA1E
:1020C000A52EE0915803F0915903E80DF91D1081F8
:1020D000F1800281EF2C1F1508F4E12E0E1508F493
:1020E000E02E1E19FE180E19BE2CB094EFEFBE168E
:1020F00039F080E09FEF9B190E94D007B82EB09472
:102100008F2D90E0810F911D800F911D892B09F07B
:1021100044C419821A82B094BB828091B301909119
:10212000B4018F3F910518F09EEF981B892F0E94F4
:1021300022088B83B101680D791DCE0101960E94A2
:102140002A0743E0840E911C88E48816910409F064
:10215000B8CF8091B3019091B4018E3FA1E09A076E
:1021600008F41EC51092B4011092B301809172025E
:102170000E94D60A0E94420284CC80918A029091E9
:102180008B02825491098E9708F0AECC80E090E0EB
:1021900040E050E0BA01FC01E457FD4F208131815D
:1021A0002950310929303105C8F09ECC80918C022C
:1021B00090918D020997099708F091CC1092C8016F
:1021C0001092C7018FEF9FEFDC018093C3019093C2
:1021D000C401A093C501B093C60103C5FC01E25739
:1021E000FD4F208131812751310922313105C0F461
:1021F000440F551F661F771F416004968038910574
:1022000051F680E290E09093C8018093C70140931B
:10221000C3015093C4016093C5017093C601E1C42A
:1022200020813181265031092730310508F05CCCFE
:10223000440F551F661F771FE0CF20813181235146
:1022400031092F30310540F4440F551F661F771FA9
:1022500041600296349672CC208131812A50310936
:102260002930310508F099CC440F551F661F771FA0
:10227000F0CF80918A0290918B02C697869708F0E2
:10228000DECCEEE8F2E083E090E040E050E0BA011E
:10229000B4CC208131812C5031092A30310508F02D
:1022A000CECC440F551F661F771FA5CC4D915C9176
:1022B0004C5051094B30510508F013CDCC0CDD1CAE
:1022C000EE1CFF1CEACC4CEB51E0BE016C5F7F4F73
:1022D000CE0101960E94E4097C010330110569F4E6
:1022E0004CEB51E0BE016C5F7F4FCE0101960E9426
:1022F000E409E816F90609F0D0CDC114D10459F467
:10230000EA94EF2809F0C9CD880C991CAA1CBB1CC3
:10231000689480F80BC0CA94CD2809F0BECDEF2890
:1023200009F0BBCD880C991CAA1CBB1C0F5F1F4F6A
:102330008FCD1093C8010093C7018092C301909282
:10234000C401A092C501B092C60182E090E04FC0E6
:1023500012960D911C911397045011090530110527
:1023600020F401E00E94321DCDCD8091830289339B
:1023700040F082819381895791098335910508F452
:1023800042C580918302823209F42EC482819381F6
:10239000895791098335910508F4B3C582819381EA
:1023A0008C549109C59708F02BC480918302843026
:1023B00009F021C4848195818097479708F01BC458
:1023C000868197810997099708F015C41092C80172
:1023D0001092C7018FEF9FEFDC018093C3019093B0
:1023E000C401A093C501B093C60187E090E090932B
:1023F000C0018093BF01A5CDCC24CA94DC2CEFE0B2
:10240000EE2EF12CC7CDF5EFCF16FAE0DF06FFEF89
:10241000EF06F10409F422C22FEEC21620E1D20623
:102420002FEFE206F10409F44DC230CE3FEDC316A2
:1024300030E2D3063FEFE306F10409F458C2ACF4EE
:1024400087EEC81688E1D8068FEFE806F10409F494
:1024500005C295EEC9169AE1D9069FEFE906F10487
:1024600009F014CE8FEF8983F2C1ADEDCA16A2E256
:10247000DA06AFEFEA06F10409F418C2B7EDCB169D
:10248000B8E2DB06BFEFEB06F10409F4E7C1FECDCD
:10249000E7EBCE16E8E4DE06EFEFEE06F10409F412
:1024A00000C23CF52DECC21622E3D2062FEFE20665
:1024B000F10409F400C254F44FECC41640E3D4060E
:1024C0004FEFE406F10409F4F6C1E0CD87ECC8163D
:1024D00088E3D8068FEFE806F10409F4BFC195EC54
:1024E000C9169AE3D9069FEFE906F10409F430C151
:1024F000CDCDAFE9CA16A0E6DA06AFEFEA06F104E1
:1025000009F4FBC19CF4EFEACE16E0E5DE06EFEF3E
:10251000EE06F10409F4EBC1F7EACF16F8E5DF06A1
:10252000FFEFEF06F10409F4B7C1B0CD27E9C216F9
:1025300028E6D2062FEFE206F10409F4ADC13FE828
:10254000C31630E7D3063FEFE306F10409F4BAC13E
:102550009DCD45E5C4164AEAD4064FEFE406F104E2
:1025600009F484C10CF07DC09DE6C91692E9D90634
:102570009FEFE906F10409F48FC10CF03FC0B7E703
:10258000CB16B8E8DB06BFEFEB06F10409F477C120
:1025900014F5FDE7CF16F2E8DF06FFEFEF06F104D2
:1025A00009F074CD80E00E94DF0880915A03909179
:1025B0005B030E94271E88E490E00E94921D6C013C
:1025C00085E591E00E946F087601B2E0EB0EF11C08
:1025D00004E610E01BC125E7C2162AE8D2062FEF59
:1025E000E206F10409F442C13FE6C31630E9D3061E
:1025F0003FEFE306F10409F47AC148CD4FE5C41674
:1026000040EAD4064FEFE406F10409F472C1B4F4D1
:1026100097E6C91698E9D9069FEFE906F10409F48F
:1026200025C1A5E6CA16AAE9DA06AFEFEA06F10463
:1026300009F02CCD198280E88A830AC1BDE5CB164A
:10264000B2EADB06BFEFEB06F10409F421C1E7E5CE
:10265000CE16E8EADE06EFEFEE06F10409F406C155
:1026600015CDFFE2CF16F0EDDF06FFEFEF06F10428
:1026700009F43DC184F537E4C31638EBD3063FEFC8
:10268000E306F10409F4F2C09CF48FE4C81680EB71
:10269000D8068FEFE806F10409F414C19DE4C916C9
:1026A00092EBD9069FEFE906F10409F4F5C0EECCF0
:1026B000A5E4CA16AAEBDA06AFEFEA06F10409F4BC
:1026C0004EC0B7E3CB16B8ECDB06BFEFEB06F10468
:1026D00009F4F1C0DBCCE7E1CE16E8EEDE06EFEF61
:1026E000EE06F10409F4E7C004F527E2C21628ED6E
:1026F000D2062FEFE206F10409F4DDC03FE1C31674
:1027000030EED3063FEFE306F10409F0BFCC0091B1
:102710005A0310915B038AE591E00E946F080E5FF7
:102720001F4F64E6E62EF12C1AC14FE0C41640EFAD
:10273000D4064FEFE406F10409F4D9C087E0C816C7
:1027400088EFD8068FEFE806F10409F4B4C09ECCF8
:10275000809172028F3F09F499CC8B5F06C0809103
:102760007202882309F492CC8550809372028ECC39
:1027700080E00E94DF088091A403E0915A03F09169
:102780005B03882309F11092A403329680E090E065
:10279000DF0112972C91AC014F5A5C4FDA011B9666
:1027A0002C939F0121503109D9012C91DA011C96FB
:1027B0002C931C9720811D962C9303963396883476
:1027C000910531F7198243C081E08093A4033296CA
:1027D00080E090E0BC016F5A7C4FDB011B964C916E
:1027E0009F0122503109D9014C93DB011C964C9179
:1027F0002F5F3F4FD9014C93DB011D962C91208315
:10280000039633968834910529F740CC5801C801C6
:102810000E949F08F70132978083C80101960E94A9
:102820009F08F701319780830D5F1F4FC501029606
:102830000E949F08F7018083F3E0EF0EF11C0C3A31
:10284000110521F7D0925B03C0925A031FCC1A8264
:102850001B82CE0101960E94040918CC8FEF898358
:102860001A8207C08FEF89831A820CC0198280E810
:102870008A831B82CE0101960E94670907CC1982C8
:1028800080E88A831B82CE0101960E942209FECB3A
:1028900019821A828FEF0DC019821A828FEF8B83F3
:1028A000E9CF19821A828FEF8B83EDCF8FEF898367
:1028B0008A838B83CECF0091AE011091AF01065F6A
:1028C0001F4F06C00091AE011091AF010A501109CF
:1028D0001093AF010093AE0180E00E94DF08602FEB
:1028E00080915A0390915B030E943208CFCB81E024
:1028F00001C082E00E94DF08C9CB80E00E94DF08AF
:1029000080E090E03091B001E091A503F091A60342
:1029100020E3329FE00DF11D1124282F22952F7006
:10292000422F440F240FE20FF11D5081418122817B
:10293000E0915A03F0915B03E80FF91F5083418344
:102940002283039688349105E9F6373010F010920F
:10295000B0018091B0018F5F8093B00197CB670188
:10296000F80132976081C7010E94AD08F8013197E4
:102970006081C70101960E94AD0833E0E30EF11CAF
:10298000D8016C91C60102960E94AD080D5F1F4FE1
:10299000BCEAEB16F10419F779CBFFEFBF16F9F09B
:1029A000B11002C0BB24B3944B2C512C612C712C60
:1029B0006FEF7FEF80E090E0A30192010E94011D84
:1029C000A12FB0E00E94271D172FAF2DB0E00E946D
:1029D000271DF72EA02FB0E00E94271D072FCF2C18
:1029E000D12CC10ED11CC00ED11C2FEFC216D104A8
:1029F0000CF5C114D10419F4CC24C394D12C2601B4
:102A0000612C712C6FEF7FEF80E090E0A3019201C9
:102A10000E94011DA12FB0E00E94271D172FAF2D8E
:102A2000B0E00E94271DF72EA02FB0E00E94271DC6
:102A3000072F05C03FEFC316D10409F06CF44E2DEB
:102A40002C2D420F08F44FEF942F4F3F31F080E0D0
:102A50000E94D007982F01C09FEF2F2DF11608F488
:102A6000212F201708F4202F21132FC0F1100DC0A3
:102A7000722F30E8731B08F470E040E6749F070E75
:102A800070E0711D1124705386C04F2D50E0622FED
:102A900070E0641B750B4617570744F47F2D20E642
:102AA000729F070E70E0711D112475C076E57F0DD1
:102AB000721B34E0731B08F470E040E6749F070E4D
:102AC00070E0711D1124705E66C02F1138C00111B5
:102AD00019C03A2D311B08F430E04FE2349F030E49
:102AE00030E0311D1124722F2A2D721B08F470E082
:102AF00040E6749F070E70E0711D1124730F7695E8
:102B0000705C49C0402F50E030E0241B350B702F23
:102B10004217530744F420E6729F070E70E0711DC0
:102B20001124705A38C035E5731B08F470E040E397
:102B3000749F070E70E0711D112470582CC0111184
:102B40000DC0702F20E8721B08F470E030E3739F13
:102B5000070E70E0711D112478571DC0412F50E001
:102B6000202F30E0241B350B712F4217530744F4FC
:102B700040E6749F070E70E0711D112470560BC063
:102B800025E5721B08F470E030E6739F070E70E0D5
:102B9000711D112470547F5F7983BA829B83BDCAF3
:102BA00001969093B4018093B301E0CA823009F09A
:102BB000DDCA0091B1011091B201602FC1010E94E4
:102BC00032080F3F110531F028F01092B201109237
:102BD000B101CCCA0F5F1F4F1093B2010093B10136
:102BE000C5CA83E090E003CC828193810A9709975C
:102BF00008F468C1CBCB80918302843408F0E6C12D
:102C000080918302863460F1828193810C970B97C7
:102C100008F42CC225C0D90112966D917C911397AE
:102C20006E5171096731710508F058C2D701C601AC
:102C3000880F991FAA1FBB1F6C017D016894C0F803
:102C40004E5F5F4F2C5F3F4F4534510509F429C259
:102C5000D9016D917C916C5071096B307105D8F27E
:102C600080918302883580F1828193818558910912
:102C70008B35910508F442C227C0BC016F5F7F4FBE
:102C8000D8014D915C91119747505109473051053A
:102C900008F043C2220F331F216002960C5F1F4FC2
:102CA0004091830250E044505109841795070CF07D
:102CB0003CC2A80142505109DA014D915C91495042
:102CC000510948305105C8F2809183028032E1F405
:102CD0008281938106970697B8F48481958109973C
:102CE000099790F49F012A5F3F4FBF01625C7F4FBD
:102CF000C12CD12C7601D9014D915C9146505109DE
:102D00004630510508F42DC22091CB013091CC0101
:102D10003F832E83263031050CF4B8C98F010A5F3A
:102D20001F4FB3E02B2E312C85ECC82E8DE9D82E09
:102D30008CE1E82E81E8F82ED8016D917C91F801A4
:102D40003497A080B18080E090E00E949C1B2B0112
:102D50003C01B50180E090E00E949C1B4B015C01AE
:102D60002DEC3CEC4CE45FE30E944E1C9B01AC015B
:102D7000C301B2010E94EF1A87FD17C02DEC3CEC95
:102D80004CE45FE3C301B2010E944E1C9B01AC0105
:102D9000C501B4010E94EF1AE82F880FFF0BEE2740
:102DA000FF0FEE1FFF27319602C0E0E0F0E0A70121
:102DB000960163E971E080E091E00E94BB1C6F0125
:102DC000FF0FEE08FF08C626D726E826F926BFEF34
:102DD0002B1A3B0A0E5F1F4FEE81FF812E163F0616
:102DE00009F0AACFC092C301D092C401E092C501FC
:102DF000F092C60180E290E09093C8018093C701F1
:102E00008FEF9FEFF4CA84819581CA97899708F064
:102E1000B8CA9F012A5F3F4FC12CD12C760143E0F5
:102E200050E0D9016D917C916A507109693071054A
:102E300008F0A7CAD90112966D917C91139766513B
:102E400071096131710570F5D701C601880F991FAD
:102E5000AA1FBB1F6C017D016894C0F84E5F5F4FD5
:102E60002C5F3F4F4B335105E1F69F012A583F4FEE
:102E7000D9012D913C912A5031092930310508F0B2
:102E800080CA2CE130E03093C8012093C701C09282
:102E9000C301D092C401E092C501F092C6018AE05C
:102EA00090E0A5CAD90112966D917C911397665056
:102EB00071096730710508F064CACC0CDD1CEE1C8A
:102EC000FF1CCCCF20918302CF01820F911D820F76
:102ED000911DDC0112978D919C910A97099708F03A
:102EE00055CA1092C8011092C7018FEF9FEFDC0105
:102EF0008093C3019093C401A093C501B093C60110
:102F000062C080918302813208F448CA848195812D
:102F1000CA97899708F042CA9F012A5F3F4FC12C88
:102F2000D12C760143E050E0D9016D917C916A503B
:102F300071096930710508F031CAD90112966D9195
:102F40007C911397665171096131710560F5D70164
:102F5000C601880F991FAA1FBB1F6C017D016894D1
:102F6000C0F84E5F5F4F2C5F3F4F43325105E1F693
:102F70009F012A5B3F4FD9012D913C912A50310985
:102F80002930310508F00ACA20E130E03093C80149
:102F90002093C701C092C301D092C401E092C50141
:102FA000F092C60110C0D90112966D917C911397D1
:102FB000665071096730710508F0F0C9CC0CDD1C52
:102FC000EE1CFF1CCECF86E090E011CA8481958173
:102FD00089549109C39708F013CE9F012A5F3F4F90
:102FE000BF016A577F4FC12CD12C7601D9014D9179
:102FF0005C91495051094930510508F001CED90181
:1030000012964D915C9113974651510941315105EA
:1030100010F112964D915C9113974650510947302B
:10302000510508F0EDCDCC0CDD1CEE1CFF1C2C5F17
:103030003F4F26173707D1F620E230E03093C80122
:103040002093C701C092C301D092C401E092C50190
:10305000F092C601CAC9D701C601880F991FAA1FDD
:10306000BB1F6C017D016894C0F8E1CF848195811C
:103070000997099708F0F4CD868197818C974F972F
:1030800008F0EECD8085918589974D9708F0E8CDC1
:103090009F01265F3F4FC12CD12C760145E050E0C7
:1030A000D7CD9F0126573F4FD9012D913C912C50F0
:1030B00031092B30310508F0D3CD20E230E03093D8
:1030C000C8012093C701C092C301D092C401E0920D
:1030D000C501F092C60188E090E089C9D901129635
:1030E0006D917C911397695071096930710508F0F1
:1030F000B7CDCC0CDD1CEE1CFF1CA2CD84819581CC
:10310000825491098E9708F0DFCD8F01045C1F4F28
:103110008DE190E020E030E0C3CD4D915C914851CD
:10312000510942315105D0F0CB0101979595879512
:103130009093C8018093C7018A970CF4C5CDC9014B
:10314000330FAA0BBB0B8093C3019093C401A093D0
:10315000C501B093C60189E090E049C9220F331F31
:103160009CCDD90112964D915C911397495151090B
:103170004331510508F5D701C601880F991FAA1FD1
:10318000BB1F6C017D016894C0F82C5F3F4F261770
:10319000370709F0B0CD2EE030E03093C80120931E
:1031A000C701C092C301D092C401E092C501F09260
:1031B000C6018FE090E01BC9D90112964D915C9138
:1031C0001397495051094930510508F09DCDCC0C59
:1031D000DD1CEE1CFF1CD9CF08950F931F93CF93D6
:1031E000DF931092D6011092D50188EE93E0A0E013
:1031F000B0E08093D7019093D801A093D901B09308
:10320000DA018AE091E09093D4018093D30185ECB8
:1032100090E09093E0018093DF0184EC90E0909344
:10322000E2018093E10180EC90E09093E4018093CF
:10323000E30181EC90E09093E6018093E50182EC5C
:1032400090E09093E8018093E70186EC90E0909302
:10325000EA018093E9011092EC011092ED011092C5
:10326000EE011092EF0184E690E09093710280935A
:1032700070028FEF809372021092740210927302A8
:1032800010927E0210927D028FEF9FEFDC018093FF
:10329000790290937A02A0937B02B0937C0282E041
:1032A00080938002109282028EE491E09093520308
:1032B000809351038CE191E09093540380935303E6
:1032C00084E291E090935603809355031092570344
:1032D00088E490E00E94921D9093590380935803D4
:1032E00088E490E00E94921D90935B0380935A03C0
:1032F00080E591E00E94921D9093A6038093A50320
:1033000062E472E0805E9E4F0E9405088091A503F2
:103310009091A60362E072E0C0960E940508809139
:10332000A5039091A60362EC71E0805A9F4F0E9422
:1033300005088091A5039091A60362E871E080578B
:103340009F4F0E9405088091A5039091A60362E417
:1033500071E080549F4F0E9405088091A5039091D1
:10336000A60362E071E080519F4F0E94050862EC65
:1033700070E08091A5039091A6030E940508C0917A
:103380005A03D0915B03FE0132969E01265B3F4FAC
:103390009FEFDF0112978FEF9C9311969C93908380
:1033A0003396E217F307A9F79091C903911144C02E
:1033B0001092BB031092BA038093BE038093BF03A5
:1033C0008093C0038093C1038093C2038093C3039F
:1033D00081E08093C4031092C6031092C50310923B
:1033E000BD031092BC038091B6039091B703892B63
:1033F00031F488EB93E09093B7038093B603E091A8
:10340000B403F091B503309721F088EB93E09583F6
:10341000848388EB93E09093B5038093B403109278
:10342000C8031092C7038CE391E09093B903809393
:10343000B80381E08093C903E091B803F091B90328
:103440000480F581E02D88EB93E00995D093BB03D0
:10345000C093BA0388E190E09093C6038093C503BC
:10346000E091B803F091B9030284F385E02D88EB75
:1034700093E00995009729F19C0140E050E060E459
:1034800072E48FE090E00E94011D722F632F009183
:103490007502109176022091770230917802872F81
:1034A000962FDA0180179107A207B30710F4D9010C
:1034B000C8018093750290937602A0937702B0932F
:1034C000780286E98093720281E08093A403DF9101
:1034D000CF911F910F910895F999FECF92BD81BDB3
:1034E000F89A992780B50895262FF999FECF1FBA2B
:1034F00092BD81BD20BD0FB6F894FA9AF99A0FBE1D
:10350000019608955058BB27AA270E949A1A0C9436
:10351000141C0E94061C38F00E940D1C20F039F487
:103520009F3F19F426F40C94031C0EF4E095E7FB7E
:103530000C94FD1BE92F0E94251C58F3BA17620753
:1035400073078407950720F079F4A6F50C94471CBF
:103550000EF4E0950B2EBA2FA02D0B01B9019001AE
:103560000C01CA01A0011124FF27591B99F0593FF2
:1035700050F4503E68F11A16F040A22F232F342F3A
:103580004427585FF3CF469537952795A795F04088
:103590005395C9F77EF41F16BA0B620B730B840B9D
:1035A000BAF09150A1F0FF0FBB1F661F771F881F55
:1035B000C2F70EC0BA0F621F731F841F48F48795AD
:1035C00077956795B795F7959E3F08F0B0CF93959F
:1035D000880F08F09927EE0F9795879508950E9418
:1035E000D91B08F481E008950E94081B0C94141C58
:1035F0000E940D1C58F00E94061C40F029F45F3F09
:1036000029F00C94FD1B51110C94481C0C94031CC4
:103610000E94251C68F39923B1F3552391F3951B60
:10362000550BBB27AA2762177307840738F09F5FE3
:103630005F4F220F331F441FAA1FA9F335D00E2E50
:103640003AF0E0E832D091505040E695001CCAF7BD
:103650002BD0FE2F29D0660F771F881FBB1F261780
:1036600037074807AB07B0E809F0BB0B802DBF0157
:10367000FF2793585F4F3AF09E3F510578F00C9426
:10368000FD1B0C94481C5F3FE4F3983ED4F38695F1
:1036900077956795B795F7959F5FC9F7880F911D47
:1036A0009695879597F90895E1E0660F771F881F33
:1036B000BB1F621773078407BA0720F0621B730BE6
:1036C000840BBA0BEE1F88F7E09508950E946D1BDE
:1036D0006894B1110C94481C08950E942D1C88F028
:1036E0009F5798F0B92F9927B751B0F0E1F0660FC6
:1036F000771F881F991F1AF0BA95C9F714C0B13007
:1037000091F00E94471CB1E008950C94471C672F6C
:10371000782F8827B85F39F0B93FCCF38695779535
:103720006795B395D9F73EF490958095709561951E
:103730007F4F8F4F9F4F0895E89409C097FB3EF449
:1037400090958095709561957F4F8F4F9F4F9923EE
:10375000A9F0F92F96E9BB279395F695879577956C
:103760006795B795F111F8CFFAF4BB0F11F460FF2C
:103770001BC06F5F7F4F8F4F9F4F16C0882311F084
:1037800096E911C0772321F09EE8872F762F05C098
:10379000662371F096E8862F70E060E02AF09A9533
:1037A000660F771F881FDAF7880F9695879597F928
:1037B0000895990F0008550FAA0BE0E8FEEF1616C2
:1037C0001706E807F907C0F012161306E407F50715
:1037D00098F0621B730B840B950B39F40A2661F089
:1037E000232B242B252B21F408950A2609F4A1402C
:1037F000A6958FEF811D811D089597F99F6780E839
:1038000070E060E008959FEF80EC089500240A9432
:103810001616170618060906089500240A941216AB
:103820001306140605060895092E0394000C11F4DE
:10383000882352F0BB0F40F4BF2B11F460FF04C08B
:103840006F5F7F4F8F4F9F4F089557FD9058440FE4
:10385000551F59F05F3F71F04795880F97FB991FEF
:1038600061F09F3F79F087950895121613061406AC
:10387000551FF2CF4695F1DF08C016161706180639
:10388000991FF1CF86957105610508940895E89414
:10389000BB2766277727CB0197F908950E94611C03
:1038A0000C94141C0E94061C38F00E940D1C20F081
:1038B000952311F00C94FD1B0C94031C11240C9403
:1038C000481C0E94251C70F3959FC1F3950F50E092
:1038D000551F629FF001729FBB27F00DB11D639FC2
:1038E000AA27F00DB11DAA1F649F6627B00DA11D68
:1038F000661F829F2227B00DA11D621F739FB00D0E
:10390000A11D621F839FA00D611D221F749F33277D
:10391000A00D611D231F849F600D211D822F762F16
:103920006A2F11249F5750409AF0F1F088234AF0F3
:10393000EE0FFF1FBB1F661F771F881F915050405F
:10394000A9F79E3F510580F00C94FD1B0C94481C78
:103950005F3FE4F3983ED4F3869577956795B795E6
:10396000F795E7959F5FC1F7FE2B880F911D969500
:10397000879597F90895DB018F939F930E94271DE8
:10398000BF91AF91A29F800D911DA39F900DB29FFB
:10399000900D1124089597FB072E16F4009407D07C
:1039A00077FD09D00E94691D07FC05D03EF4909573
:1039B00081959F4F0895709561957F4F0895A1E27D
:1039C0001A2EAA1BBB1BFD010DC0AA1FBB1FEE1F99
:1039D000FF1FA217B307E407F50720F0A21BB30BE4
:1039E000E40BF50B661F771F881F991F1A9469F760
:1039F00060957095809590959B01AC01BD01CF01BC
:103A00000895052E97FB1EF400940E94181D57FD83
:103A100007D00E94DF1C07FC03D04EF40C94181D45
:103A200050954095309521953F4F4F4F5F4F0895EA
:103A300090958095709561957F4F8F4F9F4F08951A
:103A40000E94831DB7FF0895821B930B08950E9467
:103A5000831DA59F900DB49F900DA49F800D911D77
:103A6000112408950F93083090F0982F872F762F08
:103A7000652F542F432F322F22270850F4CF220FC7
:103A8000331F441F551F661F771F881F991F0A95F4
:103A9000B2F70F91089597FB10F8169400080F9352
:103AA000083098F00850232F342F452F562F672FBA
:103AB000782F892F902DF4CF05949795879577953A
:103AC000679557954795379527950A95AAF70F91CA
:103AD0000895AA1BBB1B51E107C0AA1FBB1FA61755
:103AE000B70710F0A61BB70B881F991F5A95A9F7A7
:103AF00080959095BC01CD010895EE0FFF1F0590B4
:103B0000F491E02D0994A29FB001B39FC001A39F3F
:103B1000700D811D1124911DB29F700D811D112406
:103B2000911D0895CF93DF938230910510F482E0C8
:103B300090E0E091D403F091D50320E030E0C0E0C4
:103B4000D0E0309711F14081518148175907C0F0FA
:103B50004817590761F482819381209719F09B835C
:103B60008A832BC09093D5038093D40326C021155C
:103B7000310519F04217530718F49A01BE01DF010D
:103B8000EF010280F381E02DDCCF2115310509F131
:103B9000281B390B2430310590F412968D919C919D
:103BA00013976115710521F0FB019383828304C093
:103BB0009093D5038093D403FD01329644C0FD0158
:103BC000E20FF31F81939193225031092D933C937F
:103BD0003AC02091D2033091D303232B41F420919A
:103BE0000201309103013093D3032093D20320913B
:103BF0000001309101012115310541F42DB73EB787
:103C00004091040150910501241B350BE091D20332
:103C1000F091D303E217F307A0F42E1B3F0B2817F4
:103C2000390778F0AC014E5F5F4F2417350748F035
:103C30004E0F5F1F5093D3034093D2038193919310
:103C400002C0E0E0F0E0CF01DF91CF9108950F9343
:103C50001F93CF93DF93009709F48CC0FC01329738
:103C6000138212820091D4031091D503011511051E
:103C700081F420813181820F931F2091D2033091F2
:103C8000D3032817390779F5F093D303E093D203D0
:103C900071C0D80140E050E0AE17BF0750F4129653
:103CA0002D913C911397AD012115310509F1D901F1
:103CB000F3CF9D01DA013383228360817181860F06
:103CC000971F8217930769F4EC0128813981260F29
:103CD000371F2E5F3F4F318320838A819B819383DF
:103CE0008283452B29F4F093D503E093D40342C09B
:103CF0001396FC93EE931297ED01499159919E0111
:103D0000240F351FE217F30771F480819181840F2E
:103D1000951F029611969C938E93828193811396A0
:103D20009C938E931297E0E0F0E0D80112968D916B
:103D30009C911397009719F0F8018C01F6CF8D91A3
:103D40009C9198012E5F3F4F820F931F2091D203C9
:103D50003091D3032817390769F4309729F410926A
:103D6000D5031092D40302C0138212821093D3039E
:103D70000093D203DF91CF911F910F91089581E0BD
:103D800090E0F8940C94C41E11E0C2E4D1E004C0A9
:103D9000FE010E947D1D2196C334D107C9F7F89416
:023DA000FFCF53
:103DA2000000D603800000000000D901070C710159
:103DB2002002A201800194010000000002085203C7
:103DC20000000000040856030000000050035003E6
:103DD20050032C032803250300000000E2029E0288
:103DE2009C022C03280399025803000000000308D8
:103DF20054030D0A006C6F616400736176653A20AA
:103E0200004578636565646564206D6178696D75E8
:103E12006D206E756D626572206F662077726974AF
:103E2200657300417474656D707420746F207772CD
:103E3200697465206F757473696465206F662045C7
:0E3E42004550524F4D206D656D6F7279000036
:00000001FF
