:100000000C9443010C946B010C946B010C946B01E8
:100010000C946B010C946B010C946B010C94030613
:100020000C946B010C946B010C946B010C946B01A0
:100030000C946B010C946B010C946B010C946B0190
:100040000C94320C0C946B010C94D1050C94AB0500
:100050000C946B010C946B010C946B010C946B0170
:100060000C946B010C946B0100000000240027002D
:100070002A00000000002300260029000000FF00E5
:10008000000000000055AB000000000000ABAB001A
:100090000000000000FF00000000000055AB000061
:1000A00000000000FF00000000000000AB00550051
:1000B000000000005500AB00000000000000000040
:1000C0000000330000006600000099000000CC0032
:1000D0000000FF000033FF000066FF000099FF00F2
:1000E00000CCFF0000FFFF0033FFFF0066FFFF00B2
:1000F00099FFFF00CCFFFF00FFFFFF00AB005500A2
:100100007C0084004B00B5001B00E5000017E800F0
:100110000047B8000077AB0000ABAB000055AB0068
:100120000022DD000E00F2003E00C20071008F00D0
:10013000A1005F00D0002F00F9070000006400005C
:10014000006400002F6B5500006400000080000078
:10015000228B2200238E6B0000800000578B2E0024
:10016000AACD660032CD320032CD9A0090EE9000DA
:1001700000FC7C00AACD6600228B2200000000005B
:1001800000008000000000000000800000008B00E4
:100190000000800000008B0000008B0000008B003E
:1001A0000000FF0000A5FF00FFFFFF0000A5FF000B
:1001B0000000FF0000008B0000000000FF000000B6
:1001C0008B0000008B0000008B0000008B00000003
:1001D0008B0000008B0000008B000000FF0000007F
:1001E0008B000000EBCE8700EBCE8700E6D8AD0099
:1001F000FFFFFF00E6D8AD00EBCE870070191900B5
:100200008B00000070191900800000008B000000B6
:10021000CD000000578B2E0080800000A09E5F0064
:10022000FF0000008B8B0000ED956400D4FF7F0081
:10023000578B2E00FFFF0000FACE87000000000061
:10024000250028002B000404040404040404020212
:100250000202020203030303030301020408102045
:100260004080010204081020010204081020000050
:100270000008000201000003040700000000000065
:100280000000DA18D91811241FBECFEFD8E0DEBF66
:10029000CDBF11E0A0E0B1E0ECE9FDE302C00590C4
:1002A0000D92AE3AB107D9F723E0AEEAB1E001C052
:1002B0001D92A63DB207E1F711E0C2E4D1E004C00F
:1002C0002197FE010E947A1DC134D107C9F70E940F
:1002D0007C0C0C94C11E0C940000089580E090E00A
:1002E0000895FC01538D448D252F30E0842F90E03C
:1002F000821B930B541710F0CF9608950197089521
:10030000FC01918D828D981761F0828DDF01A80F1D
:10031000B11D5D968C91928D9F5F9F73928F90E03F
:1003200008958FEF9FEF0895FC01918D828D9817AE
:1003300031F0828DE80FF11D858D90E008958FEFEB
:100340009FEF0895FC01918D228D892F90E0805CB4
:100350009F4F821B91098F73992708958FEB91E02E
:100360000E94A20121E0892B09F420E0822F089548
:10037000FC01848DDF01A80FB11DA35ABF4F2C9142
:10038000848D90E001968F739927848FA689B78911
:100390002C93A089B1898C9180648C93938D848DEA
:1003A000981306C00288F389E02D80818F7D8083B9
:1003B0000895EF92FF920F931F93CF93DF93EC0179
:1003C00081E0888F9B8D8C8D981305C0E889F98911
:1003D000808185FD24C0F62E0B8D10E00F5F1F4F2E
:1003E0000F731127E02E8C8DE8120CC00FB607FC9E
:1003F000FACFE889F989808185FFF5CFCE010E9487
:10040000B801F1CF8B8DFE01E80FF11DE35AFF4FCC
:10041000F0820B8FEA89FB898081806207C0EE89B8
:10042000FF896083E889F98980818064808381E025
:1004300090E0DF91CF911F910F91FF90EF90089581
:10044000CF93DF93EC01888D8823C9F0EA89FB897B
:10045000808185FD05C0A889B9898C9186FD0FC072
:100460000FB607FCF5CF808185FFF2CFA889B98947
:100470008C9185FFEDCFCE010E94B801E7CFDF91CF
:10048000CF91089580E090E0892B29F00E94AE0181
:1004900081110C9400000895EF92FF920F931F9327
:1004A000CF93DF93EC019091BA019F5F292F2770C2
:1004B0002093BA0190FF02C090E801C090E021FDB6
:1004C0009064247009F0906220E1290FFE013C96AF
:1004D0007E018FE0E80EF11C00E011E061916623DF
:1004E00031F070E0C8010E94C81C6F5F01C060E07D
:1004F000DF0114976C93322F369F030E30E0311DCD
:100500001124CF010797311103C0EC01188203C0F9
:100510003150EC013883662311F061506C93EE1575
:10052000FF05E1F6DF91CF911F910F91FF90EF90C2
:10053000089580E991E00895559A08950F931F93C7
:10054000CF93DF93CDB7DEB762970FB6F894DEBFD7
:100550000FBECDBF8C01F901DC011C968C917A8312
:1005600069835C834B835E834D8390819D879181FA
:100570009E8792819F87813029F4CE0101960E9447
:100580004C0206C01C861B861A86198618861F8296
:1005900083E0888B1A8A198AD801ED91FC91048432
:1005A000F585E02DBE016F5F7F4FC801099562960A
:1005B0000FB6F894DEBF0FBECDBFDF91CF911F9174
:1005C0000F9108950F931F93CF93DF93CDB7DEB7AD
:1005D00062970FB6F894DEBF0FBECDBF8C01F90154
:1005E000DC011C968C917A8369835C834B835E83E8
:1005F0004D8390819D8791819E8792819F878130D5
:1006000029F4CE0101960E944C0206C01C861B866E
:100610001A86198618861F82188A1A8A198AD8019A
:10062000ED91FC910484F585E02DBE016F5F7F4F55
:10063000C801099562960FB6F894DEBF0FBECDBF14
:10064000DF91CF911F910F91089580E090E0089580
:10065000FC01858596850895CF93DF9300D000D067
:1006600000D0CDB7DEB7AB011C821D821E82DC013B
:10067000ED91FC910190F081E02D19821A821B828C
:100680009E012F5F3F4FBE016C5F7F4F09952696FD
:100690000FB6F894DEBF0FBECDBFDF91CF910895A6
:1006A0000E94BC1E0C94241E0C94241E0C94241E28
:1006B0004F925F926F927F928F92AF92BF92CF9242
:1006C000EF92FF920F931F93CF93DF933C01EB01C7
:1006D0000E940D0CF30127853089621B730B6A3071
:1006E0007105B0F3F894E881F9815BB150628BB188
:1006F0008F7D8BB96A859F81262F291B922F2F838F
:10070000BF844A805B807D85FC84EE847F5FF394A8
:10071000E3943E814885A984CB841181D20120E0F5
:10072000C32F022F322F3181112788943111390FB5
:1007300008F43FEF9195889470FD130F17958894F6
:1007400071FD130F1795889472FD130F17958894F8
:1007500073FD130F1795889474FD130F17958894E4
:1007600075FD130F1795889476FD130F17958894D0
:1007700077FD130F17958894232F7111212F960F52
:10078000122F002C5BB900C017FF8BB930812227D4
:10079000889400C000C0002C8BB931113C0F00C000
:1007A000002C5BB900C016FF8BB908F43FEFC19570
:1007B000889400C000C0002C8BB9F0FC230F00C04F
:1007C000002C5BB900C015FF8BB927958894F1FC0C
:1007D000230F00C000C0002C8BB92795889400C05F
:1007E000002C5BB900C014FF8BB9F2FC230F2795D6
:1007F000889400C000C0002C8BB9F3FC230F00C00C
:10080000002C5BB900C013FF8BB927958894F4FCCA
:10081000230F00C000C0002C8BB92795889400C01E
:10082000002C5BB900C012FF8BB9F5FC230F279594
:10083000889400C000C0002C8BB9F6FC230F00C0C8
:10084000002C5BB900C011FF8BB927958894F7FC89
:10085000230F00C000C0002C8BB92795889400C0DE
:10086000002C5BB900C010FF8BB9132FF110122FB1
:10087000CA0D00C000C0002C8BB900C000C0002C05
:100880005BB900C017FF8BB932812227889400C062
:1008900000C0002C8BB93111340F00C0002C5BB9A3
:1008A00000C016FF8BB908F43FEFEB0DF11D00C03F
:1008B00000C0002C8BB9E0FC230F00C0002C5BB9FA
:1008C00000C015FF8BB927958894E1FC230F00C069
:1008D00000C0002C8BB92795889400C0002C5BB910
:1008E00000C014FF8BB9E2FC230F2795889400C049
:1008F00000C0002C8BB9E3FC230F00C0002C5BB9B7
:1009000000C013FF8BB927958894E4FC230F00C027
:1009100000C0002C8BB92795889400C0002C5BB9CF
:1009200000C012FF8BB9E5FC230F2795889400C007
:1009300000C0002C8BB9E6FC230F00C0002C5BB973
:1009400000C011FF8BB927958894E7FC230F00C0E6
:1009500000C0002C8BB92795889400C0002C5BB98F
:1009600000C010FF8BB9132FE110122F419500C06A
:1009700000C0002C8BB94C0D00C000C05BB900C09A
:1009800017FF8BB931812227889400C000C0002C4A
:100990008BB93111390F00C0002C5BB900C016FFB4
:1009A0008BB908F43FEF9195889400C000C0002CEB
:1009B0008BB970FD230F00C0002C5BB900C015FF80
:1009C0008BB92795889471FD230F00C000C0002CBF
:1009D0008BB92795889400C0002C5BB900C014FF28
:1009E0008BB972FD230F2795889400C000C0002C9E
:1009F0008BB973FD230F00C0002C5BB900C013FF3F
:100A00008BB92795889474FD230F00C000C0002C7B
:100A10008BB92795889400C0002C5BB900C012FFE9
:100A20008BB975FD230F2795889400C000C0002C5A
:100A30008BB976FD230F00C0002C5BB900C011FFFD
:100A40008BB92795889477FD230F00C000C0002C38
:100A50008BB92795889400C0002C5BB900C010FFAB
:100A60008BB9132F7111122F960F00C000C0002CEC
:100A70008BB9119709F086CE20EE31E0D2010E94A9
:100A80001D1DDC01CB01F4E0B695A79597958795E0
:100A9000FA95D1F720E030E0A9016AE9469E040CFE
:100AA000411D569E400D511D1124450D511D840FB1
:100AB000951FA11DB11D893E43E09407A105B10515
:100AC00008F434C0885E9340A109B10942E0B695AC
:100AD000A795979587954A95D1F747E0849F080E8B
:100AE000211D949F200D311D1124290F311D60916E
:100AF000B90170E0860F971F820F931F4091BB01D1
:100B00005091BC016091BD017091BE01292F332726
:100B1000420F531F611D711D4093BB015093BC01D7
:100B20006093BD017093BE018093B90178940E94D7
:100B30000D0CF301708B6787DF91CF911F910F919F
:100B4000FF90EF90CF90BF90AF908F907F906F907D
:100B50005F904F9008951F920F920FB60F9211243D
:100B60002F933F934F935F936F937F938F939F93B5
:100B7000AF93BF93EF93FF938FEB91E00E94B80187
:100B8000FF91EF91BF91AF919F918F917F916F9165
:100B90005F914F913F912F910F900FBE0F901F903B
:100BA00018951F920F920FB60F9211242F938F93C7
:100BB0009F93EF93FF93E091CF01F091D00180815B
:100BC000E091D501F091D60182FD12C09081809113
:100BD000D8018F5F8F732091D901821751F0E09176
:100BE000D801F0E0E154FE4F958F8093D80101C009
:100BF0008081FF91EF919F918F912F910F900FBE68
:100C00000F901F9018951F920F920FB60F921124FC
:100C10002F933F934F935F936F937F938F939F9304
:100C2000AF93BF93CF93DF93EF93FF9320916C0229
:100C300030E0F901E259FD4F8491F901E65AFD4F88
:100C4000D491F901EA5BFD4FC491CC23A1F081114D
:100C50000E94B40BEC2FF0E0EE0FFF1FEE58FF4F99
:100C6000A591B491EC91ED2331E020E009F430E05E
:100C7000832F922F02C080E090E02091700230918B
:100C800071022F5F3F4F30937102209370022091C9
:100C90006F02253618F026E020936B0220916B023C
:100CA0002430D9F128F4223069F02330D9F060C023
:100CB000253009F453C0263009F05AC021E02093B2
:100CC0003C0353C0009709F053C02091700230914B
:100CD00071022436310508F443C010923C0310928F
:100CE0006F021DC08130910509F042C0E0916F0292
:100CF00021E02E0F20936F02F0E0209170023091DE
:100D00007102EE0FFF1FE559FD4F308727831092C8
:100D100071021092700224E029C00097B9F4E091AA
:100D20006F0221E02E0F20936F02F0E020917002FD
:100D300030917102EE0FFF1FE559FD4F3087278379
:100D4000109271021092700223E010C02091700284
:100D5000309171022536310558F007C0009741F4F3
:100D6000109271021092700203C025E020936B0272
:100D700020916E022223B9F0892B51F480916D02EB
:100D8000882321F080916D0261E009C02D9A0BC08B
:100D900080916D02882331F080916D0260E00E94A5
:100DA000DD0B01C02D98FF91EF91DF91CF91BF91A5
:100DB000AF919F918F917F916F915F914F913F91F3
:100DC0002F910F900FBE0F901F901895CF92DF922A
:100DD000EF92FF92CF93DF93EC01072E000C880B6C
:100DE000990B0E949B1B6B017C0120E030E040E4EA
:100DF0005FE30E944B1C20E030E048E452E40E9494
:100E0000F11A0E94631BC617D707D4F020E030E028
:100E100040EA5FE3C701B6010E944B1C20E030E0CE
:100E200048E452E40E94F11A20E030E040E85FE339
:100E30000E94801A0E94631B21E06C177D070CF44E
:100E400020E0822F90E0DF91CF91FF90EF90DF9034
:100E5000CF900895DC01FB014C9111965C911197A4
:100E600012967C91342F3F71330F330F832F880FED
:100E700035E5282F239F020E20E0211D1124642F29
:100E80006074942F907247FD21C061110BC09111C5
:100E900004C0822F8095422F11C045E5420F30E0FB
:100EA0002BEA33C091110DC0382F4AEA349F030E4C
:100EB00030E0311D11248BEA831B420F282F30E0D4
:100EC00024C080E0422F4095322F0EC0611111C026
:100ED00091110CC0382F2AEA329F030E30E0311DE9
:100EE00011244BEA431B3B5A20E00FC0322F3095B0
:100EF0000BC0911104C085E5820F3BEA03C08AEA6A
:100F0000820F90E0321B282F40E05F3F11F1552304
:100F1000E9F0222321F0259F020E20E0211D442329
:100F200021F0459F040E40E0411D332321F0359F01
:100F3000030E30E0311D11245095559F050E50E0F1
:100F4000511D1124250F450F350F03C03FEF4FEF03
:100F50002FEF7F3F09F420C050E0772321F0779FE7
:100F6000512D09F05F5F5523A1F0222321F0259F29
:100F7000020E20E0211D442321F0459F040E40E095
:100F8000411D332321F0359F030E30E0311D112424
:100F900003C030E040E020E02083418332830895A5
:100FA000BC018230910508F40895613E8EE1780716
:100FB00048F49B0195E0369527959A95E1F748E02E
:100FC000420F01C04FEF91E0242F30E0290F311D77
:100FD00035952795229FF001239FF00DF00D1124E8
:100FE0006E177F0718F44FEF420F05C02F3F3105F2
:100FF00039F091E0920F491738F78FEF890F089574
:101000008FEF0895089508950895CF93DF93EB012E
:10101000DC01129620E030E0FE01E20FF31F459163
:10102000559165917491FD0132976083319650839B
:101030004C932C5F3F4F13962034310569F7DF91B5
:10104000CF910895282F209527FF06C0229F020EDA
:1010500020E0211D112403C08195282F2695822F81
:1010600080950895EF92FF920F931F93CF93DF9394
:1010700000D01F92CDB7DEB77C0169838FEF8B83E1
:1010800080EF8A8300E010E0B701600F711FCE018E
:1010900001960E942A079981965F99830D5F1F4FE1
:1010A0000834110589F70F900F900F90DF91CF91C1
:1010B0001F910F91FF90EF9008953F924F925F9292
:1010C0006F927F928F929F92AF92BF92CF92DF9258
:1010D000EF92FF920F931F93CF93DF9300D01F9255
:1010E000CDB7DEB7F82E8091610290916202A09197
:1010F0006302B0916402892B8A2B8B2BE9F00E944A
:101100000D0C00919C0310919D0320919E03309142
:101110009F03DC01CB01801B910BA20BB30B009151
:101120006102109162022091630230916402801783
:101130009107A207B307B8F20E940D0C60939C03BD
:1011400070939D0380939E0390939F03E0916902A7
:10115000F0916A02309759F0409165025091660211
:1011600060916702709168028F2D0995F82E0091A9
:10117000BB031091BC034F2C512C612C712C011519
:10118000110509F461C0D8011C96EC901C97809160
:101190005F02909160028436910510F41C961C92B7
:1011A000D801ED91FC91A280B38019821A821B8232
:1011B000F11014C0F80145855685628173819E0146
:1011C0002F5F3F4FC801F5010995D8011C96EC929D
:1011D0001C9714960D911C911597D1CFF801399653
:1011E000CE0101966C0148019CE0890E911CDF0143
:1011F00013973C902191332001F12223F1F0822FAB
:1012000090E0A0E0B0E09C01AD012F5F3F4F4F4F59
:101210005F4FC301B2010E94B81C9B01AC01832D3A
:1012200090E0A0E0B0E0BC01CD016F5F7F4F8F4F39
:101230009F4F0E94B81CD6018C93BFEFCB1ADB0ADC
:10124000E815F905A1F6B6CF80919A0390919B031A
:101250009C012F5F3F4F30939B0320939A03499744
:101260000CF447C08FB7F8940091BB011091BC01FA
:101270002091BD013091BE018FBFE0919A03F091A2
:101280009B0388EE93E0E89FB001E99F700DF89F03
:10129000700D1124072E000C880B990BC09096033B
:1012A000D0909703E0909803F0909903A9019801DA
:1012B0002C193D094E095F090E94DC1C3093600225
:1012C00020935F0210929B0310929A032FB7F89419
:1012D0008091BB019091BC01A091BD01B091BE0174
:1012E0002FBF8093960390939703A0939803B09396
:1012F00099030F900F900F90DF91CF911F910F9155
:10130000FF90EF90DF90CF90BF90AF909F908F9025
:101310007F906F905F904F903F900895009769F095
:10132000FC0101900020E9F73197AF01481B590BF0
:10133000BC018FEB91E00C94530A80E090E008959B
:10134000CF93DF930E948E09EC0182E591E00E9429
:101350008E098C0F9D1FDF91CF91089520919403EA
:10136000309195032F5F3F4F309395032093940363
:1013700040915C0250915D024115510519F04217F0
:1013800053071CF481E691E005C08130924034F0AF
:1013900083E891E00E94A00980E0089581E008952B
:1013A0009C012F5F3F4F2130324014F40C94691A96
:1013B00083E891E00E94A00980E00895EF92FF92F7
:1013C0001F93CF93DF93EC01162F7C018FEFE81A68
:1013D000F80AC7010E94AE09811103C020E030E085
:1013E00012C0CE010E94D009811791F0C7010E945E
:1013F000AE09882321F0612FCE010E94711A91E07D
:1014000080E0292F382F81E0232B21F480E002C0D7
:1014100090E0F6CFDF91CF911F91FF90EF9008956C
:10142000CF93DF9380934303E0914603F09147030A
:10143000329680E090E0A0914403B0914503A80F5C
:10144000B91FEF01229728812C93219628811196AC
:101450002C931197208112962C93039633968834FF
:10146000910549F7DF91CF910895CF93DF93EC0178
:1014700080E00E94100A2091460330914703F90151
:101480003296265B3F4F8881DF0112978C938981CA
:1014900011968C938A8180833396E217F30799F72C
:1014A000DF91CF910895CF92DF92EF92FF920F9349
:1014B0001F93CF93DF936C017A018B01C0E0D0E0E2
:1014C000CE15DF0589F0D8016D918D01D601ED9122
:1014D000FC910190F081E02DC6010995892B11F452
:1014E0007E0102C02196ECCFC701DF91CF911F9101
:1014F0000F91FF90EF90DF90CF9008950F931F937F
:10150000CF93DF938C0180E00E94100AE0914603A4
:10151000F09147039F012F5F3F4FDF011296AF010C
:10152000475B5F4FE8018A818F3F41F49C91692FAF
:1015300070E06630710514F095509C93E801888145
:101540008F3F41F49081692F70E06630710514F08F
:1015500095509083E8018981803849F4E9019881A8
:10156000692F70E06630710514F0955098832D5FF7
:101570003F4F3396139624173507A1F6DF91CF918D
:101580001F910F910895CF93DF93EC0180E00E94AB
:10159000100AE0914603F09147039F012E5F3F4FF1
:1015A000AF01485B5F4FD9019C918A818F3F39F42D
:1015B000692F70E06A3F710514F49B5F9C938881EA
:1015C0008F3F41F49081692F70E06A3F710514F4F8
:1015D0009B5F90838981803849F4D9019E91692F5E
:1015E00070E06A3F710514F49B5F9C932D5F3F4F41
:1015F0003396E417F507B9F6DF91CF9108958F92EE
:101600009F92AF92BF920F931F93CF93DF93CDB76B
:10161000DEB7A1970FB6F894DEBF0FBECDBF19A2FB
:10162000423008F44AE08E010F5D1F4F842E912C4A
:10163000A12CB12CA50194010E94DC1CE62FB9015C
:10164000CA0101501109EA3014F4E05D01C0E95CFF
:10165000D801EC93232B242B252B61F7C8010E9482
:101660008E09A1960FB6F894DEBF0FBECDBFDF91F5
:10167000CF911F910F91BF90AF909F908F90089541
:101680008F929F92AF92BF92CF92DF92EF92FF9292
:101690000F931F93CF93DF93FC01C081D1812091E1
:1016A000C9033091CA03C217D3070CF04BC09E0187
:1016B000220F331FE091C703F091C803E20FF31F1D
:1016C00080809180C170DD27F1E0CF27209719F449
:1016D00004E610E002C00CE91FEF7A015B016C0127
:1016E000040F151FB801C4010E94E606892B99F466
:1016F0000E0D1F1DB801C4010E94E606892B71F46E
:10170000B8016E0D7F1DC4010E94E606892BE9F029
:1017100023E030E005C021E030E002C022E030E00C
:10172000F501808191810196821793073CF0F501C4
:1017300011821082F60180819181019691838083CC
:10174000CE0105C081E090E002C08FEF9FEFDF91F6
:10175000CF911F910F91FF90EF90DF90CF90BF90AE
:10176000AF909F908F900895833081F028F481305E
:1017700099F08230A1F008958730A9F08830B9F04F
:101780008430D1F4809180008F7D03C080918000EF
:101790008F7780938000089584B58F7702C084B5D9
:1017A0008F7D84BD08958091B0008F7703C08091B4
:1017B000B0008F7D8093B00008951F93CF93DF9387
:1017C000282F30E0F901E259FD4F8491F901E65AE2
:1017D000FD4FD491F901EA5BFD4FC491CC23C9F0D0
:1017E000162F81110E94B40BEC2FF0E0EE0FFF1FBB
:1017F000E45CFD4FA591B4918FB7F894111105C029
:101800009C91ED2FE095E92302C0EC91ED2BEC9338
:101810008FBFDF91CF911F9108953FB7F8948091CA
:10182000CE039091CF03A091D003B091D10326B500
:10183000A89B05C02F3F19F00196A11DB11D3FBF08
:10184000BA2FA92F982F8827820F911DA11DB11D96
:10185000BC01CD0142E0660F771F881F991F4A9592
:10186000D1F708951F920F920FB60F9211242F9364
:101870003F938F939F93AF93BF938091BB019091C0
:10188000BC01A091BD01B091BE013091CD0323E018
:10189000230F2D3720F40196A11DB11D05C026E8A8
:1018A000230F0296A11DB11D2093CD038093BB0190
:1018B0009093BC01A093BD01B093BE018091CE0373
:1018C0009091CF03A091D003B091D1030196A11DB7
:1018D000B11D8093CE039093CF03A093D003B09318
:1018E000D103BF91AF919F918F913F912F910F9015
:1018F0000FBE0F901F901895CF93DF93CDB7DEB733
:1019000027970FB6F894DEBF0FBECDBF789484B58D
:10191000826084BD84B5816084BD85B5826085BDEB
:1019200085B5816085BD80916E00816080936E0079
:10193000109281008091810082608093810080916B
:10194000810081608093810080918000816080931C
:1019500080008091B10084608093B1008091B000DC
:1019600081608093B00080917A00846080937A00D7
:1019700080917A00826080937A0080917A00816001
:1019800080937A0080917A00806880937A00109228
:10199000C1001092B5011092B6011092B7011092D9
:1019A000B80180915E020E945D08E091CF01F09144
:1019B000D00182E08083E091CB01F091CC011082D4
:1019C000E091CD01F091CE019FEC90831092D70170
:1019D000E091D301F091D40196E09083E091D101A0
:1019E000F091D201908190619083E091D101F091CA
:1019F000D201908198609083E091D101F091D20161
:101A0000908190689083E091D101F091D201908112
:101A10009F7D9083F8948093B0008093B10094E60A
:101A20009093B3001092B2008093700078948093EA
:101A30006B0210926F0280916C0290E0FC01E65AFA
:101A4000FD4F2491FC01EA5BFD4F84918823C9F08E
:101A500090E0880F991FFC01E859FF4F4591549180
:101A6000FC01E45CFD4FA591B4919FB7F894FA0195
:101A700080812095822380838C91E22FE823EC9350
:101A80009FBF82E792E09093C8038093C703809141
:101A90006F0290E09093CA038093C90380913C0346
:101AA00090E09093CC038093CB0380916B028530C0
:101AB00009F0F7C2809174029091750288589109DB
:101AC0008D35910588F480916F02843041F48091C6
:101AD0007602909177028097479708F46DC38091C2
:101AE0006F02843408F04FC380916F028A3108F48A
:101AF00054C08091720290917302843F914080F4AF
:101B00001092C6031092C5038FEF9FEFDC01809304
:101B1000C1039093C203A093C303B093C4035BC0FB
:101B2000809174029091750285974B97B0F5E8E724
:101B3000F2E082E090E040E050E0BA018C010F5FFB
:101B40001F4F20916F0230E0021713076CF49F01C2
:101B500022503109D9012D913C912750310927306C
:101B6000310508F470C3C801019795958795909346
:101B7000C6038093C5030C972CF41092C6031092F1
:101B8000C5030BC04093C1035093C2036093C303CA
:101B90007093C40384E090E030C480916F028A3176
:101BA00008F44DC08091720290917302803293408C
:101BB00008F4A6CF8091740290917502C69786971B
:101BC00008F45DC33CC04093C1035093C2036093CB
:101BD000C3037093C4038BE090E00FC42081318174
:101BE000255231092B31310508F059C3440F551FD7
:101BF000661F771F4160029634968C010F5F1F4F5E
:101C000020916F0230E00217130764F49F01225005
:101C10003109D9012D913C912C5031092B303105DE
:101C2000E8F2C8010197959587959093C603809334
:101C3000C5030C9744F61092C6031092C503809119
:101C40006F02823208F44DC0809174029091750247
:101C50000697079708F045C0E8E7F2E082E090E0D9
:101C6000C12CD12C76019C012F5F3F4F40916F0218
:101C700050E024173507E4F4DF0112974D915C9191
:101C800011974E5151094731510508F015C3CC0C3D
:101C9000DD1CEE1CFF1C6894C0F840815181349615
:101CA000435051094530510510F40296DCCFC9016B
:101CB0000197959587959093C6038093C5034097A8
:101CC0002CF41092C6031092C5030BC0C092C1033E
:101CD000D092C203E092C303F092C4038CE090E080
:101CE0008CC31D821C8281E090E09A83898380915D
:101CF0006F028D3008F46BC049E753E0BE016C5FA2
:101D00007F4FCE0101960E94400B892B09F05FC0E6
:101D100049E753E0BE016C5F7F4FCE0101960E9400
:101D2000400B019709F053C049E753E0BE016C5FD7
:101D30007F4FCE0101960E94400B892B09F047C0CE
:101D4000812C912C540100E010E080916F0290E012
:101D500029813A81281739075CF549E753E0BE012C
:101D60006C5F7F4FCE0101960E94400B7C0149E7DA
:101D700053E0BE016C5F7F4FCE0101960E94400B85
:101D8000B1E0EB16F10449F4892B09F5880C991C94
:101D9000AA1CBB1C689480F808C0EF28C1F4019706
:101DA000B1F4880C991CAA1CBB1C0F5F1F4FCDCF30
:101DB0001093C6030093C5038092C1039092C2039F
:101DC000A092C303B092C40381E090E016C31D82C9
:101DD0001C8281E090E09A8389838091C90390916D
:101DE000CA03181619060CF058C0E091C703F09109
:101DF000C80382E090E09A838983828193818997E6
:101E00004E9708F04AC083E090E09A8389838481EA
:101E100095810B970A9708F040C04CEB51E0BE014A
:101E20006C5F7F4FCE0101960E94400B892BA9F574
:101E30004CEB51E0BE016C5F7F4FCE0101960E94DA
:101E4000400B019751F5812C912C540100E010E0DA
:101E500029813A818091C9039091CA0328173907D3
:101E60000CF06DC24CEB51E0BE016C5F7F4FCE01B8
:101E700001960E94400B6C010330110509F029C244
:101E80004CEB51E0BE016C5F7F4FCE0101960E948A
:101E9000400BC816D90609F41CC2E091C703F091A3
:101EA000C80382819381C697869708F064C28481B3
:101EB00095814B97459708F05EC2DF0116967F012A
:101EC00026ECE20EF11C20E030E040E050E060E063
:101ED00070E080E090E00D911C911197095011097C
:101EE0000830110508F047C212960D911C91139706
:101EF000015111090D30110508F030C201E00E94B6
:101F00002F1D21601496AE15BF0529F72093C1033C
:101F10003093C2034093C3035093C40300E20E9472
:101F20004A1D2093BF033093C00385E090E0909357
:101F3000BE038093BD0380E390E09093C60380933B
:101F4000C503C090C103D090C203E090C303F090DA
:101F5000C403BFEFCB16DB06EB06FB0609F040C05F
:101F6000C090B501D090B601E090B701F090B801F3
:101F7000FDEFCF16F2E0DF06FFEFEF06F10409F404
:101F800041C22FE9C21620E6D2062FEFE206F10485
:101F900009F438C20E940D0C2B013C0178EC872E0D
:101FA000912CA12CB12C0E940D0CDC01CB018419C9
:101FB0009509A609B709883E9340A105B10558F0D7
:101FC00031E0831A9108A108B10848EE440E43E0BD
:101FD000541E611C711C81149104A104B10419F7F1
:101FE000C092B501D092B601E092B701F092B8016B
:101FF0006091C1037091C2038091C3039091C403A7
:1020000040E10E94FF0A82E591E00E948E0940E1D2
:10201000C701B6010E94FF0A82E591E00E948E0985
:10202000FFE9CF16F0E6DF06FFEFEF06F10409F453
:1020300044C40CF071C23DEDC31632E2D3063FEF4B
:10204000E306F10409F409C40CF010C28FEEC816BF
:1020500080E1D8068FEFE806F10409F415C40CF00E
:10206000D8C1A7EFCA16A8E0DA06AFEFEA06F10476
:1020700009F4C4C3B5EFCB16BAE0DB06BFEFEB063D
:10208000F10409F4B0C3EDEFCE16E2E0DE06EFEFA7
:10209000EE06F10409F413C382E080936B02109200
:1020A0006F0280916B02823029F080916B02853043
:1020B00009F066C0209046033090470380914303A7
:1020C000813009F060C5812C912C5BEAA52EE0914E
:1020D0004403F0914503E80DF91D1081F180028160
:1020E000EF2C1F1508F4E12E0E1508F4E02E1E1932
:1020F000FE180E19BE2CB094EFEFBE1639F080E03A
:102100009FEF9B190E94D007B82EB0948F2D90E0BE
:10211000810F911D800F911D892B09F02BC419820D
:102120001A82B094BB828091B3019091B4018F3F29
:10213000910518F09EEF981B892F0E9422088B832F
:10214000B101680D791DCE0101960E942A0743E076
:10215000840E911C88E48816910409F0B8CF809110
:10216000B3019091B4018E3FA1E09A0708F405C530
:102170001092B4011092B30180915E020E945D083A
:102180000E9442027ECC8091760290917702825426
:1021900091098E9708F0A8CC80E090E040E050E0F4
:1021A000BA01FC01E858FD4F2081318129503109E5
:1021B00029303105C8F098CC80917802909179024D
:1021C0000997099708F08BCC1092C6031092C503AB
:1021D0008FEF9FEFDC018093C1039093C203A09324
:1021E000C303B093C403EAC4FC01E658FD4F208149
:1021F00031812751310922313105C0F4440F551F77
:10220000661F771F416004968038910551F680E281
:1022100090E09093C6038093C5034093C10350930D
:10222000C2036093C3037093C403C8C42081318187
:10223000265031092730310508F056CC440F551F80
:10224000661F771FE0CF20813181235131092F3064
:10225000310540F4440F551F661F771F41600296F9
:1022600034966CCC208131812A50310929303105D6
:1022700008F093CC440F551F661F771FF0CF809155
:10228000760290917702C697869708F0D8CCEAE755
:10229000F2E083E090E040E050E0BA01AECC208173
:1022A00031812C5031092A30310508F0C8CC440F57
:1022B000551F661F771F9FCC4D915C914C50510963
:1022C0004B30510508F00DCDCC0CDD1CEE1CFF1C75
:1022D000E4CC4CEB51E0BE016C5F7F4FCE01019628
:1022E0000E94400B7C010330110569F44CEB51E076
:1022F000BE016C5F7F4FCE0101960E94400BE81635
:10230000F90609F0CACDC114D10459F4EA94EF28B2
:1023100009F0C3CD880C991CAA1CBB1C689480F8DA
:102320000BC0CA94CD2809F0B8CDEF2809F0B5CD7F
:10233000880C991CAA1CBB1C0F5F1F4F89CD1093E2
:10234000C6030093C5038092C1039092C203A0927A
:10235000C303B092C40382E090E04FC012960D9187
:102360001C911397045011090530110520F401E068
:102370000E942F1DC7CD80916F02893340F082816A
:102380009381895791098335910508F429C5809176
:102390006F02823209F415C48281938189579109B1
:1023A0008335910508F49AC5828193818C549109F3
:1023B000C59708F012C480916F02843009F008C4F8
:1023C000848195818097479708F002C48681978120
:1023D0000997099708F0FCC31092C6031092C50331
:1023E0008FEF9FEFDC018093C1039093C203A09312
:1023F000C303B093C40387E090E09093BE0380933F
:10240000BD039FCDCC24CA94DC2CEFE0EE2EF12C42
:10241000C1CDF7EECF16F8E1DF06FFEFEF06F104CE
:1024200009F4E8C17CF43DEEC31632E1D3063FEF78
:10243000E306F10409F030CE8FEF898384EE8A83BE
:1024400084ECD6C145EEC4164AE1D4064FEFE4064B
:10245000F10409F4BBC18FEDC81680E2D8068FEFF6
:10246000E806F10409F018CE81E024C29DECC916FB
:1024700092E3D9069FEFE906F10409F4F2C1FCF4F6
:10248000B5EDCB16BAE2DB06BFEFEB06F10409F4BB
:10249000A6C1EFECCE16E0E3DE06EFEFEE06F104A8
:1024A00009F4EBC1F7EDCF16F8E2DF06FFEFEF0618
:1024B000F10409F0F1CD8FEF89831A82B2C125ECC6
:1024C000C2162AE3D2062FEFE206F10409F4E7C0B0
:1024D0006CF447ECC41648E3D4064FEFE406F1046D
:1024E00009F0DACD8FEF898385EA86C187EBC816BC
:1024F00088E4D8068FEFE806F10409F4A9C197EA49
:10250000C91698E5D9069FEFE906F10409F0C4CD94
:102510008FEF89831A826CC1AFE5CA16A0EADA068A
:10252000AFEFEA06F10409F4C4C10CF055C0E7E7C7
:10253000CE16E8E8DE06EFEFEE06F10409F477C107
:1025400004F527E8C21628E7D2062FEFE206F104C9
:1025500009F479C13DE7C31632E8D3063FEFE3063D
:10256000F10409F4FAC047E9C41648E6D4064FEF6F
:10257000E406F10409F090CD19821A828FEF8B8363
:1025800051C18DE6C81682E9D8068FEFE806F1043E
:1025900009F456C164F4A5E7CA16AAE8DA06AFEF53
:1025A000EA06F10409F078CD19828BE858C1B7E644
:1025B000CB16B8E9DB06BFEFEB06F10409F428C13E
:1025C000E5E6CE16EAE9DE06EFEFEE06F10409F0E5
:1025D00063CD198280E810C1F7E4CF16F8EBDF066F
:1025E000FFEFEF06F10409F411C174F537E5C316E6
:1025F00038EAD3063FEFE306F10409F40FC16CF4A7
:102600008DE5C81682EAD8068FEFE806F10409F0D6
:1026100043CD19821A828FEFEBC095E5C9169AEA6D
:10262000D9069FEFE906F10409F4ECC0ADE4CA163F
:10263000A2EBDA06AFEFEA06F10409F02DCD89E14D
:1026400089838A8380E7D4C0B7E2CB16B8EDDB0676
:10265000BFEFEB06F10409F40AC14CF4F5E4CF1620
:10266000FAEBDF06FFEFEF06F10401F115CD2FE1E4
:10267000C21620EED2062FEFE206F10409F44FC194
:1026800037E0C31638EFD3063FEFE306F10409F055
:1026900003CD8DEA898388ED8A8386EEA9C0809177
:1026A0005E028F3F09F4F8CC8B5F06C080915E021A
:1026B000882309F4F1CC855080935E02EDCC80E054
:1026C0000E94100A80919003E0914603F091470325
:1026D000882309F110929003329680E090E0DF01A8
:1026E00012972C91AC01435C5C4FDA011B962C9342
:1026F0009F0121503109D9012C91DA011C962C93AC
:102700001C9720811D962C9303963396883491054F
:1027100031F719825DC081E080939003329680E0AA
:1027200090E0BC01635C7C4FDB011B964C919F01E8
:1027300022503109D9014C93DB011C964C912F5F3B
:102740003F4FD9014C93DB011D962C9120830396BA
:1027500033968834910529F79FCC80E00E94100AB7
:1027600080914603909147030E94241E88E490E0E4
:102770000E948F1D6C0185E591E00E94A009760101
:10278000B2E0EB0EF11C04E610E05801C8010E9413
:10279000D009F70132978083C80101960E94D009C1
:1027A000F701319780830D5F1F4FC50102960E948C
:1027B000D009F7018083F3E0EF0EF11C0C3A11050C
:1027C00021F7D0924703C092460366CC8FEF8983EE
:1027D0001A821B82CE0101960E94350A5DCC8DECD7
:1027E00089838CE53CC08CED898384E18A838CE30A
:1027F0008B83F0CF8FEF89838A83EBCF8FEF898331
:102800001A8218C08CE789838CEFF6CF80E8F3CF6B
:102810008EE289838BE88A8387E5EACF198280E894
:102820008A831B82CE0101960E94C30A35CC19828D
:1028300080E88A831B82CE0101960E947E0A2CCCFE
:1028400019828FEF0CC084E989831A8283EDD0CF7F
:1028500019821A828FEF8B83EECF8FEF89838A8361
:10286000C7CF80EF898386EE8A838CE8C1CF87E764
:10287000898388E88A8389E9BBCF0091AE011091F2
:10288000AF01065F1F4F06C00091AE011091AF016E
:102890000A5011091093AF010093AE0180E00E942D
:1028A000100A602F80914603909147030E943208DE
:1028B000F3CB82E00E94100AEFCB80E00E94100A66
:1028C00080E090E03091B001E0919103F0919203AB
:1028D00020E3329FE00DF11D1124282F22952F7047
:1028E000422F440F240FE20FF11D508141812281BC
:1028F000E0914603F0914703E80FF91F50834183AD
:102900002283039688349105E9F6373010F010924F
:10291000B0018091B0018F5F8093B001BDCB009179
:102920004603109147038AE591E00E94A0090E5FDB
:102930001F4F64E6E62EF12C6701F80132976081A3
:10294000C7010E94DE09F80131976081C701019635
:102950000E94DE0933E0E30EF11CD8016C91C60140
:1029600002960E94DE090D5F1F4FBCEAEB16F104D0
:1029700019F792CBFFEFBF16F9F0B11002C0BB24DC
:10298000B3944B2C512C612C712C6FEF7FEF80E0B6
:1029900090E0A30192010E94FE1CA12FB0E00E94D2
:1029A000241D172FAF2DB0E00E94241DF72EA02F5D
:1029B000B0E00E94241D072FCF2CD12CC10ED11CBA
:1029C000C00ED11C2FEFC216D1040CF5C114D104D6
:1029D00019F4CC24C394D12C2601612C712C6FEFF7
:1029E0007FEF80E090E0A30192010E94FE1CA12FE6
:1029F000B0E00E94241D172FAF2DB0E00E94241DCF
:102A0000F72EA02FB0E00E94241D072F05C03FEF36
:102A1000C316D10409F06CF44E2D2C2D420F08F48E
:102A20004FEF942F4F3F31F080E00E94D007982F56
:102A300001C09FEF2F2DF11608F4212F201708F465
:102A4000202F21132FC0F1100DC0722F30E8731BFF
:102A500008F470E040E6749F070E70E0711D1124C9
:102A6000705386C04F2D50E0622F70E0641B750BD1
:102A70004617570744F47F2D20E6729F070E70E03B
:102A8000711D112475C076E57F0D721B34E0731B38
:102A900008F470E040E6749F070E70E0711D112489
:102AA000705E66C02F1138C0011119C03A2D311B5C
:102AB00008F430E04FE2349F030E30E0311D112462
:102AC000722F2A2D721B08F470E040E6749F070EE7
:102AD00070E0711D1124730F7695705C49C0402F12
:102AE00050E030E0241B350B702F4217530744F49D
:102AF00020E6729F070E70E0711D1124705A38C0D5
:102B000035E5731B08F470E040E3749F070E70E036
:102B1000711D112470582CC011110DC0702F20E8A8
:102B2000721B08F470E030E3739F070E70E0711DB4
:102B3000112478571DC0412F50E0202F30E0241B76
:102B4000350B712F4217530744F440E6749F070E6C
:102B500070E0711D112470560BC025E5721B08F43E
:102B600070E030E6739F070E70E0711D1124705401
:102B70007F5F7983BA829B83D6CA01969093B40112
:102B80008093B301F9CA823009F0F6CA0091B1010D
:102B90001091B201602FC1010E9432080F3F110550
:102BA00031F028F01092B2011092B101E5CA0F5F26
:102BB0001F4F1093B2010093B101DECA83E090E091
:102BC0001CCC828193810A97099708F468C1E4CBF1
:102BD00080916F02843408F0E6C180916F028634E0
:102BE00060F1828193810C970B9708F42CC225C069
:102BF000D90112966D917C9113976E5171096731CD
:102C0000710508F058C2D701C601880F991FAA1F85
:102C1000BB1F6C017D016894C0F84E5F5F4F2C5F55
:102C20003F4F4534510509F429C2D9016D917C917A
:102C30006C5071096B307105D8F280916F02883544
:102C400080F182819381855891098B35910508F433
:102C500042C227C0BC016F5F7F4FD8014D915C918C
:102C60001197475051094730510508F043C2220FD0
:102C7000331F216002960C5F1F4F40916F0250E09E
:102C800044505109841795070CF03CC2A8014250EA
:102C90005109DA014D915C91495051094830510573
:102CA000C8F280916F028032E1F4828193810697AD
:102CB0000697B8F4848195810997099790F49F014C
:102CC0002A5F3F4FBF01625C7F4FC12CD12C760140
:102CD000D9014D915C91465051094630510508F497
:102CE0002DC22091C9033091CA033F832E83263021
:102CF00031050CF4D1C98F010A5F1F4FB3E02B2EB1
:102D0000312C85ECC82E8DE9D82E8CE1E82E81E897
:102D1000F82ED8016D917C91F8013497A080B18094
:102D200080E090E00E94991B2B013C01B50180E0FE
:102D300090E00E94991B4B015C012DEC3CEC4CE4B3
:102D40005FE30E944B1C9B01AC01C301B2010E94D6
:102D5000EC1A87FD17C02DEC3CEC4CE45FE3C3019B
:102D6000B2010E944B1C9B01AC01C501B4010E9441
:102D7000EC1AE82F880FFF0BEE27FF0FEE1FFF273F
:102D8000319602C0E0E0F0E0A701960163E971E04E
:102D900080E091E00E94B81C6F01FF0FEE08FF0871
:102DA000C626D726E826F926BFEF2B1A3B0A0E5F68
:102DB0001F4FEE81FF812E163F0609F0AACFC09269
:102DC000C103D092C203E092C303F092C40380E235
:102DD00090E09093C6038093C5038FEF9FEF0DCBD8
:102DE00084819581CA97899708F0D1CA9F012A5F8B
:102DF0003F4FC12CD12C760143E050E0D9016D91B9
:102E00007C916A5071096930710508F0C0CAD90116
:102E100012966D917C91139766517109613171051C
:102E200070F5D701C601880F991FAA1FBB1F6C013F
:102E30007D016894C0F84E5F5F4F2C5F3F4F4B336E
:102E40005105E1F69F012A583F4FD9012D913C9140
:102E50002A5031092930310508F099CA2CE130E0B7
:102E60003093C6032093C503C092C103D092C2031E
:102E7000E092C303F092C4038AE090E0BECAD90195
:102E800012966D917C9113976650710967307105A8
:102E900008F07DCACC0CDD1CEE1CFF1CCCCF2091B1
:102EA0006F02CF01820F911D820F911DDC011297DD
:102EB0008D919C910A97099708F06ECA1092C603EB
:102EC0001092C5038FEF9FEFDC018093C1039093B5
:102ED000C203A093C303B093C40362C080916F0286
:102EE000813208F461CA84819581CA97899708F074
:102EF0005BCA9F012A5F3F4FC12CD12C760143E072
:102F000050E0D9016D917C916A5071096930710569
:102F100008F04ACAD90112966D917C9113976651B7
:102F200071096131710560F5D701C601880F991FDC
:102F3000AA1FBB1F6C017D016894C0F84E5F5F4FF4
:102F40002C5F3F4F43325105E1F69F012A5B3F4F13
:102F5000D9012D913C912A5031092930310508F0D1
:102F600023CA20E130E03093C6032093C503C0920A
:102F7000C103D092C203E092C303F092C40310C015
:102F8000D90112966D917C91139766507109673043
:102F9000710508F009CACC0CDD1CEE1CFF1CCECF5D
:102FA00086E090E02ACA8481958189549109C3976B
:102FB00008F013CE9F012A5F3F4FBF016A577F4F32
:102FC000C12CD12C7601D9014D915C914950510908
:102FD0004930510508F001CED90112964D915C910E
:102FE0001397465151094131510510F112964D91F7
:102FF0005C911397465051094730510508F0EDCDCB
:10300000CC0CDD1CEE1CFF1C2C5F3F4F2617370736
:10301000D1F620E230E03093C6032093C503C0927E
:10302000C103D092C203E092C303F092C403E3C988
:10303000D701C601880F991FAA1FBB1F6C017D0114
:103040006894C0F8E1CF848195810997099708F0C9
:10305000F4CD868197818C974F9708F0EECD8085CF
:10306000918589974D9708F0E8CD9F01265F3F4FE6
:10307000C12CD12C760145E050E0D7CD9F012657D9
:103080003F4FD9012D913C912C5031092B30310506
:1030900008F0D3CD20E230E03093C6032093C5037F
:1030A000C092C103D092C203E092C303F092C40362
:1030B00088E090E0A2C9D90112966D917C91139796
:1030C000695071096930710508F0B7CDCC0CDD1C71
:1030D000EE1CFF1CA2CD84819581825491098E97AC
:1030E00008F0DFCD8F01045C1F4F8DE190E020E000
:1030F00030E0C3CD4D915C914851510942315105A9
:10310000D0F0CB010197959587959093C603809356
:10311000C5038A970CF4C5CDC901330FAA0BBB0BAD
:103120008093C1039093C203A093C303B093C403DD
:1031300089E090E062C9220F331F9CCDD90112961D
:103140004D915C911397495151094331510508F54F
:10315000D701C601880F991FAA1FBB1F6C017D01F3
:103160006894C0F82C5F3F4F2617370709F0B0CDA1
:103170002EE030E03093C6032093C503C092C10314
:10318000D092C203E092C303F092C4038FE090E0B8
:1031900034C9D90112964D915C9113974950510948
:1031A0004930510508F09DCDCC0CDD1CEE1CFF1CF8
:1031B000D9CF08950F931F93CF93DF931092C2013D
:1031C0001092C10188EE93E0A0E0B0E08093C301CB
:1031D0009093C401A093C501B093C6018AE091E029
:1031E0009093C0018093BF0185EC90E09093CC0157
:1031F0008093CB0184EC90E09093CE018093CD013D
:1032000080EC90E09093D0018093CF0181EC90E02E
:103210009093D2018093D10182EC90E09093D401FD
:103220008093D30186EC90E09093D6018093D501F2
:103230001092D8011092D9011092DA011092DB019C
:1032400084E690E090935D0280935C028FEF809320
:103250005E021092600210925F0210926A02109257
:1032600069028FEF9FEFDC01809365029093660205
:10327000A0936702B093680282E080936C02109280
:103280006E028EE491E090933E0380933D038CE1C7
:1032900091E09093400380933F0384E291E0909308
:1032A0004203809341031092430388E490E00E941C
:1032B0008F1D909345038093440388E490E00E941F
:1032C0008F1D909347038093460380E591E00E9411
:1032D0008F1D90939203809391036CEF71E0805E59
:1032E0009E4F0E94050880919103909192036CEB90
:1032F00071E0C0960E94050880919103909192031D
:103300006CE771E0805A9F4F0E94050880919103FD
:10331000909192036CE371E080579F4F0E940508E3
:1033200080919103909192036CEF70E080549F4FD5
:103330000E94050880919103909192036CEB70E0DC
:1033400080519F4F0E9405086CE770E080919103C7
:10335000909192030E940508C0914603D0914703C3
:10336000FE0132969E01265B3F4F9FEFDF011297D1
:103370008FEF9C9311969C9390833396E217F307FB
:10338000A9F79091B303911144C01092A503109234
:10339000A4038093A8038093A9038093AA03809336
:1033A000AB038093AC038093AD0381E08093AE03C5
:1033B0001092B0031092AF031092A7031092A603CD
:1033C0008091BB039091BC03892B31F482EA93E096
:1033D0009093BC038093BB03E091A003F091A10301
:1033E000309721F082EA93E09583848382EA93E028
:1033F0009093A1038093A0031092B2031092B103A3
:103400008CE391E09093A3038093A20381E08093E7
:10341000B303E091A203F091A3030480F581E02DB2
:1034200082EA93E00995D093A503C093A40388E1B1
:1034300090E09093B0038093AF03E091A203F091EA
:10344000A3030284F385E02D82EA93E009950097B7
:1034500029F19C0140E050E060E472E48FE090E0EC
:103460000E94FE1C722F632F009161021091620274
:103470002091630230916402872F962FDA01801722
:103480009107A207B30710F4D901C8018093610224
:1034900090936202A0936302B093640286E98093E2
:1034A0005E02E091BB03F091BC038FEF90EB20EF45
:1034B000309739F08683978320870480F581E02D4B
:1034C000F7CF81E080939003DF91CF911F910F910F
:1034D0000895F999FECF92BD81BDF89A992780B5DC
:1034E0000895262FF999FECF1FBA92BD81BD20BD48
:1034F0000FB6F894FA9AF99A0FBE019608955058AB
:10350000BB27AA270E94971A0C94111C0E94031C27
:1035100038F00E940A1C20F039F49F3F19F426F479
:103520000C94001C0EF4E095E7FB0C94FA1BE92FB9
:103530000E94221C58F3BA17620773078407950785
:1035400020F079F4A6F50C94441C0EF4E0950B2EB3
:10355000BA2FA02D0B01B90190010C01CA01A001E5
:103560001124FF27591B99F0593F50F4503E68F140
:103570001A16F040A22F232F342F4427585FF3CF81
:10358000469537952795A795F0405395C9F77EF452
:103590001F16BA0B620B730B840BBAF09150A1F09B
:1035A000FF0FBB1F661F771F881FC2F70EC0BA0F21
:1035B000621F731F841F48F4879577956795B795A9
:1035C000F7959E3F08F0B0CF9395880F08F09927A4
:1035D000EE0F9795879508950E94D61B08F481E019
:1035E00008950E94051B0C94111C0E940A1C58F09F
:1035F0000E94031C40F029F45F3F29F00C94FA1B51
:1036000051110C94451C0C94001C0E94221C68F360
:103610009923B1F3552391F3951B550BBB27AA278B
:1036200062177307840738F09F5F5F4F220F331FC5
:10363000441FAA1FA9F335D00E2E3AF0E0E832D08D
:1036400091505040E695001CCAF72BD0FE2F29D090
:10365000660F771F881FBB1F261737074807AB0762
:10366000B0E809F0BB0B802DBF01FF2793585F4FD7
:103670003AF09E3F510578F00C94FA1B0C94451CCF
:103680005F3FE4F3983ED4F3869577956795B795B9
:10369000F7959F5FC9F7880F911D9695879597F9C4
:1036A0000895E1E0660F771F881FBB1F621773073D
:1036B0008407BA0720F0621B730B840BBA0BEE1F52
:1036C00088F7E09508950E946A1B6894B1110C94E4
:1036D000451C08950E942A1C88F09F5798F0B92F26
:1036E0009927B751B0F0E1F0660F771F881F991F37
:1036F0001AF0BA95C9F714C0B13091F00E94441C79
:10370000B1E008950C94441C672F782F8827B85F88
:1037100039F0B93FCCF3869577956795B395D9F78E
:103720003EF490958095709561957F4F8F4F9F4F98
:103730000895E89409C097FB3EF4909580957095A4
:1037400061957F4F8F4F9F4F9923A9F0F92F96E9ED
:10375000BB279395F695879577956795B795F11162
:10376000F8CFFAF4BB0F11F460FF1BC06F5F7F4FFF
:103770008F4F9F4F16C0882311F096E911C0772311
:1037800021F09EE8872F762F05C0662371F096E81A
:10379000862F70E060E02AF09A95660F771F881FE9
:1037A000DAF7880F9695879597F90895990F00088D
:1037B000550FAA0BE0E8FEEF16161706E807F90703
:1037C000C0F012161306E407F50798F0621B730B9E
:1037D000840B950B39F40A2661F0232B242B252B1F
:1037E00021F408950A2609F4A140A6958FEF811DC2
:1037F000811D089597F99F6780E870E060E0089563
:103800009FEF80EC089500240A94161617061806F8
:103810000906089500240A941216130614060506D4
:103820000895092E0394000C11F4882352F0BB0F65
:1038300040F4BF2B11F460FF04C06F5F7F4F8F4FC8
:103840009F4F089557FD9058440F551F59F05F3F03
:1038500071F04795880F97FB991F61F09F3F79F0B2
:1038600087950895121613061406551FF2CF469534
:10387000F1DF08C0161617061806991FF1CF8695B6
:103880007105610508940895E894BB27662777279A
:10389000CB0197F908950E945E1C0C94111C0E94A4
:1038A000031C38F00E940A1C20F0952311F00C94A0
:1038B000FA1B0C94001C11240C94451C0E94221C21
:1038C00070F3959FC1F3950F50E0551F629FF00173
:1038D000729FBB27F00DB11D639FAA27F00DB11D8C
:1038E000AA1F649F6627B00DA11D661F829F222715
:1038F000B00DA11D621F739FB00DA11D621F839F9C
:10390000A00D611D221F749F3327A00D611D231F71
:10391000849F600D211D822F762F6A2F11249F57BF
:1039200050409AF0F1F088234AF0EE0FFF1FBB1FC2
:10393000661F771F881F91505040A9F79E3F510581
:1039400080F00C94FA1B0C94451C5F3FE4F3983E06
:10395000D4F3869577956795B795F795E7959F5F2B
:10396000C1F7FE2B880F911D9695879597F90895BD
:10397000DB018F939F930E94241DBF91AF91A29F63
:10398000800D911DA39F900DB29F900D112408955D
:1039900097FB072E16F4009407D077FD09D00E94FC
:1039A000661D07FC05D03EF4909581959F4F0895C4
:1039B000709561957F4F0895A1E21A2EAA1BBB1B3B
:1039C000FD010DC0AA1FBB1FEE1FFF1FA217B307EB
:1039D000E407F50720F0A21BB30BE40BF50B661F01
:1039E000771F881F991F1A9469F7609570958095C5
:1039F00090959B01AC01BD01CF010895052E97FB69
:103A00001EF400940E94151D57FD07D00E94DC1C77
:103A100007FC03D04EF40C94151D5095409530953D
:103A200021953F4F4F4F5F4F08959095809570952A
:103A300061957F4F8F4F9F4F08950E94801DB7FF64
:103A40000895821B930B08950E94801DA59F900DE1
:103A5000B49F900DA49F800D911D112408950F9384
:103A6000083090F0982F872F762F652F542F432FF3
:103A7000322F22270850F4CF220F331F441F551F27
:103A8000661F771F881F991F0A95B2F70F91089537
:103A900097FB10F8169400080F93083098F0085020
:103AA000232F342F452F562F672F782F892F902DB6
:103AB000F4CF059497958795779567955795479592
:103AC000379527950A95AAF70F910895AA1BBB1B56
:103AD00051E107C0AA1FBB1FA617B70710F0A61B0E
:103AE000B70B881F991F5A95A9F780959095BC012F
:103AF000CD010895EE0FFF1F0590F491E02D09947C
:103B0000A29FB001B39FC001A39F700D811D11241E
:103B1000911DB29F700D811D1124911D0895CF93A9
:103B2000DF938230910510F482E090E0E091D403BD
:103B3000F091D50320E030E0C0E0D0E0309711F103
:103B40004081518148175907C0F04817590761F45F
:103B500082819381209719F09B838A832BC0909355
:103B6000D5038093D40326C02115310519F04217DF
:103B7000530718F49A01BE01DF01EF010280F381BF
:103B8000E02DDCCF2115310509F1281B390B24303C
:103B9000310590F412968D919C91139761157105E2
:103BA00021F0FB019383828304C09093D50380931B
:103BB000D403FD01329644C0FD01E20FF31F81934F
:103BC0009193225031092D933C933AC02091D20316
:103BD0003091D303232B41F4209102013091030152
:103BE0003093D3032093D20320910001309101013F
:103BF0002115310541F42DB73EB740910401509194
:103C00000501241B350BE091D203F091D303E21799
:103C1000F307A0F42E1B3F0B2817390778F0AC01EF
:103C20004E5F5F4F2417350748F04E0F5F1F5093CC
:103C3000D3034093D2038193919302C0E0E0F0E07C
:103C4000CF01DF91CF9108950F931F93CF93DF930F
:103C5000009709F48CC0FC01329713821282009104
:103C6000D4031091D5030115110581F42081318110
:103C7000820F931F2091D2033091D3032817390765
:103C800079F5F093D303E093D20371C0D80140E0FB
:103C900050E0AE17BF0750F412962D913C91139748
:103CA000AD012115310509F1D901F3CF9D01DA01EB
:103CB0003383228360817181860F971F8217930758
:103CC00069F4EC0128813981260F371F2E5F3F4FA1
:103CD000318320838A819B8193838283452B29F4BE
:103CE000F093D503E093D40342C01396FC93EE9374
:103CF0001297ED01499159919E01240F351FE2174A
:103D0000F30771F480819181840F951F02961196BB
:103D10009C938E938281938113969C938E9312979A
:103D2000E0E0F0E0D80112968D919C9113970097F6
:103D300019F0F8018C01F6CF8D919C9198012E5FBE
:103D40003F4F820F931F2091D2033091D303281746
:103D5000390769F4309729F41092D5031092D403EF
:103D600002C0138212821093D3030093D203DF9117
:103D7000CF911F910F91089581E090E0F8940C94F9
:103D8000C11E11E0C2E4D1E004C0FE010E947A1D10
:0C3D90002196C334D107C9F7F894FFCF87
:103D9C000000D603800000000000D901530A710115
:103DAC002002A201800194010000000002085203CD
:103DBC0000000000040856030000000050035003EC
:103DCC0050032C032803250300000000E2029E028E
:103DDC009C022C03280399025803000000000308DE
:103DEC0054030D0A006C6F616400736176653A20B0
:103DFC00004578636565646564206D6178696D75EF
:103E0C006D206E756D626572206F662077726974B5
:103E1C00657300417474656D707420746F207772D3
:103E2C00697465206F757473696465206F662045CD
:0E3E3C004550524F4D206D656D6F727900003C
:00000001FF
