:100000000C9463010C948B010C948B010C948B0168
:100010000C948B010C948B010C948B010C94230693
:100020000C948B010C948B010C948B010C948B0120
:100030000C948B010C948B010C948B010C948B0110
:100040000C94590D0C948B010C94F1050C94CB0578
:100050000C948B010C948B010C948B010C948B01F0
:100060000C948B010C948B010000000024002700ED
:100070002A000000000023002600290000000000E4
:10008000250028002B0004040404040404040202D4
:100090000202020203030303030301020408102007
:1000A0004080010204081020010204081020000012
:1000B0000008000201000003040700000000000027
:1000C00000000000FF00002AD5000055AB00007FB3
:1000D000AB0000ABAB0000D5560000FF00002AD5F6
:1000E000000055AB0000AA560000FF000000D5003C
:1000F0002A00AB00550081007F005500AB002B00AB
:10010000D5000000FF00000000000055AB0000001B
:10011000000000ABAB000000000000FF000000008A
:10012000000055AB000000000000FF0000000000D0
:100130000000AB005500000000005500AB000000BF
:100140000000000000000000330000006600000016
:1001500099000000CC000000FF000033FF000066A3
:10016000FF000099FF0000CCFF0000FFFF0033FFFD
:10017000FF0066FFFF0099FFFF00CCFFFF00FFFFBD
:10018000FF00AB0055007C0084004B00B5001B0055
:10019000E5000017E8000047B8000077AB0000ABAF
:1001A000AB000055AB000022DD000E00F2003E0067
:1001B000C20071008F00A1005F00D0002F00F9077E
:1001C000000000640000006400002F6B5500006414
:1001D000000000800000228B2200238E6B00008034
:1001E0000000578B2E00AACD660032CD320032CDF2
:1001F0009A0090EE900000FC7C00AACD6600228B55
:10020000220000000000000080000000000000004C
:10021000800000008B000000800000008B000000C8
:100220008B0000008B000000FF0000A5FF00FFFF17
:10023000FF0000A5FF000000FF0000008B00000091
:100240000000FF0000008B0000008B0000008B000E
:1002500000008B0000008B0000008B0000008B0072
:100260000000FF0000008B000000EBCE8700EBCE0B
:100270008700E6D8AD00FFFFFF00E6D8AD00EBCE6B
:100280008700701919008B00000070191900800098
:1002900000008B000000CD000000578B2E008080F6
:1002A0000000A09E5F00FF0000008B8B0000ED951A
:1002B0006400D4FF7F00578B2E00FFFF0000FACEB2
:1002C0008700331A321A11241FBECFEFD8E0DEBFE9
:1002D000CDBF11E0A0E0B1E0EAE5F1E402C0059095
:1002E0000D92AC3BB107D9F724E0ACEBB1E001C013
:1002F0001D92AA32B207E1F711E0C2E6D1E004C0D4
:100300002197FE010E94681FC136D107C9F70E94DC
:10031000A30D0C94A0200C940000089580E090E0C0
:100320000895FC01538D448D252F30E0842F90E0FB
:10033000821B930B541710F0CF96089501970895E0
:10034000FC01918D828D981761F0828DDF01A80FDD
:10035000B11D5D968C91928D9F5F9F73928F90E0FF
:1003600008958FEF9FEF0895FC01918D828D98176E
:1003700031F0828DE80FF11D858D90E008958FEFAB
:100380009FEF0895FC01918D228D892F90E0805C74
:100390009F4F821B91098F739927089588EE91E0F2
:1003A0000E94C20121E0892B09F420E0822F0895E8
:1003B000FC01848DDF01A80FB11DA35ABF4F2C9102
:1003C000848D90E001968F739927848FA689B789D1
:1003D0002C93A089B1898C9180648C93938D848DAA
:1003E000981306C00288F389E02D80818F7D808379
:1003F0000895EF92FF920F931F93CF93DF93EC0139
:1004000081E0888F9B8D8C8D981305C0E889F989D0
:10041000808185FD24C0F62E0B8D10E00F5F1F4FED
:100420000F731127E02E8C8DE8120CC00FB607FC5D
:10043000FACFE889F989808185FFF5CFCE010E9446
:10044000D801F1CF8B8DFE01E80FF11DE35AFF4F6C
:10045000F0820B8FEA89FB898081806207C0EE8978
:10046000FF896083E889F98980818064808381E0E5
:1004700090E0DF91CF911F910F91FF90EF90089541
:10048000CF93DF93EC01888D8823C9F0EA89FB893B
:10049000808185FD05C0A889B9898C9186FD0FC032
:1004A0000FB607FCF5CF808185FFF2CFA889B98907
:1004B0008C9185FFEDCFCE010E94D801E7CFDF916F
:1004C000CF91089580E090E0892B29F00E94CE0121
:1004D00081110C9400000895EF92FF920F931F93E7
:1004E000CF93DF93EC019091D3019F5F292F277069
:1004F0002093D30190FF02C090E801C090E021FD5D
:100500009064247009F0906220E1290FFE013C966E
:100510007E018FE0E80EF11C00E011E0619166239E
:1005200031F070E0C8010E94021F6F5F01C060E0FF
:10053000DF0114976C93322F369F030E30E0311D8C
:100540001124CF010797311103C0EC01188203C0B9
:100550003150EC013883662311F061506C93EE1535
:10056000FF05E1F6DF91CF911F910F91FF90EF9082
:10057000089580E991E00895559A08950F931F9387
:10058000CF93DF93CDB7DEB762970FB6F894DEBF97
:100590000FBECDBF8C01F901DC011C968C917A83D2
:1005A00069835C834B835E834D8390819D879181BA
:1005B0009E8792819F87813029F4CE0101960E9407
:1005C0006C0206C01C861B861A86198618861F8236
:1005D00083E0888B1A8A198AD801ED91FC910484F2
:1005E000F585E02DBE016F5F7F4FC80109956296CA
:1005F0000FB6F894DEBF0FBECDBFDF91CF911F9134
:100600000F9108950F931F93CF93DF93CDB7DEB76C
:1006100062970FB6F894DEBF0FBECDBF8C01F90113
:10062000DC011C968C917A8369835C834B835E83A7
:100630004D8390819D8791819E8792819F87813094
:1006400029F4CE0101960E946C0206C01C861B860E
:100650001A86198618861F82188A1A8A198AD8015A
:10066000ED91FC910484F585E02DBE016F5F7F4F15
:10067000C801099562960FB6F894DEBF0FBECDBFD4
:10068000DF91CF911F910F91089580E090E0089540
:10069000FC01858596850895CF93DF9300D000D027
:1006A00000D0CDB7DEB7AB011C821D821E82DC01FB
:1006B000ED91FC910190F081E02D19821A821B824C
:1006C0009E012F5F3F4FBE016C5F7F4F09952696BD
:1006D0000FB6F894DEBF0FBECDBFDF91CF91089566
:1006E0000E949B200C9403200C9403200C94032064
:1006F0004F925F926F927F928F92AF92BF92CF9202
:10070000EF92FF920F931F93CF93DF933C01EB0186
:100710000E94340DF30127853089621B730B6A3008
:100720007105B0F3F894E881F9815BB150628BB147
:100730008F7D8BB96A859F81262F291B922F2F834E
:10074000BF844A805B807D85FC84EE847F5FF39468
:10075000E3943E814885A984CB841181D20120E0B5
:10076000C32F022F322F3181112788943111390F75
:1007700008F43FEF9195889470FD130F17958894B6
:1007800071FD130F1795889472FD130F17958894B8
:1007900073FD130F1795889474FD130F17958894A4
:1007A00075FD130F1795889476FD130F1795889490
:1007B00077FD130F17958894232F7111212F960F12
:1007C000122F002C5BB900C017FF8BB93081222794
:1007D000889400C000C0002C8BB931113C0F00C0C0
:1007E000002C5BB900C016FF8BB908F43FEFC19530
:1007F000889400C000C0002C8BB9F0FC230F00C00F
:10080000002C5BB900C015FF8BB927958894F1FCCB
:10081000230F00C000C0002C8BB92795889400C01E
:10082000002C5BB900C014FF8BB9F2FC230F279595
:10083000889400C000C0002C8BB9F3FC230F00C0CB
:10084000002C5BB900C013FF8BB927958894F4FC8A
:10085000230F00C000C0002C8BB92795889400C0DE
:10086000002C5BB900C012FF8BB9F5FC230F279554
:10087000889400C000C0002C8BB9F6FC230F00C088
:10088000002C5BB900C011FF8BB927958894F7FC49
:10089000230F00C000C0002C8BB92795889400C09E
:1008A000002C5BB900C010FF8BB9132FF110122F71
:1008B000CA0D00C000C0002C8BB900C000C0002CC5
:1008C0005BB900C017FF8BB932812227889400C022
:1008D00000C0002C8BB93111340F00C0002C5BB963
:1008E00000C016FF8BB908F43FEFEB0DF11D00C0FF
:1008F00000C0002C8BB9E0FC230F00C0002C5BB9BA
:1009000000C015FF8BB927958894E1FC230F00C028
:1009100000C0002C8BB92795889400C0002C5BB9CF
:1009200000C014FF8BB9E2FC230F2795889400C008
:1009300000C0002C8BB9E3FC230F00C0002C5BB976
:1009400000C013FF8BB927958894E4FC230F00C0E7
:1009500000C0002C8BB92795889400C0002C5BB98F
:1009600000C012FF8BB9E5FC230F2795889400C0C7
:1009700000C0002C8BB9E6FC230F00C0002C5BB933
:1009800000C011FF8BB927958894E7FC230F00C0A6
:1009900000C0002C8BB92795889400C0002C5BB94F
:1009A00000C010FF8BB9132FE110122F419500C02A
:1009B00000C0002C8BB94C0D00C000C05BB900C05A
:1009C00017FF8BB931812227889400C000C0002C0A
:1009D0008BB93111390F00C0002C5BB900C016FF74
:1009E0008BB908F43FEF9195889400C000C0002CAB
:1009F0008BB970FD230F00C0002C5BB900C015FF40
:100A00008BB92795889471FD230F00C000C0002C7E
:100A10008BB92795889400C0002C5BB900C014FFE7
:100A20008BB972FD230F2795889400C000C0002C5D
:100A30008BB973FD230F00C0002C5BB900C013FFFE
:100A40008BB92795889474FD230F00C000C0002C3B
:100A50008BB92795889400C0002C5BB900C012FFA9
:100A60008BB975FD230F2795889400C000C0002C1A
:100A70008BB976FD230F00C0002C5BB900C011FFBD
:100A80008BB92795889477FD230F00C000C0002CF8
:100A90008BB92795889400C0002C5BB900C010FF6B
:100AA0008BB9132F7111122F960F00C000C0002CAC
:100AB0008BB9119709F086CE20EE31E0D2010E9469
:100AC000161FDC01CB01F4E0B695A79597958795A5
:100AD000FA95D1F720E030E0A9016AE9469E040CBE
:100AE000411D569E400D511D1124450D511D840F71
:100AF000951FA11DB11D893E43E09407A105B105D5
:100B000008F434C0885E9340A109B10942E0B6956B
:100B1000A795979587954A95D1F747E0849F080E4A
:100B2000211D949F200D311D1124290F311D60912D
:100B3000D20170E0860F971F820F931F4091E4014E
:100B40005091E5016091E6017091E701292F33276B
:100B5000420F531F611D711D4093E4015093E50145
:100B60006093E6017093E7018093D20178940E942C
:100B7000340DF301708B6787DF91CF911F910F9137
:100B8000FF90EF90CF90BF90AF908F907F906F903D
:100B90005F904F9008951F920F920FB60F921124FD
:100BA0002F933F934F935F936F937F938F939F9375
:100BB000AF93BF93EF93FF9388EE91E00E94D8012B
:100BC000FF91EF91BF91AF919F918F917F916F9125
:100BD0005F914F913F912F910F900FBE0F901F90FB
:100BE00018951F920F920FB60F9211242F938F9387
:100BF0009F93EF93FF93E091F801F091F9018081C9
:100C0000E091FE01F091FF0182FD12C09081809180
:100C100001028F5F8F7320910202821751F0E091E1
:100C20000102F0E0E851FE4F958F8093010201C070
:100C30008081FF91EF919F918F912F910F900FBE27
:100C40000F901F9018951F920F920FB60F921124BC
:100C50002F933F934F935F936F937F938F939F93C4
:100C6000AF93BF93CF93DF93EF93FF9320919502C0
:100C700030E0F901E255FF4F8491F901E656FF4F4C
:100C8000D491F901EA57FF4FC491CC23A1F081110F
:100C90000E940B0DEC2FF0E0EE0FFF1FEE58FF4F00
:100CA000A591B491EC91ED2331E020E009F430E01E
:100CB000832F922F02C080E090E020919902309122
:100CC0009A022F5F3F4F30939A022093990220910E
:100CD0009802253618F026E0209394022091940281
:100CE0002430D9F128F4223069F02330D9F060C0E3
:100CF000253009F453C0263009F05AC021E0209372
:100D0000650353C0009709F053C0209199023091B8
:100D10009A022436310508F443C0109265031092FC
:100D200098021DC08130910509F042C0E0919802FF
:100D300021E02E0F20939802F0E02091990230914B
:100D40009A02EE0FFF1FEC56FD4F3087278310925B
:100D50009A021092990224E029C00097B9F4E09118
:100D6000980221E02E0F20939802F0E02091990242
:100D700030919A02EE0FFF1FEC56FD4F308727830C
:100D800010929A021092990223E010C020919902C9
:100D900030919A022536310558F007C0009741F48A
:100DA00010929A021092990203C025E020939402B7
:100DB000209197022223B9F0892B51F48091960259
:100DC000882321F08091960261E009C02D9A0BC022
:100DD00080919602882331F08091960260E00E9413
:100DE000B00C01C02D98FF91EF91DF91CF91BF9191
:100DF000AF919F918F917F916F915F914F913F91B3
:100E00002F910F900FBE0F901F901895CF92DF92E9
:100E1000EF92FF92CF93DF93EC01072E000C880B2B
:100E2000990B0E94D51D6B017C0120E030E040E46D
:100E30005FE30E94851E20E030E048E452E40E9417
:100E40002B1D0E949D1DC617D707D4F020E030E06F
:100E500040EA5FE3C701B6010E94851E20E030E052
:100E600048E452E40E942B1D20E030E040E85FE3BC
:100E70000E94BA1C0E949D1D21E06C177D070CF496
:100E800020E0822F90E0DF91CF91FF90EF90DF90F4
:100E9000CF900895DC01FB014C9111965C91119764
:100EA00012967C91342F3F71330F330F832F880FAD
:100EB00035E5282F239F020E20E0211D1124642FE9
:100EC0006074942F907247FD21C061110BC0911185
:100ED00004C0822F8095422F11C045E5420F30E0BB
:100EE0002BEA33C091110DC0382F4AEA349F030E0C
:100EF00030E0311D11248BEA831B420F282F30E094
:100F000024C080E0422F4095322F0EC0611111C0E5
:100F100091110CC0382F2AEA329F030E30E0311DA8
:100F200011244BEA431B3B5A20E00FC0322F30956F
:100F30000BC0911104C085E5820F3BEA03C08AEA29
:100F4000820F90E0321B282F40E05F3F11F15523C4
:100F5000E9F0222321F0259F020E20E0211D4423E9
:100F600021F0459F040E40E0411D332321F0359FC1
:100F7000030E30E0311D11245095559F050E50E0B1
:100F8000511D1124250F450F350F03C03FEF4FEFC3
:100F90002FEF7F3F09F420C050E0772321F0779FA7
:100FA000512D09F05F5F5523A1F0222321F0259FE9
:100FB000020E20E0211D442321F0459F040E40E055
:100FC000411D332321F0359F030E30E0311D1124E4
:100FD00003C030E040E020E0208341833283089565
:100FE000089508950895CF93DF93EB01DC011296E5
:100FF00020E030E0FE01E20FF31F4591559165912D
:101000007491FD0132976083319650834C932C5F2D
:101010003F4F13962034310569F7DF91CF91089542
:10102000409100015091010125E038E0429FC0014C
:10103000439F900D529F900D1124875E994C909381
:10104000010180930001890F089520E330E0FB0146
:10105000DC0120FF05C002C001900D9201900D92AD
:101060002250D0F73040C0F708958617970710F444
:101070000C942508C096605D7F4F20E330E0FB01B3
:10108000DC0120FF05C002C002900E9202900E9279
:101090002250D0F73040C0F708951F93142F1295B7
:1010A0001F704F70FB01312F330F310FDB01A30F86
:1010B000B11D6C9111965C91119712963C9112970B
:1010C000442309F427C01F3011F0FD0133964295E7
:1010D000407F142F10957081619F060E60E0611DA6
:1010E000749F070E70E0711D670F7181519F050E8F
:1010F00050E0511D749F070E70E0711D570F7281F3
:10110000319F030E30E0311D749F070E70E0711D9A
:10111000370F11242F3FD1F02223A9F02F5F662330
:1011200021F0629F060E60E0611D552321F0529F61
:10113000050E50E0511D332321F0329F030E30E0A5
:10114000311D112403C030E050E060E0FC016083F9
:10115000518332831F910895009769F0FC0101903B
:101160000020E9F73197AF01481B590BBC0188EE0D
:1011700091E00C94E00C80E090E008958F929F92B3
:10118000AF92BF920F931F93CF93DF93CDB7DEB78C
:10119000A1970FB6F894DEBF0FBECDBF19A24230A3
:1011A00008F44AE08E010F5D1F4F842E912CA12C74
:1011B000B12CA50194010E94881CE62FB901CA0137
:1011C00001501109EA3014F4E05D01C0E95CD80176
:1011D000EC93232B242B252B61F7C8010E94AC082C
:1011E000A1960FB6F894DEBF0FBECDBFDF91CF91B1
:1011F0001F910F91BF90AF909F908F900895909105
:101200007403282F082E000C330B290F311D215099
:1012100031092D31310518F4980F909374036091C2
:10122000740370E080E090E04AE00E94BE0880E62F
:1012300091E00C94AC08BC0185E793E00C94350870
:101240008F929F92BF92CF92DF92EF92FF920F9375
:101250001F93CF93DF9300D01F92CDB7DEB7162F29
:10126000B42E49017C0122E0E20EF11C6C01EDE498
:10127000CE0ED11C202F412FB401CE0101960E9429
:101280004D08F70132978981808331968A81808366
:101290008B81F70180831B0DF3E0EF0EF11CEC1442
:1012A000FD0441F70F900F900F90DF91CF911F91A8
:1012B0000F91FF90EF90DF90CF90BF909F908F9015
:1012C00008953F924F925F926F927F928F929F927A
:1012D000AF92BF92CF92DF92EF92FF920F931F9344
:1012E000CF93DF9300D01F92CDB7DEB7F82E809159
:1012F0008A0290918B02A0918C02B0918D02892B71
:101300008A2B8B2BE9F00E94340D00910004109180
:1013100001042091020430910304DC01CB01801B05
:10132000910BA20BB30B00918A0210918B022091BA
:101330008C0230918D0280179107A207B307B8F293
:101340000E94340D609300047093010480930204A2
:1013500090930304E0919202F0919302309759F038
:1013600040918E0250918F02609190027091910293
:101370008F2D0995F82E00911F04109120044F2CF9
:10138000512C612C712C0115110509F461C0D80193
:101390001C96EC901C97809188029091890284366B
:1013A000910510F41C961C92D801ED91FC91A2803D
:1013B000B38019821A821B82F11014C0F80145858E
:1013C0005685628173819E012F5F3F4FC801F501F1
:1013D0000995D8011C96EC921C9714960D911C91BE
:1013E0001597D1CFF8013996CE0101966C014801CD
:1013F0009CE0890E911CDF0113973C9021913320D2
:1014000001F12223F1F0822F90E0A0E0B0E09C01F6
:10141000AD012F5F3F4F4F4F5F4FC301B2010E949D
:10142000F21E9B01AC01832D90E0A0E0B0E0BC0176
:10143000CD016F5F7F4F8F4F9F4F0E94F21ED601ED
:101440008C93BFEFCB1ADB0AE815F905A1F6B6CFEE
:101450008091FE039091FF039C012F5F3F4F3093DB
:10146000FF032093FE0349970CF447C08FB7F8940D
:101470000091E4011091E5012091E6013091E7012E
:101480008FBFE091FE03F091FF0388EE93E0E89FA9
:10149000B001E99F700DF89F700D1124072E000C0C
:1014A000880B990BC090FA03D090FB03E090FC03EB
:1014B000F090FD03A90198012C193D094E095F091F
:1014C0000E94881C30938902209388021092FF03A7
:1014D0001092FE032FB7F8948091E4019091E501FA
:1014E000A091E601B091E7012FBF8093FA0390939A
:1014F000FB03A093FC03B093FD030F900F900F909C
:10150000DF91CF911F910F91FF90EF90DF90CF90DF
:10151000BF90AF909F908F907F906F905F904F9013
:101520003F900895CF93DF930E94AC08EC0180E6D2
:1015300091E00E94AC088C0F9D1FDF91CF91089520
:101540002091F8033091F9032F5F3F4F3093F90357
:101550002093F80340918502509186024115510570
:1015600019F0421753071CF48FE691E005C0813053
:10157000924034F081E991E00E94920A80E008955F
:1015800081E008959C012F5F3F4F2130324014F4D9
:101590000C94401C81E991E00E94920A80E0089539
:1015A000EF92FF921F93CF93DF93EC01162F7C01F4
:1015B0008FEFE81AF80AC7010E94A00A811103C040
:1015C00020E030E012C0CE010E94C20A811791F0E3
:1015D000C7010E94A00A882321F0612FCE010E943A
:1015E000481C91E080E0292F382F81E0232B21F443
:1015F00080E002C090E0F6CFDF91CF911F91FF9085
:10160000EF900895CF93DF9380937103E091A5034A
:10161000F091A603329680E090E0A0917203B09121
:101620007303A80FB91FEF01229728812C932196ED
:10163000288111962C931197208112962C93039652
:1016400033968B34910549F7DF91CF910895EF924E
:10165000FF920F931F93CF93DF9300D01F92CDB7CC
:10166000DEB72091F6033091F703811103C0265FA6
:101670003F4F02C02A5031093093F7032093F603FD
:1016800080E00E94020BE090A503F090A6038091F9
:10169000F60389838FEF8B8380EF8A8300E010E06D
:1016A000B701600F711FCE0101960E944A07898120
:1016B000865F89830D5F1F4F0B34110589F70F90EB
:1016C0000F900F90DF91CF911F910F91FF90EF90AE
:1016D00008950F93E6E6F3E0828394812091F3036B
:1016E0003091F40340E3949F200D311D11240091AB
:1016F00087024381682F8091A5039091A6030E94E1
:1017000020090F9108950F93E6E6F3E08383948117
:101710002091F3033091F40340E3949F200D311D99
:10172000112400918702482F62818091A503909136
:10173000A6030E9420090F910895CF93DF93EC0137
:1017400080E00E94020B2091A5033091A603F901CD
:101750003296235B3F4F8881DF0112978C938981FA
:1017600011968C938A8180833396E217F30799F759
:10177000DF91CF9108950F931F93CF93DF938C0147
:1017800080E00E94020BE091A503F091A6039F0167
:101790002F5F3F4FDF011296AF01445B5F4FE801BF
:1017A0008A818F3F41F49C91692F70E0663071050A
:1017B00014F095509C93E80188818F3F41F490810B
:1017C000692F70E06630710514F095509083E80140
:1017D0008981803849F4E9019881692F70E0663089
:1017E000710514F0955098832D5F3F4F33961396F3
:1017F00024173507A1F6DF91CF911F910F9108951E
:10180000CF93DF93EC0180E00E94020BE091A503EF
:10181000F091A6039F012E5F3F4FAF01455B5F4FE5
:10182000D9019C918A818F3F39F4692F70E06A3F1A
:10183000710514F49B5F9C9388818F3F41F49081E4
:10184000692F70E06A3F710514F49B5F9083898172
:10185000803849F4D9019E91692F70E06A3F710583
:1018600014F49B5F9C932D5F3F4F3396E417F5076D
:10187000B9F6DF91CF9108958F929F92AF92BF9268
:10188000CF92DF92EF92FF920F931F93CF93DF934C
:10189000FC01C081D1812091E0013091E101C217AA
:1018A000D3070CF04BC09E01220F331FE091DE01E5
:1018B000F091DF01E20FF31F80809180C170DD277E
:1018C000F1E0CF27209719F404E610E002C00CE9FC
:1018D0001FEF7A015B016C01040F151FB801C401F1
:1018E0000E940607892B99F40E0D1F1DB801C40133
:1018F0000E940607892B71F4B8016E0D7F1DC4018B
:101900000E940607892BE9F023E030E005C021E0C2
:1019100030E002C022E030E0F50180819181019643
:10192000821793073CF0F50111821082F601808145
:101930009181019691838083CE0105C081E090E082
:1019400002C08FEF9FEFDF91CF911F910F91FF901A
:10195000EF90DF90CF90BF90AF909F908F900895C1
:101960001F93CF93DF93282F30E0F901E255FF4F0B
:101970008491F901E656FF4FD491F901EA57FF4FE0
:10198000C491CC23C9F0162F81110E940B0DEC2FAE
:10199000F0E0EE0FFF1FE458FF4FA591B4918FB711
:1019A000F894111105C09C91ED2FE095E92302C038
:1019B000EC91ED2BEC938FBFDF91CF911F910895A8
:1019C000CF92DF92EF92FF920F931F93CF93DF930B
:1019D0006C017A018B01C0E0D0E0CE15DF0589F003
:1019E000D8016D918D01D601ED91FC910190F081AE
:1019F000E02DC6010995892B11F47E0102C02196C4
:101A0000ECCFC701DF91CF911F910F91FF90EF9025
:101A1000DF90CF900895833081F028F4813099F0E1
:101A20008230A1F008958730A9F08830B9F0843071
:101A3000D1F4809180008F7D03C0809180008F77EA
:101A400080938000089584B58F7702C084B58F7D20
:101A500084BD08958091B0008F7703C08091B0005D
:101A60008F7D8093B00008953FB7F8948091220451
:101A700090912304A0912404B091250426B5A89B3D
:101A800005C02F3F19F00196A11DB11D3FBFBA2F10
:101A9000A92F982F8827820F911DA11DB11DBC0170
:101AA000CD0142E0660F771F881F991F4A95D1F735
:101AB00008951F920F920FB60F9211242F933F9308
:101AC0008F939F93AF93BF938091E4019091E50131
:101AD000A091E601B091E7013091210423E0230FAA
:101AE0002D3720F40196A11DB11D05C026E8230F56
:101AF0000296A11DB11D209321048093E4019093CF
:101B0000E501A093E601B093E70180912204909152
:101B10002304A0912404B09125040196A11DB11DB8
:101B20008093220490932304A0932404B09325046B
:101B3000BF91AF919F918F913F912F910F900FBEC9
:101B40000F901F901895CF93DF93CDB7DEB7E7972F
:101B50000FB6F894DEBF0FBECDBF789484B5826017
:101B600084BD84B5816084BD85B5826085BD85B541
:101B7000816085BD80916E00816080936E001092BF
:101B8000810080918100826080938100809181003A
:101B900081608093810080918000816080938000CB
:101BA0008091B10084608093B1008091B000816029
:101BB0008093B00080917A00846080937A00809155
:101BC0007A00826080937A0080917A0081608093AD
:101BD0007A0080917A00806880937A001092C10028
:101BE0001092CE011092CF011092D0011092D1012B
:101BF000809187020E946109E091F801F091F9015A
:101C000082E08083E091F401F091F5011082E0918F
:101C1000F601F091F7019FEC908310920002E091A1
:101C2000FC01F091FD0196E09083E091FA01F091C2
:101C3000FB01908190619083E091FA01F091FB01AA
:101C4000908198609083E091FA01F091FB0190817E
:101C500090689083E091FA01F091FB0190819F7D63
:101C60009083F8948093B0008093B10094E69093B1
:101C7000B3001092B2008093700078948093940225
:101C8000109298028091950290E0FC01E656FF4F79
:101C90002491FC01EA57FF4F84918823C9F090E01A
:101CA000880F991FFC01E859FF4F45915491FC01A1
:101CB000E458FF4FA591B4919FB7F894FA01808141
:101CC0002095822380838C91E22FE823EC939FBFA1
:101CD0008CEB91E01CE0180F1EAB8BE992E0909327
:101CE000DF018093DE018091980290E09093E10102
:101CF0008093E0018091650390E09093E3018093ED
:101D0000E20180919402853009F0EFC280919D023A
:101D100090919E02885891098D35910588F48091A3
:101D20009802843041F480919F029091A0028097A4
:101D3000479708F41DC380919802843408F0FFC2CD
:101D4000809198028A3108F452C080919B02909150
:101D50009C02843F914080F41092DD011092DC01DE
:101D60008FEF9FEFDC018093D8019093D901A0936E
:101D7000DA01B093DB0159C080919D0290919E02DF
:101D800085974B97A0F5E1EAF2E082E090E0C12C64
:101D9000D12C7601AC014F5F5F4F2091980230E06B
:101DA000421753075CF4DF0112972D913C912750A5
:101DB00031092730310508F422C3CA0101979595EE
:101DC00087959093DD018093DC010C972CF41092A1
:101DD000DD011092DC010BC0C092D801D092D90174
:101DE000E092DA01F092DB0184E090E0E5C38091BB
:101DF00098028A3108F44CC080919B0290919C0219
:101E00008032934008F4A8CF80919D0290919E0269
:101E1000C697869708F410C33BC0C092D801D092F1
:101E2000D901E092DA01F092DB018BE090E0C4C3CB
:101E300020813181255231092B31310508F00CC345
:101E4000CC0CDD1CEE1CFF1C6894C0F80296349686
:101E5000AC014F5F5F4F2091980230E0421753076B
:101E600054F4DF0112972D913C912C5031092B3005
:101E70003105F0F2CA010197959587959093DD01A0
:101E80008093DC010C974CF61092DD011092DC017E
:101E900080919802823208F44DC080919D02909109
:101EA0009E020697079708F045C0E1EAF2E082E05B
:101EB00090E0C12CD12C76019C012F5F3F4F4091C7
:101EC000980250E024173507E4F4DF0112974D9192
:101ED0005C9111974E5151094731510508F0C9C223
:101EE000CC0CDD1CEE1CFF1C6894C0F840815181B5
:101EF0003496435051094530510510F40296DCCF19
:101F0000C9010197959587959093DD018093DC0138
:101F100040972CF41092DD011092DC010BC0C092AE
:101F2000D801D092D901E092DA01F092DB018CE085
:101F300090E042C31AAA19AA81E090E09A838983AB
:101F4000809198028D3008F46BC049E753E0BE01E0
:101F50006F5C7F4FCE0101960E943C0C892B09F0EB
:101F60005FC049E753E0BE016F5C7F4FCE01019631
:101F70000E943C0C019709F053C049E753E0BE01B1
:101F80006F5C7F4FCE0101960E943C0C892B09F0BB
:101F900047C0812C912C540100E010E08091980200
:101FA00090E029813A81281739075CF549E753E029
:101FB000BE016F5C7F4FCE0101960E943C0C7C01FC
:101FC00049E753E0BE016F5C7F4FCE0101960E944E
:101FD0003C0CB1E0EB16F10449F4892B09F5880CAF
:101FE000991CAA1CBB1C689480F808C0EF28C1F497
:101FF0000197B1F4880C991CAA1CBB1C0F5F1F4FE2
:10200000CDCF1093DD010093DC018092D801909236
:10201000D901A092DA01B092DB0181E090E0CCC25C
:102020001AAA19AA81E090E09A8389838091E0013D
:102030009091E101181619060CF058C0E091DE01EC
:10204000F091DF0182E090E09A838983828193811D
:1020500089974E9708F04AC083E090E09A8389837D
:10206000848195810B970A9708F040C04CEB51E0B2
:10207000BE016F5C7F4FCE0101960E943C0C892B04
:10208000A9F54CEB51E0BE016F5C7F4FCE0101968C
:102090000E943C0C019751F5812C912C540100E0D9
:1020A00010E029813A818091E0019091E1012817A7
:1020B00039070CF021C24CEB51E0BE016F5C7F4F41
:1020C000CE0101960E943C0C7C010330110509F001
:1020D000DDC14CEB51E0BE016F5C7F4FCE0101963C
:1020E0000E943C0CE816F90609F4D0C1E091DE012B
:1020F000F091DF0182819381C697869708F01AC21A
:10210000848195814B97459708F014C2DF0116969C
:102110007F0116ECE10EF11C20E030E040E050E0E1
:1021200060E070E080E090E00D911C911197095003
:1021300011090830110508F0FDC11296CD90DC9010
:10214000139711E1C11AD1081DE0C116D10408F09E
:10215000E2C101E00E941D1F21601496AE15BF056B
:1021600019F72093D8013093D9014093DA015093A5
:10217000DB0100E20E94381F2093D6013093D70183
:1021800085E090E09093D5018093D40180E390E0C6
:102190009093DD018093DC01C090D801D090D901EB
:1021A000E090DA01F090DB01BFEFCB16DB06EB0627
:1021B000FB0609F040C0C090CE01D090CF01E09066
:1021C000D001F090D101FDEFCF16F2E0DF06FFEF76
:1021D000EF06F10409F4F5C11FE9C11610E6D106B6
:1021E0001FEFE106F10409F4ECC10E94340D2B014C
:1021F0003C0168EC862E912CA12CB12C0E94340D50
:10220000DC01CB0184199509A609B709883E9340E2
:10221000A105B10558F021E0821A9108A108B10882
:1022200088EE480E83E0581E611C711C81149104D5
:10223000A104B10419F7C092CE01D092CF01E0926F
:10224000D001F092D1016091D8017091D9018091B3
:10225000DA019091DB0140E10E94BE0880E691E046
:102260000E94AC0840E1C701B6010E94BE0880E6AA
:1022700091E00E94AC08F7E8CF16F8E7DF06FFEF21
:10228000EF06F10409F42BC40CF05AC225EDC21676
:102290002AE2D2062FEFE206F10409F4DEC30CF0C5
:1022A000E0C19DEEC91692E1D9069FEFE906F1045F
:1022B00009F427C40CF0A0C1B7EFCB16B8E0DB06D9
:1022C000BFEFEB06F10409F4E0C30CF081C1FDEFB0
:1022D000CF16F2E0DF06FFEFEF06F10409F44BC37F
:1022E00082E080939402109298028091940282304E
:1022F00021F0809194028530F9F4E090A503F090EC
:10230000A6039091CD018091740398130CC0109294
:10231000CD0180917103823009F4B5C408F07EC408
:10232000813009F485C48091CD018F5F8093CD0108
:10233000809187020E9461090E946202CECC809146
:102340009F029091A002825491098E9708F0F8CCD8
:1023500080E090E040E050E0BA01FC01EF55FD4F15
:10236000208131812950310929303105C8F0E8CC6C
:102370008091A1029091A2020997099708F0DBCC05
:102380001092DD011092DC018FEF9FEFDC01809352
:10239000D8019093D901A093DA01B093DB0168C50D
:1023A000FC01ED55FD4F208131812751310922314A
:1023B0003105C0F4440F551F661F771F4160049616
:1023C0008038910551F680E290E09093DD01809392
:1023D000DC014093D8015093D9016093DA017093E6
:1023E000DB0146C520813181265031092730310576
:1023F00008F0A6CC440F551F661F771FE0CF208141
:102400003181235131092F30310548F4CC0CDD1CCA
:10241000EE1CFF1C6894C0F802963496BBCC208159
:1024200031812A5031092930310508F0E0CCCC0C3B
:10243000DD1CEE1CFF1CF0CF80919F029091A0024A
:10244000C697869708F024CDE3EAF2E083E090E0B7
:10245000C12CD12C7601FCCC208131812C5031094A
:102460002A30310508F014CDCC0CDD1CEE1CFF1C0D
:10247000EDCC4D915C914C5051094B30510508F019
:1024800059CDCC0CDD1CEE1CFF1C30CD4CEB51E0CB
:10249000BE016F5C7F4FCE0101960E943C0C6C0127
:1024A0000330110569F44CEB51E0BE016F5C7F4FC6
:1024B000CE0101960E943C0CC816D90609F016CE32
:1024C000E114F10459F4CA94CD2809F00FCE880C18
:1024D000991CAA1CBB1C689480F80BC0EA94EF28D6
:1024E00009F004CECD2809F001CE880C991CAA1C55
:1024F000BB1C0F5F1F4FD5CD1093DD010093DC0196
:102500008092D8019092D901A092DA01B092DB01B9
:1025100082E090E051C01296CD90DC90139714E0C9
:10252000C11AD10815E0C116D10420F401E00E94BF
:102530001D1F13CE80919802893340F082819381D0
:10254000895791098335910508F4A3C580919802B4
:10255000823209F490C4828193818957910983352D
:10256000910508F414C6828193818C549109C59712
:1025700008F08DC480919802843009F083C484816E
:1025800095818097479708F07DC486819781099748
:10259000099708F077C41092DD011092DC018FEFEB
:1025A0009FEFDC018093D8019093D901A093DA01C9
:1025B000B093DB0187E090E09093D5018093D40144
:1025C000EBCDCC24CA94DC2C7FE0E72EF12C0DCE91
:1025D00015EFC1161AE0D1061FEFE106F10409F468
:1025E00046C22FEEC21620E1D2062FEFE206F1041A
:1025F00009F076CE83E0BAC28FEDC81680E2D80625
:102600008FEFE806F10409F4AEC2ACF4A7EECA16E7
:10261000A8E1DA06AFEFEA06F10409F434C2B5EE38
:10262000CB16BAE1DB06BFEFEB06F10409F058CE9A
:102630008FEF898310C2EDEDCE16E2E2DE06EFEFFA
:10264000EE06F10409F45AC2F7EDCF16F8E2DF0600
:10265000FFEFEF06F10409F043CE8FEF89831A8272
:1026600028C217EBC11618E4D1061FEFE106F104EA
:1026700009F43FC27CF58DECC81682E3D8068FEFD3
:10268000E806F10409F443C294F4AFECCA16A0E3DF
:10269000DA06AFEFEA06F10409F022CE19821A82B7
:1026A0001B82CE0101960E949D0B84E05FC2B7ECB5
:1026B000CB16B8E3DB06BFEFEB06F10409F4DDC18E
:1026C000E5ECCE16EAE3DE06EFEFEE06F10409F4E0
:1026D00042C106CEFFE9CF16F0E6DF06FFEFEF06B8
:1026E000F10409F446C2B4F42FEAC21620E5D2067A
:1026F0002FEFE206F10409F42AC287EAC81688E53A
:10270000D8068FEFE806F10409F0EACD8FEF898350
:102710001A82A7C197E9C91698E6D9069FEFE9067C
:10272000F10409F4E1C1AFE8CA16A0E7DA06AFEF99
:10273000EA06F10409F0D4CD80916803875E0AC2ED
:10274000B5E5CB16BAEADB06BFEFEB06F10409F4F8
:10275000A0C10CF07FC0FDE6CF16F2E9DF06FFEF67
:10276000EF06F10409F4B8C10CF03FC027E7C21628
:1027700028E8D2062FEFE206F10409F4A0C114F50F
:102780009DE7C91692E8D9069FEFE906F10409F022
:10279000A7CD80E00E94020B8091A5039091A60333
:1027A0000E9403208BE490E00E946E1F6C0183E680
:1027B00091E00E94920A760182E0E80EF11C04E6A4
:1027C00010E028C1A5E7CA16AAE8DA06AFEFEA06C4
:1027D000F10409F462C1BFE6CB16B0E9DB06BFEF36
:1027E000EB06F10409F4AAC17BCDEFE5CE16E0EAD1
:1027F000DE06EFEFEE06F10409F4B7C1ACF417E61C
:10280000C11618E9D1061FEFE106F10409F44BC126
:1028100025E6C2162AE9D2062FEFE206F10409F0F6
:102820005FCD198280E82CC18DE5C81682EAD806F2
:102830008FEFE806F10409F44BC197E5C91698EA51
:10284000D9069FEFE906F10409F04ACD198280E824
:102850008A832FC1AFE2CA16A0EDDA06AFEFEA060F
:10286000F10409F47CC1ACF5E7E4CE16E8EBDE0632
:10287000EFEFEE06F10409F413C1BCF41FE4C11636
:1028800010EBD1061FEFE106F10409F450C12DE46D
:10289000C21622EBD2062FEFE206F10409F020CD9A
:1028A00089E189838A8380E7DCC085E4C8168AEBE6
:1028B000D8068FEFE806F10409F454C097E3C9166F
:1028C00098ECD9069FEFE906F10409F009CD81E003
:1028D0002BC1A7E1CA16A8EEDA06AFEFEA06F104AB
:1028E00009F421C104F5E7E2CE16E8EDDE06EFEFCC
:1028F000EE06F10409F411C1FFE1CF16F0EEDF0698
:10290000FFEFEF06F10409F0EBCC0091A503109165
:10291000A60388E691E00E94920A0E5F1F4F54E6DC
:10292000E52EF12C5DC11FE0C11610EFD1061FEF9F
:10293000E106F10409F411C127E0C21628EFD2061E
:102940002FEFE206F10409F0CBCC8DEA898388ED04
:102950008A8386EE86C0809187028F3F09F4C0CCBF
:102960008B5F06C080918702882309F4B9CC85501B
:1029700080938702B5CC80E00E94020B8091F20325
:10298000E091A503F091A603882309F11092F203C8
:10299000329620E030E0DF0112974C91C9018A594C
:1029A0009C4FDC01AF5BBF4F4C93DF0111974C9103
:1029B000DC01AE5BBF4F4C93408111964C932D5F71
:1029C0003F4F33962B34310531F7198244C081E0F3
:1029D0008093F203329620E030E0C9018A599C4F7F
:1029E000DC01AF5BBF4F4C91DF0112974C93DC01D0
:1029F000AE5BBF4F4C91DF0111974C93DC01AD5B97
:102A0000BF4F8C9180832D5F3F4F33962B34310520
:102A100021F766CC5801C8010E94C20AF70132971B
:102A20008083C80101960E94C20AF7013197808312
:102A30000D5F1F4FC50102960E94C20AD7018C93F9
:102A4000B3E0EB0EF11C0F3A110521F7D092A6036B
:102A5000C092A50345CC1A8214C08DEC89838CE505
:102A60008A838B83CE0101960E949D0B39CC8CED1D
:102A7000898384E18A838CE3F4CF8FEF898385EAAD
:102A80008A831B82EFCF8FEF0CC08FEF89831A826E
:102A900019C08CE789838CEFF3CF19828BE8E0CFE4
:102AA00080E88983EDCF8EE289838BE88A8387E58E
:102AB000D8CF1B82CE0101960E94000C11CC198246
:102AC00080E88A831B82CE0101960E94BB0B08CC52
:102AD00019821A828FEFC5CF19828FEFC1CF84E997
:102AE00089831A8283EDBDCF19821A828FEF8B837F
:102AF000E1CF19821A828FEF8B83E5CF8FEF898325
:102B0000AFCF8FEF898384EE8A8384ECAACF80EFE6
:102B1000898386EE8A838CE8A4CF87E7898388E857
:102B20008A8389E99ECF8FEF0E94FF08D9CB8091DD
:102B300069038A3008F0D4CB8F5F06C080916903A7
:102B4000823008F4CDCB81500E94830BC9CB809199
:102B5000680389510E94690BC3CB80E001C081E00A
:102B60000E94270BBDCB81E001C082E00E94020BD6
:102B7000B7CB80E00E94020B80916A03873010F08F
:102B800010926A0380916A038F5F80936A03209199
:102B9000F3033091F403E0E38E9F200D311D1124E7
:102BA0000091870240916903609168038091A503B9
:102BB0009091A6030E94200980916A036091F3031B
:102BC0007091F403F0E38F9F600D711D1124CE010D
:102BD00001960E943508CE0101960E941B0980CB08
:102BE0006701F80132976081C7010E94D00AF8019D
:102BF00031976081C70101960E94D00A23E0E20E5E
:102C0000F11CD8016C91C60102960E94D00A0D5F9A
:102C10001F4FBFEAEB16F10419F762CB833009F4BA
:102C200055C0843009F07FCB0CEB11E06801A5C0E2
:102C30004091CB015091CC014F3F510548F4242FD6
:102C4000249F020E20E0211D11242093870214C02E
:102C50002EEF241B2095229F020E20E0211D11241F
:102C60002095209387024E3FE1E05E0728F0109206
:102C7000CC011092CB0157CB4F5F5F4F5093CC01EB
:102C80004093CB0150CBC090C901D090CA01E091D4
:102C90006F03F09170030091870225E733E04081D4
:102CA0006C2DC7010E942009FFEFCF16D10431F02F
:102CB00028F01092CA011092C90135CB1FEFC11A3A
:102CC000D10AD092CA01C092C9012DCB8FB7F89416
:102CD0002091E4013091E5014091E6015091E70136
:102CE0008FBF60E078E58BE190E00E94F21E292F13
:102CF00096FD2095E22FEF732F7096FD2F5FE695DE
:102D0000E695E695E670F0E0E45FFE4F8181829FF4
:102D1000202D812D112422952F708295807F282BC4
:102D20008081280F97FD21953FEF2058239F020EA9
:102D300020E0211D112429833A833B83BE016F5C6F
:102D40007F4FCE0101960E944A07F70132962DE48B
:102D5000E20EF11C89A9DF0112978C938AA91196C2
:102D60008C938BA980833396EE15FF0599F780919C
:102D7000C8018F5F8093C801D6CA0E9410089AE2EA
:102D8000899F90011124D6012C91231B08F420E087
:102D9000F60121936F01FEA9FC11EFCFE6ECF1E003
:102DA00028EC31E043E0C42ED12C8081429190E0A8
:102DB000840F911D840F911DB6010E94021FD9013D
:102DC0006E939D01B1E0EC3BFB0779F70E94100880
:102DD0008035D0F40E941008E7E08E9FC0011124D6
:102DE000C92EDD24C7FCDA940E941008FFE58F9FEE
:102DF000C001112430EA390FF601E454FE4F20815E
:102E0000230F08F42FEF2083670122E0C20ED11CAC
:102E10008AE4E80EF11C30EFD8014D918D01439FFB
:102E2000040E40E0411D11242FEF65E773E0CE0151
:102E300001963FAB0E944D082981F601329720830D
:102E40009A81319690838B81F6018083F7013297C6
:102E5000208331969083D7018C93B3E0CB0ED11CA5
:102E6000E3E0EE1AF1083FA9FEA9F013D5CF5BCA43
:102E700083E090E0A1CB828193810A97099708F4BF
:102E800067C169CB80919802843408F0E5C18091D4
:102E90009802863460F1828193810C970B9708F435
:102EA0002BC225C0D90112966D917C9113976E515A
:102EB00071096731710508F057C2D701C601880F43
:102EC000991FAA1FBB1F6C017D016894C0F84E5F5B
:102ED0005F4F2C5F3F4F4534510509F428C2D9019B
:102EE0006D917C916C5071096B307105D8F28091B5
:102EF0009802883580F182819381855891098B35BC
:102F0000910508F441C227C0BC016F5F7F4FD80113
:102F10004D915C911197475051094730510508F088
:102F200042C2220F331F216002960C5F1F4F409157
:102F3000980250E044505109841795070CF03BC2A9
:102F4000A80142505109DA014D915C914950510953
:102F500048305105C8F2809198028032E1F48281B4
:102F6000938106970697B8F484819581099709970C
:102F700090F49F012A5F3F4FBF01625C7F4FC12CDD
:102F8000D12C7601D9014D915C91465051094630C2
:102F9000510508F42CC28091E0019091E1019DABB4
:102FA0008CAB06970CF49CC91F0196E0290E311CCE
:102FB000B5ECCB2EBDE9DB2EBCE1EB2EB1E8FB2E50
:102FC00003E010E0D1016D917C91F1013497A08074
:102FD000B18080E090E00E94D31D2B013C01B5013F
:102FE00080E090E00E94D31D4B015C012DEC3CEC95
:102FF0004CE45FE30E94851E9B01AC01C301B2015A
:103000000E94261D87FD17C02DEC3CEC4CE45FE3CD
:10301000C301B2010E94851E9B01AC01C501B40130
:103020000E94261DE82F880FFF0BEE27FF0FEE1FD3
:10303000FF27319602C0E0E0F0E0A701960163E9C6
:1030400071E080E091E00E94F21E6F01FF0FEE0838
:10305000FF08C626D726E826F9260F5F1F4FB2E0E5
:103060002B0E311CECA9FDA90E171F0709F0AACFE2
:10307000C092D801D092D901E092DA01F092DB013E
:1030800080E290E09093DD018093DC018FEF9FEF71
:1030900093CA84819581CA97899708F057CA9F017E
:1030A0002A5F3F4FC12CD12C760143E050E0D9017B
:1030B0006D917C916A5071096930710508F046CABA
:1030C000D90112966D917C91139766517109613106
:1030D000710570F5D701C601880F991FAA1FBB1F84
:1030E0006C017D016894C0F84E5F5F4F2C5F3F4FCD
:1030F0004B335105E1F69F012A583F4FD9012D91DD
:103100003C912A5031092930310508F01FCA2CE1C1
:1031100030E03093DD012093DC01C092D801D092E1
:10312000D901E092DA01F092DB018AE090E044CA32
:10313000D90112966D917C91139766507109673091
:10314000710508F003CACC0CDD1CEE1CFF1CCCCFB3
:1031500020919802CF01820F911D820F911DDC01F9
:1031600012978D919C910A97099708F0F4C91092D3
:10317000DD011092DC018FEF9FEFDC018093D8011D
:103180009093D901A093DA01B093DB0162C08091E2
:103190009802813208F4E7C984819581CA9789979A
:1031A00008F0E1C99F012A5F3F4FC12CD12C760165
:1031B00043E050E0D9016D917C916A50710969300A
:1031C000710508F0D0C9D90112966D917C911397C1
:1031D000665171096131710560F5D701C601880F2B
:1031E000991FAA1FBB1F6C017D016894C0F84E5F38
:1031F0005F4F2C5F3F4F43325105E1F69F012A5B41
:103200003F4FD9012D913C912A5031092930310588
:1032100008F0A9C920E130E03093DD012093DC0102
:10322000C092D801D092D901E092DA01F092DB018C
:1032300010C0D90112966D917C9113976650710957
:103240006730710508F08FC9CC0CDD1CEE1CFF1C2B
:10325000CECF86E090E0B0C98481958189549109F0
:10326000C39708F014CE9F012A5F3F4FBF016A57F2
:103270007F4FC12CD12C7601D9014D915C914950E1
:1032800051094930510508F002CED90112964D91ED
:103290005C911397465151094131510510F1129635
:1032A0004D915C911397465051094730510508F0F4
:1032B000EECDCC0CDD1CEE1CFF1C2C5F3F4F261707
:1032C0003707D1F620E230E03093DD012093DC01B6
:1032D000C092D801D092D901E092DA01F092DB01DC
:1032E00069C9D701C601880F991FAA1FBB1F6C01AE
:1032F0007D016894C0F8E1CF848195810997099791
:1033000008F0F5CD868197818C974F9708F0EFCD27
:103310008085918589974D9708F0E9CD9F01265FBB
:103320003F4FC12CD12C760145E050E0D8CD9F0114
:1033300026573F4FD9012D913C912C5031092B300C
:10334000310508F0D4CD20E230E03093DD01209348
:10335000DC01C092D801D092D901E092DA01F0925A
:10336000DB0188E090E028C9D90112966D917C912B
:103370001397695071096930710508F0B8CDCC0C0C
:10338000DD1CEE1CFF1CA3CD848195818254910924
:103390008E9708F0E0CD8F01045C1F4F8DE190E027
:1033A00020E030E0C4CD4D915C914851510942314B
:1033B0005105D0F0CB010197959587959093DD014C
:1033C0008093DC018A970CF4C6CDC901330FAA0B98
:1033D000BB0B8093D8019093D901A093DA01B093ED
:1033E000DB0189E090E0E8C8220F331F9DCDD901B1
:1033F00012964D915C9113974951510943315105F2
:1034000008F5D701C601880F991FAA1FBB1F6C01C1
:103410007D016894C0F82C5F3F4F2617370709F0ED
:10342000B1CD2EE030E03093DD012093DC01C0927D
:10343000D801D092D901E092DA01F092DB018FE05D
:1034400090E0BAC8D90112964D915C9113974950FA
:1034500051094930510508F09ECDCC0CDD1CEE1C05
:10346000FF1CD9CF08950F931F93CF93DF93109232
:10347000EB011092EA0188EE93E0A0E0B0E08093C7
:10348000EC019093ED01A093EE01B093EF0188E180
:1034900091E09093E9018093E80185EC90E09093AE
:1034A000F5018093F40184EC90E09093F701809310
:1034B000F60180EC90E09093F9018093F80181ECA3
:1034C00090E09093FB018093FA0182EC90E090935E
:1034D000FD018093FC0186EC90E09093FF018093C6
:1034E000FE01109201021092020210920302109249
:1034F000040284E690E090938602809385028FEF29
:10350000809387021092890210928802109293028F
:10351000109292024FEF5FEFBA0140938E025093E8
:103520008F02609390027093910292E090939502C3
:10353000109297022CE531E03093670320936603E5
:103540001092680395E09093690380936A038AE27E
:1035500091E090936C0380936B0382E391E09093EE
:103560006E0380936D0389E693E0909370038093DC
:103570006F03109271038BE490E00E946E1F909392
:103580007303809372038AE08093740362EC70E0AB
:1035900085E793E00E94F3070E94321C209100010E
:1035A00030910101620F731F70930101609300015C
:1035B0008BE490E00E946E1F9093A6038093A50376
:1035C00080E591E00E946E1F9093F4038093F303D3
:1035D00062E872E0805E9E4F0E94F3078091F303E1
:1035E0009091F40362E472E0C0960E94F307809128
:1035F000F3039091F40362E072E0805A9F4F0E94BF
:10360000F3078091F3039091F40362EC71E080572B
:103610009F4F0E94F3078091F3039091F40362E8B7
:1036200071E080549F4F0E94F3078091F3039091C3
:10363000F40362E471E080519F4F0E94F30762E05F
:1036400071E08091F3039091F4030E94F307C0911D
:10365000A503D091A603FE0132969E01235B3F4F46
:103660009FEFDF0112978FEF9C9311969C939083AD
:103670003396E217F307A9F790911704911144C00C
:10368000109209041092080480930C0480930D0496
:1036900080930E0480930F04809310048093110490
:1036A00081E080931204109214041092130410927B
:1036B0000B0410920A0480911F0490912004892B1E
:1036C00031F486E094E09093200480931F04E0910D
:1036D0000404F0910504309721F086E094E095838E
:1036E000848386E094E09093050480930404109210
:1036F0001604109215048AE491E0909307048093D5
:10370000060481E080931704E0910604F091070419
:103710000480F581E02D86E094E00995D0930904BA
:10372000C093080489E190E09093140480931304FB
:10373000E0910604F09107040284F385E02D86E011
:1037400094E00995009729F19C0140E050E060E485
:1037500072E48FE090E00E94561C722F632F00915C
:103760008A0210918B0220918C0230918D02872F5A
:10377000962FDA0180179107A207B30710F4D90139
:10378000C80180938A0290938B02A0938C02B0931D
:103790008D0286E980938702E0911F04F091200456
:1037A0008FEF90EB20EF309739F086839783208757
:1037B0000480F581E02DF7CF81E08093F203DF9163
:1037C000CF911F910F9108958F929F92AF92BF92C8
:1037D000CF92DF92EF92FF92CF93DF93EC0168815B
:1037E00079818A819B81611571058105910521F49B
:1037F00064E279ED8BE597E02DE133EF41E050E0B5
:103800000E94561C49015A019B01AC01A7EAB1E490
:103810000E94751C6B017C01ACEEB4EFA501940114
:103820000E94831CDC01CB018C0D9D1DAE1DBF1DB4
:10383000B7FF03C00197A109B04888839983AA8381
:10384000BB83BC01CD019F77DF91CF91FF90EF90BB
:10385000DF90CF90BF90AF909F908F9008950E947F
:10386000E41B089582E091E00E94E41B08956093B8
:103870000201709303018093040190930501089560
:10388000F999FECF92BD81BDF89A992780B5089528
:10389000262FF999FECF1FBA92BD81BD20BD0FB66C
:1038A000F894FA9AF99A0FBE01960895052E97FB9F
:1038B0001EF400940E946D1C57FD07D00E94881CC6
:1038C00007FC03D04EF40C946D1C50954095309538
:1038D00021953F4F4F4F5F4F08959095809570957C
:1038E00061957F4F8F4F9F4F08950E94AA1CA59FFF
:1038F000900DB49F900DA49F800D911D11240895EB
:10390000B7FF0C94751C0E94751C821B930B0895C5
:10391000A1E21A2EAA1BBB1BFD010DC0AA1FBB1FD3
:10392000EE1FFF1FA217B307E407F50720F0A21B45
:10393000B30BE40BF50B661F771F881F991F1A94B2
:1039400069F760957095809590959B01AC01BD01DC
:10395000CF010895A29FB001B39FC001A39F700D36
:10396000811D1124911DB29F700D811D1124911D87
:1039700008955058BB27AA270E94D11C0C944B1EB7
:103980000E943D1E38F00E94441E20F039F49F3FF3
:1039900019F426F40C943A1E0EF4E095E7FB0C940F
:1039A000341EE92F0E945C1E58F3BA176207730792
:1039B0008407950720F079F4A6F50C947E1E0EF48A
:1039C000E0950B2EBA2FA02D0B01B90190010C012F
:1039D000CA01A0011124FF27591B99F0593F50F447
:1039E000503E68F11A16F040A22F232F342F44279F
:1039F000585FF3CF469537952795A795F040539597
:103A0000C9F77EF41F16BA0B620B730B840BBAF066
:103A10009150A1F0FF0FBB1F661F771F881FC2F7D1
:103A20000EC0BA0F621F731F841F48F487957795E5
:103A30006795B795F7959E3F08F0B0CF9395880F9F
:103A400008F09927EE0F9795879508950E94101E0C
:103A500008F481E008950E943F1D0C944B1E0E94C3
:103A6000441E58F00E943D1E40F029F45F3F29F0AB
:103A70000C94341E51110C947F1E0C943A1E0E941B
:103A80005C1E68F39923B1F3552391F3951B550BF5
:103A9000BB27AA2762177307840738F09F5F5F4F21
:103AA000220F331F441FAA1FA9F335D00E2E3AF060
:103AB000E0E832D091505040E695001CCAF72BD078
:103AC000FE2F29D0660F771F881FBB1F26173707C9
:103AD0004807AB07B0E809F0BB0B802DBF01FF27FB
:103AE00093585F4F3AF09E3F510578F00C94341E86
:103AF0000C947F1E5F3FE4F3983ED4F38695779550
:103B00006795B795F7959F5FC9F7880F911D9695B3
:103B1000879597F90895E1E0660F771F881FBB1F0F
:103B2000621773078407BA0720F0621B730B840BBC
:103B3000BA0BEE1F88F7E09508950E94A41D6894C3
:103B4000B1110C947F1E08950E94641E88F09F5747
:103B500098F0B92F9927B751B0F0E1F0660F771FB1
:103B6000881F991F1AF0BA95C9F714C0B13091F0A7
:103B70000E947E1EB1E008950C947E1E672F782F60
:103B80008827B85F39F0B93FCCF38695779567956C
:103B9000B395D9F73EF490958095709561957F4FD8
:103BA0008F4F9F4F0895E89409C097FB3EF490957E
:103BB0008095709561957F4F8F4F9F4F9923A9F006
:103BC000F92F96E9BB279395F69587957795679595
:103BD000B795F111F8CFFAF4BB0F11F460FF1BC0D9
:103BE0006F5F7F4F8F4F9F4F16C0882311F096E96C
:103BF00011C0772321F09EE8872F762F05C066231A
:103C000071F096E8862F70E060E02AF09A95660FD2
:103C1000771F881FDAF7880F9695879597F908958B
:103C2000990F0008550FAA0BE0E8FEEF16161706CD
:103C3000E807F907C0F012161306E407F50798F035
:103C4000621B730B840B950B39F40A2661F0232B4E
:103C5000242B252B21F408950A2609F4A140A695CA
:103C60008FEF811D811D089597F99F6780E870E0AF
:103C700060E008959FEF80EC089500240A941616E2
:103C8000170618060906089500240A94121613064A
:103C9000140605060895092E0394000C11F48823D8
:103CA00052F0BB0F40F4BF2B11F460FF04C06F5FF4
:103CB0007F4F8F4F9F4F089557FD9058440F551FCA
:103CC00059F05F3F71F04795880F97FB991F61F09E
:103CD0009F3F79F087950895121613061406551F15
:103CE000F2CF4695F1DF08C0161617061806991F81
:103CF000F1CF86957105610508940895E894BB2776
:103D000066277727CB0197F908950E94981E0C9497
:103D10004B1E0E943D1E38F00E94441E20F0952349
:103D200011F00C94341E0C943A1E11240C947F1E36
:103D30000E945C1E70F3959FC1F3950F50E0551FD4
:103D4000629FF001729FBB27F00DB11D639FAA27F0
:103D5000F00DB11DAA1F649F6627B00DA11D661F3F
:103D6000829F2227B00DA11D621F739FB00DA11D60
:103D7000621F839FA00D611D221F749F3327A00D1A
:103D8000611D231F849F600D211D822F762F6A2FB6
:103D900011249F5750409AF0F1F088234AF0EE0F1B
:103DA000FF1FBB1F661F771F881F91505040A9F748
:103DB0009E3F510580F00C94341E0C947F1E5F3F93
:103DC000E4F3983ED4F3869577956795B795F79584
:103DD000E7959F5FC1F7FE2B880F911D96958795FC
:103DE00097F90895DB018F939F930E94751CBF91F3
:103DF000AF91A29F800D911DA39F900DB29F900D3A
:103E00001124089597FB072E16F4009407D077FD30
:103E100009D00E94541F07FC05D03EF4909581956F
:103E20009F4F0895709561957F4F08950E94AA1C39
:103E3000B7FF0895821B930B08950F93083090F0FD
:103E4000982F872F762F652F542F432F322F22271D
:103E50000850F4CF220F331F441F551F661F771FD2
:103E6000881F991F0A95B2F70F91089597FB10F8D4
:103E7000169400080F93083098F00850232F342F21
:103E8000452F562F672F782F892F902DF4CF05942B
:103E90009795879577956795579547953795279582
:103EA0000A95AAF70F910895AA1BBB1B51E107C001
:103EB000AA1FBB1FA617B70710F0A61BB70B881FBA
:103EC000991F5A95A9F780959095BC01CD01089549
:103ED000EE0FFF1F0590F491E02D0994CF93DF932F
:103EE0008230910510F482E090E0E0912804F09196
:103EF000290420E030E0C0E0D0E0309711F14081AB
:103F0000518148175907C0F04817590761F4828159
:103F10009381209719F09B838A832BC09093290467
:103F20008093280426C02115310519F04217530744
:103F300018F49A01BE01DF01EF010280F381E02D48
:103F4000DCCF2115310509F1281B390B243031054F
:103F500090F412968D919C9113976115710521F043
:103F6000FB019383828304C09093290480932804E7
:103F7000FD01329644C0FD01E20FF31F819391933E
:103F8000225031092D933C933AC020912604309160
:103F90002704232B41F4209108013091090130932B
:103FA0002704209326042091060130910701211552
:103FB000310541F42DB73EB740910A0150910B01F4
:103FC000241B350BE0912604F0912704E217F30738
:103FD000A0F42E1B3F0B2817390778F0AC014E5F79
:103FE0005F4F2417350748F04E0F5F1F509327048B
:103FF000409326048193919302C0E0E0F0E0CF016A
:10400000DF91CF9108950F931F93CF93DF93009784
:1040100009F48CC0FC0132971382128200912804AB
:10402000109129040115110581F420813181820F3D
:10403000931F20912604309127042817390779F51A
:10404000F0932704E093260471C0D80140E050E0CB
:10405000AE17BF0750F412962D913C911397AD0106
:104060002115310509F1D901F3CF9D01DA0133831F
:10407000228360817181860F971F8217930769F4ED
:10408000EC0128813981260F371F2E5F3F4F318386
:1040900020838A819B8193838283452B29F4F0932B
:1040A0002904E093280442C01396FC93EE931297E0
:1040B000ED01499159919E01240F351FE217F30735
:1040C00071F480819181840F951F029611969C93C3
:1040D0008E938281938113969C938E931297E0E046
:1040E000F0E0D80112968D919C911397009719F0EA
:1040F000F8018C01F6CF8D919C9198012E5F3F4F76
:10410000820F931F20912604309127042817390726
:1041100069F4309729F4109229041092280402C0FF
:10412000138212821093270400932604DF91CF910B
:104130001F910F91089581E090E0F8940C94A020D5
:1041400011E0C2E6D1E004C0FE010E94681F219682
:0A415000C336D107C9F7F894FFCF7A
:10415A0039050100000000002A04800000313129DD
:10416A005A1B750A00000000F901E00C9101400297
:10417A00C201A001B40100000000F00774030000AE
:10418A000000F2077203000000007003700370035E
:10419A004C0348034503000000000203BE02BC02B0
:1041AA004C034803B902780300000000F1077603C4
:1041BA000D0A006C6F616400736176653A200045F0
:1041CA0078636565646564206D6178696D756D20D5
:1041DA006E756D626572206F662077726974657399
:1041EA0000417474656D707420746F2077726974FD
:1041FA0065206F757473696465206F662045455044
:0C420A00524F4D206D656D6F7279000001
:00000001FF
