:100000000C94E4010C940C020C940C020C940C0261
:100010000C940C020C940C020C940C020C94A4068C
:100020000C940C020C940C020C940C020C940C0218
:100030000C940C020C940C020C940C020C940C0208
:100040000C94020E0C940C020C9472060C944C0648
:100050000C940C020C940C020C940C020C940C02E8
:100060000C940C020C940C020000000024002700E9
:100070002A0097A0895B5A0F830DC95F6035C2E9DA
:1000800007E18C24671E458E086325F0150A17BE0C
:100090000694F778EA4B001AC53E5EFCDBCB75236D
:1000A0000B2039B12158ED953857AE147D88ABA897
:1000B00044AF4AA547868B301BA64D929EE7536FEF
:1000C000E57A3CD385E6DC695C29372EF528F466B1
:1000D0008F3641193FA101D85049D14C84BBD0592A
:1000E00012A9C8C4878274BC9F56A4646DC6ADBAF9
:1000F000034034D9E2FA7C7B05CA2693767EFF5210
:1001000055D4CFCE3BE32F103A11B6BD1C2ADFB732
:10011000AAD577F898022C9AA346DD99659BA72B60
:10012000AC09811627FD13626C6E4F71E0E8B2B91D
:100130007068DAF661E4FB22F2C1EED2900CBFB334
:10014000A2F1513391EBF90EEF6B31C0D61FB5C759
:100150006A9DB854CCB07379322D7F0496FE8AEC38
:10016000CD5DDE72431D1848F38D80C34E42D73DEE
:100170009CB497000000002300260029000000FF27
:1001800000002AD5000055AB00007FAB0000ABABF0
:100190000000D5560000FF00002AD5000055AB0036
:1001A00000AA560000FF000000D5002A00AB005551
:1001B0000081007F005500AB002B00D5000000FF40
:1001C00000000000000055AB000000000000ABABD9
:1001D000000000000000FF00000000000055AB0020
:1001E0000000000000FF00000000000000AB005510
:1001F00000000000005500AB0000000000000000FF
:10020000000000330000006600000099000000CCF0
:10021000000000FF000033FF000066FF000099FFB0
:100220000000CCFF0000FFFF0033FFFF0066FFFF70
:100230000099FFFF00CCFFFF00FFFFFF00AB005560
:10024000007C0084004B00B5001B00E5000017E8AF
:10025000000047B8000077AB0000ABAB000055AB27
:10026000000022DD000E00F2003E00C20071008F8F
:1002700000A1005F00D0002F00F90700000064001B
:1002800000006400002F6B55000064000000800037
:1002900000228B2200238E6B0000800000578B2EE3
:1002A00000AACD660032CD320032CD9A0090EE9099
:1002B0000000FC7C00AACD6600228B22000000001A
:1002C0000000008000000000000000800000008BA3
:1002D000000000800000008B0000008B0000008BFD
:1002E000000000FF0000A5FF00FFFFFF0000A5FFCA
:1002F000000000FF0000008B0000000000FF000075
:10030000008B0000008B0000008B0000008B0000C1
:10031000008B0000008B0000008B000000FF00003D
:10032000008B000000EBCE8700EBCE8700E6D8AD57
:1003300000FFFFFF00E6D8AD00EBCE870070191973
:10034000008B00000070191900800000008B000075
:1003500000CD000000578B2E0080800000A09E5F23
:1003600000FF0000008B8B0000ED956400D4FF7F40
:1003700000578B2E00FFFF0000FACE870000000020
:1003800000250028002B00040404040404040402D3
:100390000202020202030303030303010204081022
:1003A00020408001020408102001020408102000EF
:1003B0000000080002010000030407000000000024
:1003C00000000000A11DA01D11241FBECFEFD8E02A
:1003D000DEBFCDBF11E0A0E0B1E0E6E4F8E402C08A
:1003E00005900D92AC3BB107D9F724E0ACEBB1E03E
:1003F00001C01D92A234B207E1F711E0C3EED1E0D3
:1004000004C02197FE010E94DE22C23ED107C9F737
:100410000E944C0E0C9416240C940000089580E069
:1004200090E00895FC01538D448D252F30E0842FFA
:1004300090E0821B930B541710F0CF96089501970C
:100440000895FC01918D828D981761F0828DDF01F6
:10045000A80FB11D5D968C91928D9F5F9F73928FB7
:1004600090E008958FEF9FEF0895FC01918D828DAC
:10047000981731F0828DE80FF11D858D90E0089579
:100480008FEF9FEF0895FC01918D228D892F90E0D1
:10049000805C9F4F821B91098F73992708958AEE84
:1004A00091E00E94430221E0892B09F420E0822F91
:1004B0000895FC01848DDF01A80FB11DA35ABF4F21
:1004C0002C91848D90E001968F739927848FA68953
:1004D000B7892C93A089B1898C9180648C93938D7A
:1004E000848D981306C00288F389E02D80818F7D6A
:1004F00080830895EF92FF920F931F93CF93DF9322
:10050000EC0181E0888F9B8D8C8D981305C0E88964
:10051000F989808185FD24C0F62E0B8D10E00F5FD8
:100520001F4F0F731127E02E8C8DE8120CC00FB6F1
:1005300007FCFACFE889F989808185FFF5CFCE01E4
:100540000E945902F1CF8B8DFE01E80FF11DE35A95
:10055000FF4FF0820B8FEA89FB898081806207C0A0
:10056000EE89FF896083E889F989808180648083CE
:1005700081E090E0DF91CF911F910F91FF90EF907C
:100580000895CF93DF93EC01888D8823C9F0EA8921
:10059000FB89808185FD05C0A889B9898C9186FD7C
:1005A0000FC00FB607FCF5CF808185FFF2CFA88979
:1005B000B9898C9185FFEDCFCE010E945902E7CF1A
:1005C000DF91CF91089580E090E0892B29F00E947F
:1005D0004F0281110C9400000895EF92FF920F9347
:1005E0001F93CF93DF93EC019091E9019F5F292F37
:1005F00027702093E90190FF02C090E801C090E0CD
:1006000021FD9064247009F0906220E1290FFE0121
:100610003C967E018FE0E80EF11C00E011E0619154
:10062000662331F070E0C8010E9478226F5F01C03C
:1006300060E0DF0114976C93322F369F030E30E099
:10064000311D1124CF010797311103C0EC0118822D
:1006500003C03150EC013883662311F061506C9374
:10066000EE15FF05E1F6DF91CF911F910F91FF90FD
:10067000EF90089580E991E00895559A08950F93B9
:100680001F93CF93DF93CDB7DEB762970FB6F89481
:10069000DEBF0FBECDBF8C01F901DC011C968C9131
:1006A0007A8369835C834B835E834D8390819D87CE
:1006B00091819E8792819F87813029F4CE01019696
:1006C0000E94ED0206C01C861B861A8619861886B3
:1006D0001F8283E0888B1A8A198AD801ED91FC91D8
:1006E0000484F585E02DBE016F5F7F4FC801099539
:1006F00062960FB6F894DEBF0FBECDBFDF91CF91EB
:100700001F910F9108950F931F93CF93DF93CDB750
:10071000DEB762970FB6F894DEBF0FBECDBF8C0177
:10072000F901DC011C968C917A8369835C834B838D
:100730005E834D8390819D8791819E8792819F8763
:10074000813029F4CE0101960E94ED0206C01C867C
:100750001B861A86198618861F82188A1A8A198A91
:10076000D801ED91FC910484F585E02DBE016F5F09
:100770007F4FC801099562960FB6F894DEBF0FBE91
:10078000CDBFDF91CF911F910F91089580E090E050
:100790000895FC01858596850895CF93DF9300D059
:1007A00000D000D0CDB7DEB7AB011C821D821E8207
:1007B000DC01ED91FC910190F081E02D19821A820B
:1007C0001B829E012F5F3F4FBE016C5F7F4F0995DB
:1007D00026960FB6F894DEBF0FBECDBFDF91CF9146
:1007E00008950E9411240C9479230C9479230C947D
:1007F00079234F925F926F927F928F92AF92BF92C6
:10080000CF92EF92FF920F931F93CF93DF933C0110
:10081000EB010E94D10DF30127853089621B730B18
:100820006A307105B0F3F894E881F9815BB15062E8
:100830008BB18F7D8BB96A859F81262F291B922FC3
:100840002F83BF844A805B807D85FC84EE847F5F3C
:10085000F394E3943E814885A984CB841181D2012D
:1008600020E0C32F022F322F3181112788943111BC
:10087000390F08F43FEF9195889470FD130F179589
:10088000889471FD130F1795889472FD130F1795B7
:10089000889473FD130F1795889474FD130F1795A3
:1008A000889475FD130F1795889476FD130F17958F
:1008B000889477FD130F17958894232F7111212F9A
:1008C000960F122F002C5BB900C017FF8BB9308137
:1008D0002227889400C000C0002C8BB931113C0F36
:1008E00000C0002C5BB900C016FF8BB908F43FEFC5
:1008F000C195889400C000C0002C8BB9F0FC230F78
:1009000000C0002C5BB900C015FF8BB927958894F7
:10091000F1FC230F00C000C0002C8BB927958894F0
:1009200000C0002C5BB900C014FF8BB9F2FC230F90
:100930002795889400C000C0002C8BB9F3FC230FCE
:1009400000C0002C5BB900C013FF8BB927958894B9
:10095000F4FC230F00C000C0002C8BB927958894AD
:1009600000C0002C5BB900C012FF8BB9F5FC230F4F
:100970002795889400C000C0002C8BB9F6FC230F8B
:1009800000C0002C5BB900C011FF8BB9279588947B
:10099000F7FC230F00C000C0002C8BB9279588946A
:1009A00000C0002C5BB900C010FF8BB9132FF110F1
:1009B000122FCA0D00C000C0002C8BB900C000C0AF
:1009C000002C5BB900C017FF8BB9328122278894B5
:1009D00000C000C0002C8BB93111340F00C0002CB6
:1009E0005BB900C016FF8BB908F43FEFEB0DF11DAA
:1009F00000C000C0002C8BB9E0FC230F00C0002C0D
:100A00005BB900C015FF8BB927958894E1FC230FD3
:100A100000C000C0002C8BB92795889400C0002C22
:100A20005BB900C014FF8BB9E2FC230F27958894B3
:100A300000C000C0002C8BB9E3FC230F00C0002CC9
:100A40005BB900C013FF8BB927958894E4FC230F92
:100A500000C000C0002C8BB92795889400C0002CE2
:100A60005BB900C012FF8BB9E5FC230F2795889472
:100A700000C000C0002C8BB9E6FC230F00C0002C86
:100A80005BB900C011FF8BB927958894E7FC230F51
:100A900000C000C0002C8BB92795889400C0002CA2
:100AA0005BB900C010FF8BB9132FE110122F4195D5
:100AB00000C000C0002C8BB94C0D00C000C05BB959
:100AC00000C017FF8BB931812227889400C000C075
:100AD000002C8BB93111390F00C0002C5BB900C05C
:100AE00016FF8BB908F43FEF9195889400C000C0C1
:100AF000002C8BB970FD230F00C0002C5BB900C027
:100B000015FF8BB92795889471FD230F00C000C095
:100B1000002C8BB92795889400C0002C5BB900C0CD
:100B200014FF8BB972FD230F2795889400C000C075
:100B3000002C8BB973FD230F00C0002C5BB900C0E3
:100B400013FF8BB92795889474FD230F00C000C054
:100B5000002C8BB92795889400C0002C5BB900C08D
:100B600012FF8BB975FD230F2795889400C000C034
:100B7000002C8BB976FD230F00C0002C5BB900C0A0
:100B800011FF8BB92795889477FD230F00C000C013
:100B9000002C8BB92795889400C0002C5BB900C04D
:100BA00010FF8BB9132F7111122F960F00C000C0C8
:100BB000002C8BB9119709F086CE20EE31E0D201DE
:100BC0000E948C22DC01CB01F4E0B695A7959795A5
:100BD0008795FA95D1F720E030E0A9016AE9469EB1
:100BE000040C411D569E400D511D1124450D511DF3
:100BF000840F951FA11DB11D893E43E09407A105F7
:100C0000B10508F434C0885E9340A109B10942E0FF
:100C1000B695A795979587954A95D1F747E0849F14
:100C2000080E211D949F200D311D1124290F311D07
:100C30006091E80170E0860F971F820F931F40912B
:100C40002504509126046091270470912804292FCF
:100C50003327420F531F611D711D4093250450938C
:100C6000260460932704709328048093E801789405
:100C70000E94D10DF301708B6787DF91CF911F9197
:100C80000F91FF90EF90CF90BF90AF908F907F909B
:100C90006F905F904F9008951F920F920FB60F9232
:100CA00011242F933F934F935F936F937F938F9371
:100CB0009F93AF93BF93EF93FF938AEE91E00E94CF
:100CC0005902FF91EF91BF91AF919F918F917F91C9
:100CD0006F915F914F913F912F910F900FBE0F90A9
:100CE0001F9018951F920F920FB60F9211242F93F9
:100CF0008F939F93EF93FF93E091FA01F091FB01A3
:100D00008081E0910002F091010282FD12C0908189
:100D1000809103028F5F8F7320910402821751F03C
:100D2000E0910302F0E0E651FE4F958F80930302BD
:100D300001C08081FF91EF919F918F912F910F9032
:100D40000FBE0F901F9018951F920F920FB60F9223
:100D500011242F933F934F935F936F937F938F93C0
:100D60009F93AF93BF93CF93DF93EF93FF93209124
:100D7000970230E0F901E155FC4F8491F901E55605
:100D8000FC4FD491F901E957FC4FC491CC23A1F059
:100D900081110E94780DEC2FF0E0EE0FFF1FED584F
:100DA000FE4FA591B491EC91ED2331E020E009F4E0
:100DB00030E0832F922F02C080E090E020919B02D0
:100DC00030919C022F5F3F4F30939C0220939B02F7
:100DD00020919A02253618F026E020939602209161
:100DE00096022430D9F128F4223069F02330D9F06A
:100DF00060C0253009F453C0263009F05AC021E004
:100E00002093670353C0009709F053C020919B02C1
:100E100030919C022436310508F443C010926703D8
:100E200010929A021DC08130910509F042C0E091F4
:100E30009A0221E02E0F20939A02F0E020919B026B
:100E400030919C02EE0FFF1FEA56FD4F308727833B
:100E500010929C0210929B0224E029C00097B9F4E2
:100E6000E0919A0221E02E0F20939A02F0E0209167
:100E70009B0230919C02EE0FFF1FEA56FD4F308718
:100E8000278310929C0210929B0223E010C02091B5
:100E90009B0230919C022536310558F007C000971F
:100EA00041F410929C0210929B0203C025E0209313
:100EB0009602209199022223B9F0892B51F4809156
:100EC0009802882321F08091980261E009C02D9A50
:100ED0000BC080919802882331F08091980260E0E5
:100EE0000E94A10D01C02D98FF91EF91DF91CF914C
:100EF000BF91AF919F918F917F916F915F914F9132
:100F00003F912F910F900FBE0F901F901895CF9289
:100F1000DF92EF92FF92CF93DF93EC01072E000C4C
:100F2000880B990B0E944B216B017C0120E030E083
:100F300040E45FE30E94FB2120E030E048E452E41B
:100F40000E94A1200E941321C617D707D4F020E0E9
:100F500030E040EA5FE3C701B6010E94FB2120E0D8
:100F600030E048E452E40E94A12020E030E040E874
:100F70005FE30E9430200E94132121E06C177D075F
:100F80000CF420E0822F90E0DF91CF91FF90EF9062
:100F9000DF90CF900895DC01FB014C9111965C919C
:100FA000119712967C91342F3F71330F330F832F9B
:100FB000880F35E5282F239F020E20E0211D1124E4
:100FC000642F6074942F907247FD21C061110BC093
:100FD000911104C0822F8095422F11C045E5420F28
:100FE00030E02BEA33C091110DC0382F4AEA349F0C
:100FF000030E30E0311D11248BEA831B420F282F92
:1010000030E024C080E0422F4095322F0EC06111A5
:1010100011C091110CC0382F2AEA329F030E30E024
:10102000311D11244BEA431B3B5A20E00FC0322FE5
:1010300030950BC0911104C085E5820F3BEA03C0D7
:101040008AEA820F90E0321B282F40E05F3F11F1C7
:101050005523E9F0222321F0259F020E20E0211DD7
:10106000442321F0459F040E40E0411D332321F02D
:10107000359F030E30E0311D11245095559F050E0C
:1010800050E0511D1124250F450F350F03C03FEFD0
:101090004FEF2FEF7F3F09F420C050E0772321F07E
:1010A000779F512D09F05F5F5523A1F0222321F096
:1010B000259F020E20E0211D442321F0459F040EB0
:1010C00040E0411D332321F0359F030E30E0311DF8
:1010D000112403C030E040E020E0208341833283CC
:1010E0000895089508950895CF93DF93EB01DC01EF
:1010F000129620E030E0FE01E20FF31F459155917A
:1011000065917491FD0132976083319650834C93C1
:101110002C5F3F4F13962034310569F7DF91CF9153
:101120000895482F982F46FD9095E92FEF739F70F3
:1011300046FD9F5FE695E695E695E670F0E0E45F94
:10114000FE4F2181299F802D212D112482958F70A2
:101150002295207F822B3081982F930F892F47FD76
:10116000819580580895609100017091010145E0DA
:1011700058E0649F9001659F300D749F300D1124DD
:10118000275E394C3093010120930001230F289FE3
:10119000C0011124892F089520E330E0FB01DC0118
:1011A00020FF05C002C001900D9201900D922250C7
:1011B000D0F73040C0F7089520E8382F629FC00173
:1011C0002095329F800D911D1124830F911D860F54
:1011D000911D892F08958617970710F40C94CC0859
:1011E000C096605D7F4F20E330E0FB01DC0120FF13
:1011F00005C002C002900E9202900E922250D0F7CB
:101200003040C0F70895FC013296AC01455B5F4F5A
:10121000DC012C91269F020E20E0211D2C93DF0182
:101220002E91269F020E20E0211D2C932081269FC7
:10123000020E20E0211D208311240396339684178B
:10124000950731F708950F931F93CF93DF93EC0128
:101250008B01FB01608188810E94DC088883F80192
:10126000618189810E94DC088983F80162818A8119
:101270000E94DC088A83CE01DF91CF911F910F91EC
:1012800008951F93142F12951F704F70FB01312F7B
:10129000330F310FDB01A30FB11D6C9111965C91DF
:1012A000119712963C911297442309F427C01F30DE
:1012B00011F0FD0133964295407F142F10957081F7
:1012C000619F060E60E0611D749F070E70E0711D46
:1012D000670F7181519F050E50E0511D749F070EDD
:1012E00070E0711D570F7281319F030E30E0311D88
:1012F000749F070E70E0711D370F11242F3FD1F03E
:101300002223A9F02F5F662321F0629F060E60E082
:10131000611D552321F0529F050E50E0511D3323CE
:1013200021F0329F030E30E0311D112403C030E064
:1013300050E060E0FC016083518332831F91089587
:10134000009769F0FC0101900020E9F73197AF01A7
:10135000481B590BBC018AEE91E00C94580C80E0BC
:1013600090E008958F929F92AF92BF920F931F9338
:10137000CF93DF93CDB7DEB7A1970FB6F894DEBF5A
:101380000FBECDBF19A2423008F44AE08E010F5DB6
:101390001F4F842E912CA12CB12CA50194010E94E9
:1013A000FE1FE62FB901CA0101501109EA3014F4F9
:1013B000E05D01C0E95CD801EC93232B242B252BA5
:1013C00061F7C8010E94A009A1960FB6F894DEBF8C
:1013D0000FBECDBFDF91CF911F910F91BF90AF9006
:1013E0009F908F90089590917603282F082E000CDF
:1013F000330B290F311D215031092D31310518F4DE
:10140000980F909376036091760370E080E090E00F
:101410004AE00E94B20980E691E00C94A009BC0168
:101420008BE793E00C94EB088F929F92BF92CF9240
:10143000DF92EF92FF920F931F93CF93DF9300D031
:101440001F92CDB7DEB7162FB42E49017C0122E0E2
:10145000E20EF11C6C01EDE4CE0ED11C202F412FC9
:10146000B401CE0101960E944109F70132978981AA
:10147000808331968A8180838B81F70180831B0D65
:10148000F3E0EF0EF11CEC14FD0441F70F900F9008
:101490000F90DF91CF911F910F91FF90EF90DF9010
:1014A000CF90BF909F908F9008953F924F925F9200
:1014B0006F927F928F929F92AF92BF92CF92DF9264
:1014C000EF92FF920F931F93CF93DF9300D01F9261
:1014D000CDB7DEB7F82E80918C0290918D02A0914D
:1014E0008E02B0918F02892B8A2B8B2BE9F00E9400
:1014F000D10D00910404109105042091060430914F
:101500000704DC01CB01801B910BA20BB30B0091F4
:101510008C0210918D0220918E0230918F028017E3
:101520009107A207B307B8F20E94D10D609304049B
:10153000709305048093060490930704E09194024D
:10154000F0919502309759F040919002509191029C
:1015500060919202709193028F2D0995F82E00915F
:101560002304109124044F2C512C612C712C011553
:10157000110509F461C0D8011C96EC901C9780916C
:101580008A0290918B028436910510F41C961C926D
:10159000D801ED91FC91A280B38019821A821B823E
:1015A000F11014C0F80145855685628173819E0152
:1015B0002F5F3F4FC801F5010995D8011C96EC92A9
:1015C0001C9714960D911C911597D1CFF80139965F
:1015D000CE0101966C0148019CE0890E911CDF014F
:1015E00013973C902191332001F12223F1F0822FB7
:1015F00090E0A0E0B0E09C01AD012F5F3F4F4F4F66
:101600005F4FC301B2010E9468229B01AC01832D90
:1016100090E0A0E0B0E0BC01CD016F5F7F4F8F4F45
:101620009F4F0E946822D6018C93BFEFCB1ADB0A32
:10163000E815F905A1F6B6CF809102049091030454
:101640008C010F5F1F4F109303040093020449970E
:101650009CF10E94F60D4B015C0188EE93E0089F1F
:10166000B001099F700D189F700D1124072E000CFA
:10167000880B990BC090FE03D090FF03E09000040C
:10168000F0900104A50194012C193D094E095F0950
:101690000E94FE1F30938B0220938A021092030453
:1016A000109202040E94F60D6093FE037093FF03F4
:1016B00080930004909301040F900F900F90DF919E
:1016C000CF911F910F91FF90EF90DF90CF90BF903F
:1016D000AF909F908F907F906F905F904F903F90D2
:1016E0000895CF93DF930E94A009EC0180E691E07A
:1016F0000E94A0098C0F9D1FDF91CF91089520912A
:10170000FC033091FD032F5F3F4F3093FD03209387
:10171000FC0340918702509188024115510519F050
:10172000421753071CF48FE691E005C081309240C8
:1017300034F081E991E00E94710B80E0089581E02E
:1017400008959C012F5F3F4F2130324014F40C94D8
:10175000B61F81E991E00E94710B80E00895EF923D
:10176000FF921F93CF93DF93EC01162F7C018FEF35
:10177000E81AF80AC7010E947F0B811103C020E01C
:1017800030E012C0CE010E94A10B811791F0C70179
:101790000E947F0B882321F0612FCE010E94BE1F83
:1017A00091E080E0292F382F81E0232B21F480E085
:1017B00002C090E0F6CFDF91CF911F91FF90EF90A4
:1017C0000895CF93DF9380937303E091AB03F0917F
:1017D000AC03329680E090E0A0917403B091750361
:1017E000A80FB91FEF01229728812C9321962881F9
:1017F00011962C931197208112962C930396339671
:101800008B34910549F7DF91CF9108950F93E8E666
:10181000F3E0828394812091F9033091FA0340E34D
:10182000949F200D311D1124009189024381682F5E
:101830008091AB039091AC030E94140A0F9108951C
:101840000F93E8E6F3E0838394812091F9033091CC
:10185000FA0340E3949F200D311D11240091890269
:10186000482F62818091AB039091AC030E94140ACF
:101870000F910895CF93DF93EC0180E00E94E10B7C
:101880002091AB033091AC03F9013296235B3F4FBB
:101890008881DF0112978C93898111968C938A81BC
:1018A00080833396E217F30799F7DF91CF9108957C
:1018B000CF92DF92EF92FF920F931F93CF93DF931C
:1018C0006C017A018B01C0E0D0E0CE15DF0589F014
:1018D000D8016D918D01D601ED91FC910190F081BF
:1018E000E02DC6010995892B11F47E0102C02196D5
:1018F000ECCFC701DF91CF911F910F91FF90EF9037
:10190000DF90CF9008950F931F93CF93DF938C01B7
:1019100080E00E94E10BE091AB03F091AC039F01EA
:101920002F5F3F4FDF011296AF01445B5F4FE8012D
:101930008A818F3F41F49C91692F70E06630710578
:1019400014F095509C93E80188818F3F41F4908179
:10195000692F70E06630710514F095509083E801AE
:101960008981803849F4E9019881692F70E06630F7
:10197000710514F0955098832D5F3F4F3396139661
:1019800024173507A1F6DF91CF911F910F9108958C
:10199000CF93DF93EC0180E00E94E10BE091AB0379
:1019A000F091AC039F012E5F3F4FAF01455B5F4F4E
:1019B000D9019C918A818F3F39F4692F70E06A3F89
:1019C000710514F49B5F9C9388818F3F41F4908153
:1019D000692F70E06A3F710514F49B5F90838981E1
:1019E000803849F4D9019E91692F70E06A3F7105F2
:1019F00014F49B5F9C932D5F3F4F3396E417F507DC
:101A0000B9F6DF91CF9108958F929F92AF92BF92D6
:101A1000CF92DF92EF92FF920F931F93CF93DF93BA
:101A2000FC01C081D1812091350430913604C21768
:101A3000D3070CF04BC09E01220F331FE0913304FB
:101A4000F0913404E20FF31F80809180C170DD2794
:101A5000F1E0CF27209719F404E610E002C00CE96A
:101A60001FEF7A015B016C01040F151FB801C4015F
:101A70000E948707892B99F40E0D1F1DB801C40120
:101A80000E948707892B71F4B8016E0D7F1DC40178
:101A90000E948707892BE9F023E030E005C021E0B0
:101AA00030E002C022E030E0F501808191810196B2
:101AB000821793073CF0F50111821082F6018081B4
:101AC0009181019691838083CE0105C081E090E0F1
:101AD00002C08FEF9FEFDF91CF911F910F91FF9089
:101AE000EF90DF90CF90BF90AF909F908F90089530
:101AF000833081F028F4813099F08230A1F008958C
:101B00008730A9F08830B9F08430D1F4809180001A
:101B10008F7D03C0809180008F778093800008952F
:101B200084B58F7702C084B58F7D84BD0895809180
:101B3000B0008F7703C08091B0008F7D8093B0009C
:101B400008951F93CF93DF93282F30E0F901E155DB
:101B5000FC4F8491F901E556FC4FD491F901E95706
:101B6000FC4FC491CC23C9F0162F81110E94780D2F
:101B7000EC2FF0E0EE0FFF1FE358FC4FA591B4915E
:101B80008FB7F894111105C09C91ED2FE095E923D2
:101B900002C0EC91ED2BEC938FBFDF91CF911F91A1
:101BA00008953FB7F89480913A0490913B04A09136
:101BB0003C04B0913D0426B5A89B05C02F3F19F009
:101BC0000196A11DB11D3FBFBA2FA92F982F8827BD
:101BD000820F911DA11DB11DBC01CD0142E0660F18
:101BE000771F881F991F4A95D1F708952FB7F8944A
:101BF0006091250470912604809127049091280417
:101C00002FBF08951F920F920FB60F9211242F939A
:101C10003F938F939F93AF93BF93809125049091AF
:101C20002604A0912704B09128043091390423E0C0
:101C3000230F2D3720F40196A11DB11D05C026E804
:101C4000230F0296A11DB11D209339048093250412
:101C500090932604A0932704B093280480913A041B
:101C600090913B04A0913C04B0913D040196A11DCC
:101C7000B11D80933A0490933B04A0933C04B0932D
:101C80003D04BF91AF919F918F913F912F910F9004
:101C90000FBE0F901F901895CF93DF93CDB7DEB78F
:101CA000E7970FB6F894DEBF0FBECDBF789484B52A
:101CB000826084BD84B5816084BD85B5826085BD48
:101CC00085B5816085BD80916E00816080936E00D6
:101CD00010928100809181008260809381008091C8
:101CE0008100816080938100809180008160809379
:101CF00080008091B10084608093B1008091B00039
:101D000081608093B00080917A00846080937A0033
:101D100080917A00826080937A0080917A0081605D
:101D200080937A0080917A00806880937A00109284
:101D3000C1001092E4011092E5011092E6011092A8
:101D4000E701809189020E94550AE091FA01F09121
:101D5000FB0182E08083E091F601F091F7011082AF
:101D6000E091F801F091F9019FEC9083109202024A
:101D7000E091FE01F091FF0196E09083E091FC017B
:101D8000F091FD01908190619083E091FC01F091D0
:101D9000FD01908198609083E091FC01F091FD013C
:101DA000908190689083E091FC01F091FD01908119
:101DB0009F7D9083F8948093B0008093B10094E667
:101DC0009093B3001092B200809370007894809347
:101DD000960210929A028091970290E0FC01E556DB
:101DE000FC4F2491FC01E957FC4F84918823C9F0F2
:101DF00090E0880F991FFC01E859FF4F45915491DD
:101E0000FC01E358FC4FA591B4919FB7F894FA01F7
:101E100080812095822380838C91E22FE823EC93AC
:101E20009FBF86EC91E0FCE0F80FFEAB8DE992E0FD
:101E3000909334048093330480919A0290E09093BD
:101E40003604809335048091670390E090933804C2
:101E50008093370480919602853009F0F0C280911A
:101E60009F029091A002885891098D35910588F4C0
:101E700080919A02843041F48091A1029091A20253
:101E80008097479708F421C380919A02843408F020
:101E900003C380919A028A3108F454C080919D0254
:101EA00090919E02843F914080F4109232041092EF
:101EB00031048FEF9FEFDC0180932D0490932E046B
:101EC000A0932F04B09330045BC080919F02909147
:101ED000A00285974B97B0F5E3EAF2E082E090E04C
:101EE00040E050E0BA018C010F5F1F4F20919A0231
:101EF00030E0021713076CF49F0122503109D90119
:101F00002D913C91275031092730310508F426C323
:101F1000C801019795958795909332048093310479
:101F20000C972CF410923204109231040BC04093A1
:101F30002D0450932E0460932F047093300484E09A
:101F400090E0EDC380919A028A3108F44DC08091EF
:101F50009D0290919E028032934008F4A6CF80911A
:101F60009F029091A002C697869708F413C33CC0C5
:101F700040932D0450932E0460932F0470933004EB
:101F80008BE090E0CCC320813181255231092B3187
:101F9000310508F00FC3440F551F661F771F4160BE
:101FA000029634968C010F5F1F4F20919A0230E009
:101FB0000217130764F49F0122503109D9012D91B2
:101FC0003C912C5031092B303105E8F2C8010197C2
:101FD0009595879590933204809331040C9744F63D
:101FE000109232041092310480919A02823208F4E5
:101FF0004DC080919F029091A0020697079708F02C
:1020000045C0E3EAF2E082E090E0C12CD12C7601F9
:102010009C012F5F3F4F40919A0250E024173507F3
:10202000E4F4DF0112974D915C9111974E515109E3
:102030004731510508F0CBC2CC0CDD1CEE1CFF1C57
:102040006894C0F84081518134964350510945301D
:10205000510510F40296DCCFC9010197959587953B
:10206000909332048093310440972CF41092320400
:10207000109231040BC0C0922D04D0922E04E09235
:102080002F04F09230048CE090E049C31AAA19AAF8
:1020900081E090E09A83898380919A028D3008F4E0
:1020A0006BC049E753E0BE016F5C7F4FCE010196E4
:1020B0000E94040D892B09F05FC049E753E0BE017F
:1020C0006F5C7F4FCE0101960E94040D019709F0CD
:1020D00053C049E753E0BE016F5C7F4FCE010196CC
:1020E0000E94040D892B09F047C0812C912C5401CA
:1020F00000E010E080919A0290E029813A8128174F
:1021000039075CF549E753E0BE016F5C7F4FCE01B4
:1021100001960E94040D7C0149E753E0BE016F5C0B
:102120007F4FCE0101960E94040DB1E0EB16F10441
:1021300049F4892B09F5880C991CAA1CBB1C6894CE
:1021400080F808C0EF28C1F40197B1F4880C991CFD
:10215000AA1CBB1C0F5F1F4FCDCF109332040093FE
:10216000310480922D0490922E04A0922F04B092FC
:10217000300481E090E0D3C21AAA19AA81E090E06D
:102180009A83898380913504909136041816190634
:102190000CF058C0E0913304F091340482E090E0F8
:1021A0009A8389838281938189974E9708F04AC0E8
:1021B00083E090E09A838983848195810B970A97C5
:1021C00008F040C04CEB51E0BE016F5C7F4FCE0188
:1021D00001960E94040D892BA9F54CEB51E0BE013C
:1021E0006F5C7F4FCE0101960E94040D019751F55F
:1021F000812C912C540100E010E029813A818091DA
:10220000350490913604281739070CF023C24CEBA3
:1022100051E0BE016F5C7F4FCE0101960E94040D1C
:102220006C010330110509F0DFC14CEB51E0BE0138
:102230006F5C7F4FCE0101960E94040DC816D9062F
:1022400009F4D2C1E0913304F09134048281938186
:10225000C697869708F01AC2848195814B97459757
:1022600008F014C2DF0116967F0196ECE90EF11C0E
:1022700020E030E040E050E060E070E080E090E09E
:102280000D911C911197095011090830110508F0A2
:10229000FDC112960D911C911397015111090D303A
:1022A000110508F0E6C101E00E9493222160149616
:1022B000AE15BF0529F720932D0430932E044093CB
:1022C0002F045093300400E20E94AE2220932B048E
:1022D00030932C0485E090E090932A0480932904A5
:1022E00080E390E09093320480933104C0902D04F9
:1022F000D0902E04E0902F04F0903004BFEFCB1666
:10230000DB06EB06FB0609F040C0C090E401D0906C
:10231000E501E090E601F090E701FDEFCF16F2E075
:10232000DF06FFEFEF06F10409F4FEC12FE9C21644
:1023300020E6D2062FEFE206F10409F4F5C10E946F
:10234000D10D2B013C0198EC892E912CA12CB12CA4
:102350000E94D10DDC01CB0184199509A609B709AA
:10236000883E9340A105B10558F031E0831A9108E9
:10237000A108B10888EE480E83E0581E611C711C4C
:1023800081149104A104B10419F7C092E401D09220
:10239000E501E092E601F092E70160912D04709171
:1023A0002E0480912F049091300440E10E94B209E4
:1023B00080E691E00E94A00940E1C701B6010E94B9
:1023C000B20980E691E00E94A009F7E8CF16F8E78D
:1023D000DF06FFEFEF06F10409F434C40CF063C22A
:1023E00035EDC3163AE2D3063FEFE306F10409F4F4
:1023F000E7C30CF0E9C19DEEC91692E1D9069FEF43
:10240000E906F10409F430C40CF0A9C1B7EFCB160A
:10241000B8E0DB06BFEFEB06F10409F4E9C30CF00A
:102420008AC1FDEFCF16F2E0DF06FFEFEF06F10401
:1024300009F454C382E08093960210929A0280912C
:102440009602823021F080919602853011F5E0905D
:10245000AB03F090AC039091E30180917603981365
:102460000FC01092E30180917303833009F4E1C43B
:1024700008F085C4813009F48BC4823009F4BBC4F0
:102480008091E3018F5F8093E301809189020E9434
:10249000550A0E94E302CACC8091A1029091A20247
:1024A000825491098E9708F0F4CC80E090E040E0EF
:1024B00050E0BA01FC01ED55FD4F208131812950DA
:1024C000310929303105D0F0E4CC8091A3029091FC
:1024D000A4020997099708F0D7CC10923204109201
:1024E00031048FEF9FEFDC0180932D0490932E0435
:1024F000A0932F04B09330040C94921AFC01EB5576
:10250000FD4F208131812751310922313105C8F435
:10251000440F551F661F771F416004968038910550
:1025200049F680E290E09093320480933104409326
:102530002D0450932E0460932F04709330040C9458
:10254000921A20813181265031092730310508F057
:10255000A0CC440F551F661F771FDFCF208131812C
:10256000235131092F30310540F4440F551F661FA8
:10257000771F416002963496B6CC208131812A5073
:1025800031092930310508F0DDCC440F551F661F95
:10259000771FF0CF8091A1029091A202C6978697F3
:1025A00008F022CDE5EAF2E083E090E040E050E080
:1025B000BA01F8CC208131812C5031092A30310503
:1025C00008F012CD440F551F661F771FE9CC4D91BF
:1025D0005C914C5051094B30510508F057CDCC0C53
:1025E000DD1CEE1CFF1C2ECD4CEB51E0BE016F5CE0
:1025F0007F4FCE0101960E94040D7C01033011052E
:1026000069F44CEB51E0BE016F5C7F4FCE01019647
:102610000E94040DE816F90609F014CEC114D10485
:1026200059F4EA94EF2809F00DCE880C991CAA1CE5
:10263000BB1C689480F80BC0CA94CD2809F002CE68
:10264000EF2809F0FFCD880C991CAA1CBB1C0F5F5A
:102650001F4FD3CD109332040093310480922D0488
:1026600090922E04A0922F04B092300482E090E069
:1026700056C012960D911C91139704501109053004
:10268000110520F401E00E94932211CE80919A025C
:10269000893348F082819381895791098335910567
:1026A00010F40C94A71B80919A02823211F40C94BE
:1026B000951A82819381895791098335910510F488
:1026C0000C942B1C828193818C549109C59710F036
:1026D0000C94A21A80919A02843011F00C949D1AE5
:1026E000848195818097479710F00C949D1A86817C
:1026F00097810997099710F00C949D1A1092320453
:10270000109231048FEF9FEFDC0180932D049093A2
:102710002E04A0932F04B093300487E090E09093B0
:102720002A0480932904E2CDCC24CA94DC2C2FE027
:10273000E22EF12C04CE25EFC2162AE0D2062FEFAE
:10274000E206F10409F446C23FEEC31630E1D306B7
:102750003FEFE306F10409F06DCE83E0B8C28FEDE0
:10276000C81680E2D8068FEFE806F10409F4ACC27F
:10277000ACF4A7EECA16A8E1DA06AFEFEA06F10458
:1027800009F434C2B5EECB16BAE1DB06BFEFEB06B7
:10279000F10409F04FCE8FEF898310C2EDEDCE1614
:1027A000E2E2DE06EFEFEE06F10409F45AC2F7EDBD
:1027B000CF16F8E2DF06FFEFEF06F10409F03ACE9C
:1027C0008FEF89831A8228C227EBC21628E4D2062B
:1027D0002FEFE206F10409F43FC27CF58DECC81638
:1027E00082E3D8068FEFE806F10409F443C294F4BB
:1027F000AFECCA16A0E3DA06AFEFEA06F10409F07F
:1028000019CE19821A821B82CE0101960E943A0CBF
:1028100084E05DC2B7ECCB16B8E3DB06BFEFEB0696
:10282000F10409F4DDC1E5ECCE16EAE3DE06EFEFD4
:10283000EE06F10409F442C1FDCDFFE9CF16F0E642
:10284000DF06FFEFEF06F10409F444C2B4F43FEAF7
:10285000C31630E5D3063FEFE306F10409F42AC2BC
:1028600087EAC81688E5D8068FEFE806F10409F074
:10287000E1CD8FEF89831A82A7C197E9C91698E63F
:10288000D9069FEFE906F10409F4E1C1AFE8CA16E1
:10289000A0E7DA06AFEFEA06F10409F0CBCD8091AC
:1028A0006A03875E0AC2B5E5CB16BAEADB06BFEF5C
:1028B000EB06F10409F4A0C10CF07FC0FDE6CF16D1
:1028C000F2E9DF06FFEFEF06F10409F4B8C10CF0FE
:1028D0003FC037E7C31638E8D3063FEFE306F104FD
:1028E00009F4A0C114F59DE7C91692E8D9069FEF37
:1028F000E906F10409F09ECD80E00E94E10B809191
:10290000AB039091AC030E9479238BE490E00E948A
:10291000E4226C0183E691E00E94710B760182E073
:10292000E80EF11C04E610E028C1A5E7CA16AAE8E3
:10293000DA06AFEFEA06F10409F462C1BFE6CB168E
:10294000B0E9DB06BFEFEB06F10409F4AAC172CDD2
:10295000EFE5CE16E0EADE06EFEFEE06F10409F44D
:10296000B5C1ACF427E6C21628E9D2062FEFE2067D
:10297000F10409F44BC135E6C3163AE9D3063FEF3B
:10298000E306F10409F056CD198280E82CC18DE5EB
:10299000C81682EAD8068FEFE806F10409F44BC1A5
:1029A00097E5C91698EAD9069FEFE906F10409F000
:1029B00041CD198280E88A832FC1AFE2CA16A0ED0B
:1029C000DA06AFEFEA06F10409F47CC1ACF5E7E4FE
:1029D000CE16E8EBDE06EFEFEE06F10409F413C1C4
:1029E000BCF42FE4C21620EBD2062FEFE206F1046E
:1029F00009F450C13DE4C31632EBD3063FEFE306C2
:102A0000F10409F017CD89E189838A8380E7DCC06E
:102A100085E4C8168AEBD8068FEFE806F10409F4BE
:102A200054C097E3C91698ECD9069FEFE906F10464
:102A300009F000CD81E02BC1A7E1CA16A8EEDA06A5
:102A4000AFEFEA06F10409F421C104F5E7E2CE167E
:102A5000E8EDDE06EFEFEE06F10409F411C1FFE147
:102A6000CF16F0EEDF06FFEFEF06F10409F0E2CC3F
:102A70000091AB031091AC0388E691E00E94710BCA
:102A80000E5F1F4F84E6E82EF12C5BC12FE0C216CB
:102A900020EFD2062FEFE206F10409F411C137E06E
:102AA000C31638EFD3063FEFE306F10409F0C2CCBA
:102AB0008DEA898388ED8A8386EE86C080918902BB
:102AC0008F3F09F4B7CC8B5F06C0809189028823C1
:102AD00009F4B0CC855080938902ACCC80E00E9490
:102AE000E10B8091F803E091AB03F091AC038823F4
:102AF00009F11092F803329620E030E0DF011297DE
:102B00004C91C90188599C4FDC01AB5BBF4F4C9382
:102B1000DF0111974C91DC01AA5BBF4F4C934081C0
:102B200011964C932D5F3F4F33962B34310531F77F
:102B3000198244C081E08093F803329620E030E0AF
:102B4000C90188599C4FDC01AB5BBF4F4C91DF0141
:102B500012974C93DC01AA5BBF4F4C91DF01119798
:102B60004C93DC01A95BBF4F8C9180832D5F3F4F5D
:102B700033962B34310521F75DCC5801C8010E94F2
:102B8000A10BF70132978083C80101960E94A10B27
:102B9000F701319780830D5F1F4FC50102960E9498
:102BA000A10BD7018C93B3E0EB0EF11C0F3A11058A
:102BB00021F7D092AC03C092AB033CCC1A8214C074
:102BC0008DEC89838CE58A838B83CE0101960E94EC
:102BD0003A0C30CC8CED898384E18A838CE3F4CF8A
:102BE0008FEF898385EA8A831B82EFCF8FEF0CC03A
:102BF0008FEF89831A8219C08CE789838CEFF3CF1A
:102C000019828BE8E0CF80E88983EDCF8EE289835B
:102C10008BE88A8387E5D8CF1B82CE0101960E947C
:102C2000C80C08CC198280E88A831B82CE010196E9
:102C30000E94830CFFCB19821A828FEFC5CF1982B5
:102C40008FEFC1CF84E989831A8283EDBDCF1982CA
:102C50001A828FEF8B83E1CF19821A828FEF8B83D9
:102C6000E5CF8FEF8983AFCF8FEF898384EE8A839F
:102C700084ECAACF80EF898386EE8A838CE8A4CF88
:102C800087E7898388E88A8389E99ECF8FEF0E944E
:102C9000F309D0CB80916B038A3008F0CBCB8F5FE8
:102CA00006C080916B03823008F4C4CB81500E942F
:102CB000200CC0CB80916A0389510E94060CBACBCC
:102CC00085E005C086E003C081E001C082E00E948B
:102CD000E10BB0CB80E00E94E10B80916C03873068
:102CE00010F010926C0380916C038F5F80936C03E3
:102CF0002091F9033091FA03E0E38E9F200D311DFE
:102D000011240091890240916B0360916A038091C4
:102D1000AB039091AC030E94140A80916C03609104
:102D2000F9037091FA03F0E38F9F600D711D112478
:102D3000CE0101960E94EB08CE0101960E940F0A77
:102D400079CB6701F80132976081C7010E94AF0B10
:102D5000F80131976081C70101960E94AF0B23E013
:102D6000E20EF11CD8016C91C60102960E94AF0BD5
:102D70000D5F1F4FBFEAEB16F10419F75BCB8530EF
:102D800009F4B4C108F4EEC0863009F407C278CB68
:102D900040917703509178036091790370917A03A1
:102DA0004F3F51056105710548F4242F249F020E01
:102DB00020E0211D1124209389021AC02EEF241B2C
:102DC0002095229F020E20E0211D112420952093A2
:102DD00089024E3FE1E05E076105710548F01092FF
:102DE0007703109278031092790310927A0348CBFC
:102DF000DB01CA01ABC0E0917103F0917203009155
:102E000089022BE733E0408160917703C7010E947C
:102E1000140A8091770390917803A0917903B0917F
:102E20007A038F3F9105A105B10509F008F48EC022
:102E3000D6CF8091DB01811119C00E94F60D6093FD
:102E4000D3017093D4018093D5019093D60184E18E
:102E500090E0A0E0B0E08093D7019093D801A093D8
:102E6000D901B093DA0181E08093DB010E94F60D75
:102E70000091D3011091D4012091D5013091D60158
:102E8000DC01CB01801B910BA20BB30B0091D7018E
:102E90001091D8012091D9013091DA018017910762
:102EA000A207B30778F00E94F60D6093D3017093E8
:102EB000D4018093D5019093D6018091D2018F5F88
:102EC0008093D2016BEEC7010E94030980917703C2
:102ED0000E949108182F8091D20189838FEF8A83F5
:102EE00080EC8B83BE016F5C7F4FCE0101960E9408
:102EF000CB07212F30E0A8E1B0E00E9420202FEF87
:102F000030E040E050E00E94CC1FF901EE0FFF1FBF
:102F1000E20FF31FEE0DFF1D39A92081230F08F4E6
:102F20002FEF20833AA92181230F08F42FEF21836B
:102F30003BA92281230F08F42FEF2283809177038E
:102F400090917803A0917903B0917A030196A11D25
:102F5000B11D8093770390937803A0937903B09386
:102F60007A038ECA16ECA12E11E0B12E85018AE2F9
:102F70000E94B308D8012C91382F231B08F420E0BD
:102F80002D938D01BEA9B013F2CFE0EDF1E022ED5B
:102F900031E003E010E08081429190E0840F911DC8
:102FA000840F911DB8010E947822D9016E939D0172
:102FB000B1E0E63CFB0779F7409100015091010137
:102FC00025E038E0429FC001439F900D529F900D35
:102FD0001124875E994C9093010180930001890F21
:102FE000803590F487E00E94B308182F8FE50E9487
:102FF000B308E12FF0E08056EA53FE4F2081382FCE
:10300000230F08F42FEF208387010E5F1F4F270146
:1030100087E4480E511C370194E2690E711C2FEBB6
:10302000212C33243A94D5014D915D01322D442356
:1030300029F0429F312D112421113F5F832F880FEA
:10304000880F37FF04C039AA3AAA8BAB08C036FFF5
:1030500003C039AA8AAB02C089AB1AAA1BAAF7011E
:1030600080818983D8018E916D018A83F8018081E6
:103070008B83BE016F5C7F4FCE0101962FAB0E9408
:1030800023098981D7018C938A81F60180838B8102
:10309000D8018C934201B2E08B1A9108F40180812F
:1030A0008983D2018E916D018A83F20180818B83A5
:1030B000BE016F5C7F4FCE0101960E94230989817A
:1030C000D4018C938A81F60180838B81D2018C9309
:1030D000B3E0EB0EF11C0D5F1F4FE3E04E1A5108F9
:1030E0002FA9E614F70409F09ECFCAC967EDC701FE
:1030F0000E94030900E010E0B8ECDB2ECC24CA9457
:103100001983DA82CB82BE016F5C7F4FCE010196BC
:103110000E94CB078091770390917803A091790367
:10312000B0917A03AC01BD014F5F5F4F6F4F7F4F8E
:1031300040937703509378036093790370937A03F5
:10314000089F802D11240E949108282F30E0A8E1CB
:10315000B0E00E9420202FEF30E040E050E00E94DD
:10316000CC1FF901EE0FFF1F2E0F3F1FF701E20FDB
:10317000F31F89A99081981708F480838AA9918107
:10318000981708F481838BA99281981708F4828399
:103190001E5B0F5F183009F0B3CF72C98091BE017A
:1031A00081111AC0409100015091010125E038E0E1
:1031B000429FC001439F900D529F900D1124875E46
:1031C000994C90930101809300019093BD018093ED
:1031D000BC0181E08093BE01C12CD12C62E7462E58
:1031E00060E0562E73E7272E70E0372EEEE16E2E4C
:1031F000FDEE7F2E0091BC011091BD019801225E71
:103200003F4F2C0D3D1DF2018491830F90E0FC0196
:10321000EE58FF4F6491FC01ED58FF4F7491F1019E
:103220004491430F50E0FA01EE58FF4F3491FA01F8
:10323000ED58FF4FA491922F9695892F562D559FAB
:10324000050E50E0511D422F429F040E40E0411DEB
:103250001124E32FF0E0EE58FF4FE491E2FD03C0AC
:10326000392F2FE802C0292F3FE8E0FD2195E1FD2D
:10327000319535952595231FE62FF0E0EE58FF4F49
:10328000E491E2FD03C0392F8FE001C03FE0E0FD93
:103290008195E1FD3195682F35956595631F62171E
:1032A0004CF4261B259F020E20E0211D1124822FA5
:1032B000860F0AC0F62FF21B2F2F259F020E20E04B
:1032C000211D1124862F821B9058EA2FF0E0EE5822
:1032D000FF4FE491E2FD03C0292F3FE802C0392FE0
:1032E0002FE8E0FD3195E1FD219525953595321FBB
:1032F000E72FF0E0EE58FF4FE491E2FD03C0292FE5
:103300009FE001C02FE0E0FD9195E1FD2195692F3F
:1033100025956595621F63174CF4361B359F030E88
:1033200030E0311D1124932F960F09C0262F231B47
:10333000259F020E20E0211D1124962F921B891734
:103340004CF4981B292F249F020E20E0211D1124EC
:10335000820F08C0282F291B249F020E20E0211D68
:103360001124821B8B5B282F372D239F020E20E018
:10337000211D1124220F203320F0213C18F020ECD5
:1033800001C020E3822F90E0A0E0B0E09C01AD01FD
:103390002053310941095109A8E1B0E00E94EB1F17
:1033A00020E930E040E050E00E94CC1F49015A0182
:1033B000812F9927FC01EE58FF4FE491F0E0EE5881
:1033C000FF4F2491FC01ED58FF4FE491F0E0EE58DF
:1033D000FF4FE491502F5695602F609F060E60E0DE
:1033E000611D112470E8750FF0E0EE58FF4FE49175
:1033F000E3FD05C0E2FD05C0372F71E003C0372FA4
:1034000001C031E0E0FD3195E1FD7195759535958F
:10341000371FE22FF0E0EE58FF4FE491E3FD05C0C7
:10342000E2FD05C0452F51E003C0452F01C041E03A
:10343000E0FD4195E1FD519555954595451F431793
:1034400044F4341B369F030E30E0311D1124430F2A
:1034500008C0242F231B269F020E20E0211D1124CB
:10346000421B4B5B2FEF429F040E40E0411D112495
:10347000440F6BE773E0CE0101960E944109F4010D
:10348000EE0FFF1F8E0E9F1EF701E80DF91D8981BB
:1034900080838A8181838B81828338ECC30ED11C27
:1034A00080EAC8168FE0D80609F0A4CE8091770391
:1034B00090917803A0917903B0917A03AC01BD019A
:1034C0004F5F5F4F6F4F7F4F409377035093780369
:1034D0006093790370937A030E9491084801110F59
:1034E000AA08BB08282F30E0A3E0B0E00E9420200B
:1034F0002FEF30E040E050E00E94CC1F89019A019C
:103500000F5F1F4F2F4F3F4F080D191D2A1D3B1DE9
:103510001093BD010093BC016FEEC7010E94030927
:103520000C94401283E090E0FAC8828193810A975C
:10353000099708F470C10C94591380919A0284344D
:1035400008F0F4C180919A02863460F182819381FF
:103550000C970B9708F43BC225C0D90112966D91C8
:103560007C9113976E5171096731710508F068C23B
:10357000D701C601880F991FAA1FBB1F6C017D01CF
:103580006894C0F84E5F5F4F2C5F3F4F4534510544
:1035900009F438C2D9016D917C916C5071096B307E
:1035A0007105D8F280919A02883580F182819381E9
:1035B000855891098B35910508F452C227C0BC018A
:1035C0006F5F7F4FD8014D915C9111974750510922
:1035D0004730510508F053C2220F331F2160029675
:1035E0000C5F1F4F40919A0250E0445051098417DC
:1035F00095070CF04CC2A80142505109DA014D91D7
:103600005C914950510948305105C8F280919A02A5
:103610008032E1F48281938106970697B8F4848121
:1036200095810997099790F49F012A5F3F4FBF0149
:10363000625C7F4FC12CD12C7601D9014D915C91F8
:10364000465051094630510508F43EC220913504D8
:10365000309136043DAB2CAB2630310514F40C947C
:103660001A128F010A5F1F4F45ECC42E4DE9D42E6C
:103670004CE1E42E41E8F42E53E0252E312CD80104
:103680006D917C91F8013497A080B18080E090E04A
:103690000E9449212B013C01B50180E090E00E948D
:1036A00049214B015C012DEC3CEC4CE45FE30E94B2
:1036B000FB219B01AC01C301B2010E949C2087FD4C
:1036C00017C02DEC3CEC4CE45FE3C301B2010E9457
:1036D000FB219B01AC01C501B4010E949C20E82F95
:1036E000880FFF0BEE27FF0FEE1FFF27319602C05A
:1036F000E0E0F0E0A701960163E971E080E091E08D
:103700000E9468226F01FF0FEE08FF08C626D72629
:10371000E826F926BFEF2B1A3B0A0E5F1F4FECA9D4
:10372000FDA92E163F0609F0AACFC0922D04D09213
:103730002E04E0922F04F092300480E290E0909307
:103740003204809331048FEF9FEF0C948F138481A8
:103750009581CA97899710F00C9453139F012A5FA3
:103760003F4FC12CD12C760143E050E0D9016D913F
:103770007C916A5071096930710510F00C945313F3
:10378000D90112966D917C9113976651710961313F
:10379000710580F5D701C601880F991FAA1FBB1FAD
:1037A0006C017D016894C0F84E5F5F4F2C5F3F4F06
:1037B0004B335105D9F69F012A583F4FD9012D911E
:1037C0003C912A5031092930310510F00C945313E3
:1037D0002CE130E03093320420933104C0922D0468
:1037E000D0922E04E0922F04F09230048AE090E010
:1037F0000C948F13D90112966D917C91139766509A
:1038000071096730710510F00C945313CC0CDD1C5A
:10381000EE1CFF1CC9CF20919A02CF01820F911D8F
:10382000820F911DDC0112978D919C910A97099747
:1038300010F00C94591310923204109231048FEF4F
:103840009FEFDC0180932D0490932E04A0932F040E
:10385000B093300467C080919A02813210F40C94C6
:10386000621384819581CA97899710F00C94621332
:103870009F012A5F3F4FC12CD12C760143E050E0DD
:10388000D9016D917C916A5071096930710510F010
:103890000C946213D90112966D917C911397665125
:1038A00071096131710568F5D701C601880F991F4B
:1038B000AA1FBB1F6C017D016894C0F84E5F5F4F6B
:1038C0002C5F3F4F43325105D9F69F012A5B3F4F92
:1038D000D9012D913C912A5031092930310510F040
:1038E0000C94621320E130E03093320420933104D1
:1038F000C0922D04D0922E04E0922F04F092300456
:1039000011C0D90112966D917C911397665071097F
:103910006730710510F00C946213CC0CDD1CEE1CAA
:10392000FF1CCCCF86E090E00C948F1384819581AE
:1039300089549109C39708F005CE9F012A5F3F4F34
:10394000BF016A577F4FC12CD12C7601D9014D910F
:103950005C91495051094930510508F0F3CDD90126
:1039600012964D915C911397465151094131510581
:1039700018F112964D915C911397465051094730BA
:10398000510508F0DFCDCC0CDD1CEE1CFF1C2C5FBC
:103990003F4F26173707D1F620E230E0309332044C
:1039A00020933104C0922D04D0922E04E0922F0473
:1039B000F09230040C948D13D701C601880F991F23
:1039C000AA1FBB1F6C017D016894C0F8E0CF848101
:1039D00095810997099708F0E5CD868197818C97A5
:1039E0004F9708F0DFCD8085918589974D9708F036
:1039F000D9CD9F01265F3F4FC12CD12C760145E0E8
:103A000050E0C8CD9F0126573F4FD9012D913C91E1
:103A10002C5031092B30310508F0C4CD20E230E0C4
:103A20003093320420933104C0922D04D0922E049E
:103A3000E0922F04F092300488E090E00C948F1311
:103A4000D90112966D917C91139769507109693073
:103A5000710508F0A7CDCC0CDD1CEE1CFF1C92CD2F
:103A600084819581825491098E9708F0CFCD8F0182
:103A7000045C1F4F8DE190E020E030E0B3CD4D912C
:103A80005C914851510942315105D8F0CB01019761
:103A90009595879590933204809331048A970CF41E
:103AA000B5CDC901330FAA0BBB0B80932D049093A6
:103AB0002E04A0932F04B093300489E090E00C947E
:103AC0008F13220F331F8BCDD90112964D915C912C
:103AD0001397495151094331510510F5D701C601DA
:103AE000880F991FAA1FBB1F6C017D016894C0F845
:103AF0002C5F3F4F2617370709F09FCD2EE030E0AF
:103B00003093320420933104C0922D04D0922E04BD
:103B1000E0922F04F09230048FE090E00C948F1329
:103B2000D90112964D915C91139749505109493032
:103B3000510508F08BCDCC0CDD1CEE1CFF1CD8CF42
:103B400008950F931F93CF93DF931092ED0110927E
:103B5000EC0188EE93E0A0E0B0E08093EE0190935A
:103B6000EF01A093F001B093F10188E191E090930F
:103B7000EB018093EA0185EC90E09093F70180934C
:103B8000F60184EC90E09093F9018093F80180ECC9
:103B900090E09093FB018093FA0181EC90E0909388
:103BA000FD018093FC0182EC90E09093FF018093F3
:103BB000FE0186EC90E09093010280930002109247
:103BC000030210920402109205021092060284E68B
:103BD00090E090938802809387028FEF8093890210
:103BE00010928B0210928A02109295021092940207
:103BF0004FEF5FEFBA0140939002509391026093B0
:103C000092027093930292E090939702109299021D
:103C10002CE531E0309369032093680310926A0326
:103C200095E090936B0380936C038AE291E090930C
:103C30006E0380936D0382E391E090937003809311
:103C40006F038BE693E0909372038093710310925D
:103C500073038BE490E00E94E422909375038093B9
:103C600074038AE0809376036DE771E08BE793E05D
:103C70000E9474080E94A81F209100013091010148
:103C8000620F731F7093010160930001109277031C
:103C9000109278031092790310927A038BE490E0EB
:103CA0000E94E4229093AC038093AB0380E591E003
:103CB0000E94E4229093FA038093F9036DE373E08A
:103CC000805E9E4F0E9474088091F9039091FA03E0
:103CD0006DEF72E0C0960E9474088091F903909194
:103CE000FA036DEB72E0805A9F4F0E947408809136
:103CF000F9039091FA036DE772E080579F4F0E949D
:103D000074088091F9039091FA036DE372E0805496
:103D10009F4F0E9474088091F9039091FA036DEF10
:103D200071E080519F4F0E9474086DEB71E08091AB
:103D3000F9039091FA030E947408C091AB03D091EB
:103D4000AC03FE0132969E01235B3F4F9FEFDF01E4
:103D500012978FEF9C9311969C9390833396E21762
:103D6000F307A9F790911B04911144C010920D0420
:103D700010920C0480931004809311048093120419
:103D800080931304809314048093150481E080933E
:103D90001604109218041092170410920F04109237
:103DA0000E048091230490912404892B31F48AE03D
:103DB00094E09093240480932304E0910804F0910C
:103DC0000904309721F08AE094E0958384838AE0A7
:103DD00094E0909309048093080410921A041092BE
:103DE00019048AE491E090930B0480930A0481E023
:103DF00080931B04E0910A04F0910B040480F58188
:103E0000E02D8AE094E00995D0930D04C0930C0452
:103E100089E190E09093180480931704E0910A04DC
:103E2000F0910B040284F385E02D8AE094E009957B
:103E3000009729F19C0140E050E060E472E48FE0DB
:103E400090E00E94CC1F722F632F00918C02109182
:103E50008D0220918E0230918F02872F962FDA01EA
:103E600080179107A207B30710F4D901C801809306
:103E70008C0290938D02A0938E02B0938F0286E9FC
:103E800080938902E0912304F09124048FEF90EB5A
:103E900020EF309739F08683978320870480F5815F
:103EA000E02DF7CF81E08093F803DF91CF911F9150
:103EB0000F9108958F929F92AF92BF92CF92DF920F
:103EC000EF92FF92CF93DF93EC01688179818A8131
:103ED0009B81611571058105910521F464E279EDFD
:103EE0008BE597E02DE133EF41E050E00E94CC1FDD
:103EF00049015A019B01AC01A7EAB1E40E94EB1F02
:103F00006B017C01ACEEB4EFA50194010E94F91F96
:103F1000DC01CB018C0D9D1DAE1DBF1DB7FF03C085
:103F20000197A109B04888839983AA83BB83BC0108
:103F3000CD019F77DF91CF91FF90EF90DF90CF90F1
:103F4000BF90AF909F908F9008950E945A1F089540
:103F500082E091E00E945A1F0895609302017093DD
:103F6000030180930401909305010895F999FECF10
:103F700092BD81BDF89A992780B50895262FF999A9
:103F8000FECF1FBA92BD81BD20BD0FB6F894FA9A3C
:103F9000F99A0FBE01960895052E97FB1EF4009422
:103FA0000E94E31F57FD07D00E94FE1F07FC03D0AD
:103FB0004EF40C94E31F50954095309521953F4F5A
:103FC0004F4F5F4F089590958095709561957F4F05
:103FD0008F4F9F4F08950E942020A59F900DB49F62
:103FE000900DA49F800D911D11240895B7FF0C948E
:103FF000EB1F0E94EB1F821B930B0895A1E21A2E68
:10400000AA1BBB1BFD010DC0AA1FBB1FEE1FFF1F7C
:10401000A217B307E407F50720F0A21BB30BE40BCC
:10402000F50B661F771F881F991F1A9469F7609513
:104030007095809590959B01AC01BD01CF010895CD
:10404000A29FB001B39FC001A39F700D811D1124D9
:10405000911DB29F700D811D1124911D089550581E
:10406000BB27AA270E9447200C94C1210E94B3219C
:1040700038F00E94BA2120F039F49F3F19F426F459
:104080000C94B0210EF4E095E7FB0C94AA21E92FE3
:104090000E94D22158F3BA17620773078407950765
:1040A00020F079F4A6F50C94F4210EF4E0950B2E93
:1040B000BA2FA02D0B01B90190010C01CA01A0017A
:1040C0001124FF27591B99F0593F50F4503E68F1D5
:1040D0001A16F040A22F232F342F4427585FF3CF16
:1040E000469537952795A795F0405395C9F77EF4E7
:1040F0001F16BA0B620B730B840BBAF09150A1F030
:10410000FF0FBB1F661F771F881FC2F70EC0BA0FB5
:10411000621F731F841F48F4879577956795B7953D
:10412000F7959E3F08F0B0CF9395880F08F0992738
:10413000EE0F9795879508950E94862108F481E0F7
:1041400008950E94B5200C94C1210E94BA2158F014
:104150000E94B32140F029F45F3F29F00C94AA217A
:1041600051110C94F5210C94B0210E94D22168F3D6
:104170009923B1F3552391F3951B550BBB27AA2720
:1041800062177307840738F09F5F5F4F220F331F5A
:10419000441FAA1FA9F335D00E2E3AF0E0E832D022
:1041A00091505040E695001CCAF72BD0FE2F29D025
:1041B000660F771F881FBB1F261737074807AB07F7
:1041C000B0E809F0BB0B802DBF01FF2793585F4F6C
:1041D0003AF09E3F510578F00C94AA210C94F521F9
:1041E0005F3FE4F3983ED4F3869577956795B7954E
:1041F000F7959F5FC9F7880F911D9695879597F959
:104200000895E1E0660F771F881FBB1F62177307D1
:104210008407BA0720F0621B730B840BBA0BEE1FE6
:1042200088F7E09508950E941A216894B1110C94C2
:10423000F52108950E94DA2188F09F5798F0B92F50
:104240009927B751B0F0E1F0660F771F881F991FCB
:104250001AF0BA95C9F714C0B13091F00E94F42158
:10426000B1E008950C94F421672F782F8827B85F68
:1042700039F0B93FCCF3869577956795B395D9F723
:104280003EF490958095709561957F4F8F4F9F4F2D
:104290000895E89409C097FB3EF490958095709539
:1042A00061957F4F8F4F9F4F9923A9F0F92F96E982
:1042B000BB279395F695879577956795B795F111F7
:1042C000F8CFFAF4BB0F11F460FF1BC06F5F7F4F94
:1042D0008F4F9F4F16C0882311F096E911C07723A6
:1042E00021F09EE8872F762F05C0662371F096E8AF
:1042F000862F70E060E02AF09A95660F771F881F7E
:10430000DAF7880F9695879597F90895990F000821
:10431000550FAA0BE0E8FEEF16161706E807F90797
:10432000C0F012161306E407F50798F0621B730B32
:10433000840B950B39F40A2661F0232B242B252BB3
:1043400021F408950A2609F4A140A6958FEF811D56
:10435000811D089597F99F6780E870E060E00895F7
:104360009FEF80EC089500240A941616170618068D
:104370000906089500240A94121613061406050669
:104380000895092E0394000C11F4882352F0BB0FFA
:1043900040F4BF2B11F460FF04C06F5F7F4F8F4F5D
:1043A0009F4F089557FD9058440F551F59F05F3F98
:1043B00071F04795880F97FB991F61F09F3F79F047
:1043C00087950895121613061406551FF2CF4695C9
:1043D000F1DF08C0161617061806991FF1CF86954B
:1043E0007105610508940895E894BB27662777272F
:1043F000CB0197F908950E940E220C94C1210E94CE
:10440000B32138F00E94BA2120F0952311F00C94CA
:10441000AA210C94B02111240C94F5210E94D221E0
:1044200070F3959FC1F3950F50E0551F629FF00107
:10443000729FBB27F00DB11D639FAA27F00DB11D20
:10444000AA1F649F6627B00DA11D661F829F2227A9
:10445000B00DA11D621F739FB00DA11D621F839F30
:10446000A00D611D221F749F3327A00D611D231F06
:10447000849F600D211D822F762F6A2F11249F5754
:1044800050409AF0F1F088234AF0EE0FFF1FBB1F57
:10449000661F771F881F91505040A9F79E3F510516
:1044A00080F00C94AA210C94F5215F3FE4F3983E30
:1044B000D4F3869577956795B795F795E7959F5FC0
:1044C000C1F7FE2B880F911D9695879597F9089552
:1044D000DB018F939F930E94EB1FBF91AF91A29F2F
:1044E000800D911DA39F900DB29F900D11240895F2
:1044F00097FB072E16F4009407D077FD09D00E9491
:10450000CA2207FC05D03EF4909581959F4F0895EF
:10451000709561957F4F08950E942020B7FF089500
:10452000821B930B08950F93083090F0982F872FDC
:10453000762F652F542F432F322F22270850F4CF88
:10454000220F331F441F551F661F771F881F991F97
:104550000A95B2F70F91089597FB10F8169400088A
:104560000F93083098F00850232F342F452F562FE3
:10457000672F782F892F902DF4CF059497958795E5
:104580007795679557954795379527950A95AAF793
:104590000F910895AA1BBB1B51E107C0AA1FBB1FA7
:1045A000A617B70710F0A61BB70B881F991F5A95BF
:1045B000A9F780959095BC01CD010895EE0FFF1FDE
:1045C0000590F491E02D0994CF93DF93823091050B
:1045D00010F482E090E0E0914004F091410420E08A
:1045E00030E0C0E0D0E0309711F1408151814817B0
:1045F0005907C0F04817590761F4828193812097C9
:1046000019F09B838A832BC09093410480934004CC
:1046100026C02115310519F04217530718F49A01E5
:10462000BE01DF01EF010280F381E02DDCCF211517
:10463000310509F1281B390B2430310590F412960D
:104640008D919C9113976115710521F0FB01938366
:10465000828304C09093410480934004FD0132960C
:1046600044C0FD01E20FF31F819391932250310961
:104670002D933C933AC020913E0430913F04232B6C
:1046800041F4209108013091090130933F042093B7
:104690003E0420910601309107012115310541F4B6
:1046A0002DB73EB740910A0150910B01241B350BE9
:1046B000E0913E04F0913F04E217F307A0F42E1BB3
:1046C0003F0B2817390778F0AC014E5F5F4F241776
:1046D000350748F04E0F5F1F50933F0440933E0450
:1046E0008193919302C0E0E0F0E0CF01DF91CF91A0
:1046F00008950F931F93CF93DF93009709F48CC015
:10470000FC013297138212820091400410914104FF
:104710000115110581F420813181820F931F2091B1
:104720003E0430913F042817390779F5F0933F0490
:10473000E0933E0471C0D80140E050E0AE17BF07DF
:1047400050F412962D913C911397AD01211531052E
:1047500009F1D901F3CF9D01DA013383228360810E
:104760007181860F971F8217930769F4EC012881E6
:104770003981260F371F2E5F3F4F318320838A8177
:104780009B8193838283452B29F4F0934104E0932A
:10479000400442C01396FC93EE931297ED014991A9
:1047A00059919E01240F351FE217F30771F48081A0
:1047B0009181840F951F029611969C938E9382810E
:1047C000938113969C938E931297E0E0F0E0D801CA
:1047D00012968D919C911397009719F0F8018C0116
:1047E000F6CF8D919C9198012E5F3F4F820F931FC2
:1047F00020913E0430913F042817390769F430971F
:1048000029F4109241041092400402C013821282D3
:1048100010933F0400933E04DF91CF911F910F91BD
:10482000089581E090E0F8940C94162411E0C3EE12
:10483000D1E004C0FE010E94DE222196C43ED107D1
:06484000C9F7F894FFCF58
:1048460039050100000000004204800000313129D2
:104856005A1B750A000000007A02580C1202C102A7
:10486600430221023502000000007108F503000032
:1048760000007308F70300000000F103F103F103E1
:10488600CD03C903C6030000000083033F033D03B5
:10489600CD03C9033A03F903000000007208F303CD
:1048A6000D0A006C6F616400736176653A200045FD
:1048B60078636565646564206D6178696D756D20E2
:1048C6006E756D626572206F6620777269746573A6
:1048D60000417474656D707420746F20777269740A
:1048E60065206F757473696465206F662045455051
:0C48F600524F4D206D656D6F727900000F
:00000001FF
